:020000040000FA
:1000000008080020150200003F0200004102000025
:10001000430200004502000047020000000000000B
:100020000000000000000000000000004902000085
:100030004B020000000000004D0200004F020000D3
:100040005102000051020000510200005102000064
:1000500051020000000000005102000051020000A7
:100060005102000051020000510200005102000044
:100070005102000051020000510200005102000034
:100080005102000051020000510200005102000024
:100090005102000051020000510200005102000014
:1000A00051020000510200000000000000000000AA
:1000B000510200005102000000000000000000009A
:1000C0000000000000000000000000000000000030
:1000D0000000000000000000000000000000000020
:1000E0000000000000000000000000000000000010
:1000F0000000000000000000000000000000000000
:1001000000000000000000000000000000000000EF
:1001100000000000000000000000000000000000DF
:1001200000000000000000000000000000000000CF
:1001300000000000000000000000000000000000BF
:1001400000000000000000000000000000000000AF
:10015000000000000000000000000000000000009F
:10016000000000000000000000000000000000008F
:10017000000000000000000000000000000000007F
:10018000000000000000000000000000000000006F
:10019000000000000000000000000000000000005F
:1001A000000000000000000000000000000000004F
:1001B000000000000000000000000000000000003F
:1001C000000000000000000000000000000000002F
:1001D000000000000000000000000000000000001F
:1001E000000000000000000000000000000000000F
:1001F00000000000000000000000000000000000FF
:10020000DFF80CD000F030F800480047F50500009A
:10021000080800200F4800680F4909680A280AD119
:10022000002908D10D4802686FF070031A404FF0A2
:1002300040031A4302600A4880470A480047FEE725
:10024000FEE7FEE7FEE7FEE7FEE7FEE7FEE7FEE786
:10025000FEE700003001001034010010E40E004001
:100260008D02000001020000064C074D06E0E06828
:1002700040F0010394E8070098471034AC42F6D3ED
:10028000FFF7C2FFA0070000C00700002DE9F04102
:10029000914E4FF080548F4DD4F8302130782B6838
:1002A000511CC0F3031000D1DAB200274FF001084F
:1002B000062A05D1B4F82413884AC1F30421116039
:1002C000D9B2062904D1032802D186498448486757
:1002D00000F0D4F928B1D4F844028349C0F3423085
:1002E0000860297830780629C0F3031006D1032866
:1002F00004D17E48016821F08071016000F0DCF9D2
:1003000040B14FF08040C0F80C71C0F810717648D1
:10031000001F076029683078CAB2C0F30310062AAC
:1003200005D1032803D1704B032264331A60C9B28C
:1003300006290ED103280CD16D4A052111606C49A4
:100340007831C1F800806A4808300760111D3F20ED
:10035000086000F0CFF9E8B36648006866490860B5
:100360006448001D0068091D086062480830006884
:10037000091D08605F480C300068091D08605D4871
:1003800010300068091D08605A4814300068091DC3
:1003900008605848183000685749203108605548AF
:1003A0001C300068091D0860524820300068091D93
:1003B0000860504824300068091D08604D48283006
:1003C0000068091D08604B482C300068091D086052
:1003D000484800E018E03030006847494031086084
:1003E000444834300068091D0860424838300068CD
:1003F000091D08603F483C300068091D08603D4801
:1004000040300068091D0860D4F83001411C00D15B
:1004100028783A4D062804D1D4F8580200F04F004D
:10042000286000F00DF930B135480168C90702D0E5
:100430006FF001010160D4E94C10062907D1C21EFA
:10044000022A04D92F4A136843F4806313600A29EF
:1004500005D1020003D02A6842F00F022A604FF053
:100460001022062907D1C01E032804D9D2F8080299
:100470001D491C310860D2F80002234B002803DB21
:10048000D2F8040200280EDA012000F073F91520DA
:10049000C2F8000219680029FCD0C2F804021868EA
:1004A0000028FCD00BE092F80C02C0070CD0012011
:1004B00000F060F9C2F80C7218680028FCD0002027
:1004C00000F058F900F026F8114910480860BDE81E
:1004D000F0810000E00F00F0E80F00F0403501402F
:1004E0000DF0ADBA00C007403C050040FCED00E057
:1004F000105600400404001020C50040E40E0040E7
:10050000000400403C17004000E401400090D0038C
:1005100004000020BFF34F8F05480168054A01F42D
:10052000E06111430160BFF34F8F00BFFDE70000A2
:100530000CED00E00400FA0502E008C8121F08C133
:10054000002AFAD170477047002001E001C1121F54
:10055000002AFBD1704700002DE9FC410646C00788
:100560004FF000050ED0104F00240122385D009599
:1005700000231146019500F0DFF8641C042CF4D32D
:1005800000F02EF8B0070DD5074E0024361D0022CE
:10059000305D032300951146019500F0CDF8641CF1
:1005A000042CF4D3BDE8FC819607000007490B5CDE
:1005B0004FF0A041D1F804250120984020EA020321
:1005C000C1F808351040C1F80C05704796070000C7
:1005D0000249085C012100F0C1B800009607000044
:1005E00010B500242046FFF7F3FF641C042CF9D358
:1005F00010BD00000EB50120FFF7AEFF0D483421FD
:1006000001600421009100680B49C0B2401C0B4CF2
:100610004FF47A46086000252846FFF7C7FF3227C7
:10062000611C304688477F1EFAD16D1C042DF3DB18
:10063000F1E700001C0500400000002090070000CA
:100640004FF08050D0F830114A1C07D0D0F8340158
:1006500006290ED00A2909D00020704706480178E3
:10066000054808300078C0F30310F1E708B101280D
:10067000F3D0012070470000E00F00F04FF08050F1
:10068000D0F830114A1C07D0D0F8340106290ED01A
:100690000A2909D00020704706480178054808302B
:1006A0000078C0F30310F1E708B10128F3D001206E
:1006B00070470000E00F00F04FF08050D0F830118C
:1006C0004A1C07D0D0F8340106290ED00A2909D0D7
:1006D0000020704706480178054808300078C0F3CC
:1006E0000310F1E708B10128F3D0012070470000A2
:1006F000E00F00F04FF08050D0F830114A1C06D0C7
:10070000D0F8340106290AD00A290CD010E0094893
:100710000178084808300078C0F30310F2E7C01EE3
:10072000012803D804E008B1012800D00120704757
:1007300000207047E00F00F070B541EA4201DDE9AA
:1007400004564FF0A04441EA830141EA052104EB3D
:10075000800041EA0641C0F8001770BD01224FF049
:10076000A043824011B1C3F808257047C3F80C2597
:100770007047000003490860034801680029FCD065
:100780007047000004E5014000E401400000000063
:100790000338FDD87047111213140D0E0F1000000E
:1007A000C00700000000002008000000380500001D
:1007B000C8070000080000200008000048050000ED
:0807C000000000000090D003CE
:0400000500000201F4
:00000001FF
