:1000000000000420750300005D0300005F03000092
:1000100061030000630300006503000000000000AE
:100020000000000000000000000000006703000066
:1000300069030000000000006B0300006D03000076
:100040006F0300006F0300006F0300006F030000E8
:100050006F0300006F0300006F0300006F030000D8
:100060006F0300006F0300006F0300006F030000C8
:100070006F0300006F0300006F0300006F030000B8
:100080006F0300006F0300006F0300006F030000A8
:100090006F0300006F0300006F0300006F03000098
:1000A0006F0300006F0300006F0300006F03000088
:1000B0006F0300006F03000000000000000000005C
:1000C0006F0300006F0300006F0300006F03000068
:1000D0006F0300006F0300006F0300006F03000058
:1000E0006F0300006F0300006F03000000000000BA
:1000F000000000006F030000000000006F0300001C
:1001000000000000000000000000000000000000EF
:1001100000000000000000000000000000000000DF
:1001200000000000000000000000000000000000CF
:1001300000000000000000000000000000000000BF
:1001400000000000000000000000000000000000AF
:10015000000000000000000000000000000000009F
:10016000000000000000000000000000000000008F
:10017000000000000000000000000000000000007F
:10018000000000000000000000000000000000006F
:10019000000000000000000000000000000000005F
:1001A000000000000000000000000000000000004F
:1001B000000000000000000000000000000000003F
:1001C000000000000000000000000000000000002F
:1001D000000000000000000000000000000000001F
:1001E000000000000000000000000000000000000F
:1001F00000000000000000000000000000000000FF
:10020000354936480A1A02D0072291438D463449AF
:1002100034480A1A06D00722914381F30988022242
:1002200082F3148830483149314A00F044F83148AB
:100230003149324A00F03FF831483249324A00F041
:100240003AF832483249334A00F035F832483349F7
:10025000334A00F030F833483349344A00F02BF881
:1002600033483449344A00F026F8344834490022EF
:1002700000F02CF833483449002200F027F83348C6
:100280003349091A082902DB002202604160314A21
:1002900090471F481F49884205D00268043003B4C4
:1002A000904703BCF7E700208646EC46002000217B
:1002B000294A9047FEE7884207D0521A05D00378B2
:1002C00001300B700131013AF9D17047884202D0F8
:1002D00002700130FAE770470000042000E00320BC
:1002E0000000042000000420980F000000000020FF
:1002F00004000020D0030000D0030000080F00001D
:10030000980F00000000002000000020080F0000EF
:10031000080F0000080F0000080F0000080F000081
:10032000080F0000080F0000080F0000980F0000E1
:100330009C0F0000040000200400002004000020A6
:10034000280000202800002028000020280000208D
:10035000282000209D030000DD080000FEE7FEE7E6
:10036000FEE7FEE7FEE7FEE7FEE7FEE7FEE7FEE765
:1003700000F002B8FFF7FCBF0F484FF007018843B9
:1003800085460E4880470E48016841F470010160BF
:10039000BFF34F8FBFF36F8FFFF732BF09480A4992
:1003A0000A4A884207D0521A05D0037801300B70F0
:1003B0000131013AF9D1704700000420E10C00003E
:1003C00088ED00E0080F0000000000200000002081
:1003D00000B583B00190019B1B68184600F0E5F85A
:1003E0000346002B04D10B494FF4F67000F00EFACF
:1003F000019B1B681F2B02D84FF0A04306E0019B16
:100400001B6803F01F02019B1A60034B184603B0E0
:100410005DF804FB080F00000003005000B585B034
:100420000190084611461A4603468DF803300B46E4
:100430008DF8023013468DF8013001AB1846FFF7F6
:10044000C7FF03909DF803209DF802305B001A431C
:100450009DF801309B001A439DF818301B0242EAB8
:1004600003019DF81C301B04019A1943039B02F5FC
:10047000E07243F8221000BF05B05DF804FB00B540
:1004800085B00390002301930023009300230122F1
:1004900001210398FFF7C2FF00BF05B05DF804FB20
:1004A00000B585B003900B468DF80B309DF80B30EE
:1004B0000022019200220092002200210398FFF7FF
:1004C000ADFF00BF05B05DF804FB00B585B001903D
:1004D00001AB1846FFF77CFF0390019B012202FA53
:1004E00003F31946039800F04CF800BF05B05DF81F
:1004F00004FB00B585B0019001AB1846FFF768FF1B
:100500000390019B012202FA03F31946039800F0BD
:1005100042F800BF05B05DF804FB00B585B001905E
:1005200001AB1846FFF754FF0390039BD3F8043543
:100530000293029BDA43019B012101FA03F31A4063
:10054000039BC3F80825019B01229A40029B1A4095
:10055000039BC3F80C2500BF05B05DF804FB00B594
:1005600083B001900091009B002B03D10198FFF70D
:10057000C0FF02E00198FFF7A8FF00BF03B05DF8DD
:1005800004FB82B001900091019B009AC3F80825FA
:1005900000BF02B0704782B001900091019B009AA9
:1005A000C3F80C2500BF02B0704784B00190019BD6
:1005B0005B09029300230393029B002B03D0029B51
:1005C000012B04D007E04FF0FF33039303E04FF615
:1005D000FF73039300BF019B03F01F030193039A72
:1005E000019B22FA03F303F00103002B14BF012344
:1005F0000023DBB2184604B07047000000B583B09A
:100600000190019B032B03D90749472000F0FEF816
:10061000064A019B13441B7801211846FFF79FFFF0
:1006200000BF03B05DF804FB380F0000840F00002A
:1006300000B583B00023019305E00198FFF7DEFFCA
:10064000019B01330193019B032BF6D900BF00BF2F
:1006500003B05DF804FB000000B583B00190019B7E
:10066000032B03D907495F2000F0D0F8064A019B0D
:1006700013441B781846FFF750FF00BF03B05DF826
:1006800004FB00BF380F0000840F000000B583B0EA
:100690000023019309E0094A019B13441B78184683
:1006A000FFF7EDFE019B01330193019B032BF2D970
:1006B000FFF7BEFF00BF03B05DF804FB840F00002E
:1006C00000B583B0002301930AE0094A019B13445B
:1006D0001B7803211846FFF7E3FE019B01330193CA
:1006E000019B032BF1D900BF00BF03B05DF804FBF1
:1006F000880F000000B583B00190019B03F0010357
:10070000002B01D0FFF7C2FF019B03F00203002B77
:1007100001D0FFF7D5FF00BF03B05DF804FB000078
:1007200086B003900291019201238DF817309DF855
:100730001730204A039B13601E4A029B53601D4AD8
:10074000019B9360039B44F20102934212D0039BEE
:1007500044F20202934220D1019B164AD360154B0A
:10076000DB681B68134A9361124BDB685B68114AB4
:10077000D36112E0019B0F4A13610E4B1B699B680A
:100780000C4A53610B4B1B691B680A4A9361094B66
:100790001B695B68074AD36100BF72B600BF00BF28
:1007A0009DF81730DBB2002BFAD162B600BF00BF54
:1007B00006B070470400002000B587B00390029196
:1007C000019272B600BF039B44F20102934207D02C
:1007D000039B44F20202934205D1019B059303E07F
:1007E000019B049300E000BF074B1B6803F001036B
:1007F000002B00D000BE019A02990398FFF790FFEA
:1008000000BF07B05DF804FBF0ED00E000B585B077
:1008100003460091ADF80630BDF806300293009B08
:10082000039302AB1A46002144F20200FFF7C4FF13
:1008300000BF05B05DF804FB00B585B00190019BD9
:10084000002B0AD0074B43F001030393019B9B014C
:100850000293039B0298984700E000BF05B05DF843
:1008600004FB00BF900F000000B583B00190019B16
:10087000002B0AD04FF47A70FFF7DEFF019B013B9B
:100880000193019B002BF5D100E000BF03B05DF8A0
:1008900004FB000084B003468DF80730044B03933B
:1008A0009DF80720039B1A6000BF04B0704700BF8B
:1008B0001C05004084B0002302930023019304230D
:1008C000029304230193044B0393039B1B68DBB245
:1008D000184604B0704700BF1C05004000B583B047
:1008E0000120FFF707FF3420FFF7D4FFFFF7E2FFF7
:1008F00003461A460C4B1A600B4B1B6801330A4A1D
:100900001360002301930AE0019B1846FFF7A4FE41
:100910004FF4FA70FFF7A8FF019B01330193019B8D
:10092000032BF1DDEDE700BF24000020BFF34F8F64
:1009300000BF064BDB6803F4E0620449044B134339
:10094000CB60BFF34F8F00BF00BFFDE700ED00E0BD
:100950000400FA0582B0164B1B680193154B1B6807
:100960000093019B082B1FD1009B052B1AD801A2D5
:1009700052F823F08D09000091090000950900004C
:10098000990900009D090000A109000001230CE065
:1009900001230AE0012308E0012306E0012304E02B
:1009A000012302E0012300E00023184602B0704753
:1009B000300100103401001082B0164B1B68019307
:1009C000154B1B680093019B082B1FD1009B052B27
:1009D0001AD801A252F823F0F1090000F50900002D
:1009E000F9090000FD090000010A0000050A0000E5
:1009F00001230CE001230AE0012308E0012306E0C3
:100A0000012304E0012302E0012300E00023184653
:100A100002B07047300100103401001082B0164B54
:100A20001B680193154B1B680093019B082B1FD17A
:100A3000009B052B1AD801A252F823F0550A00009A
:100A4000590A00005D0A0000610A0000650A000002
:100A5000690A000001230CE000230AE0002308E0FB
:100A6000002306E0002304E0002302E0002300E06E
:100A70000023184602B07047300100103401001006
:100A800082B0164B1B680193154B1B680093019BAA
:100A9000082B1FD1009B052B1AD801A252F823F076
:100AA000B90A0000BD0A0000C10A0000C50A000022
:100AB000C90A0000CD0A000001230CE000230AE06F
:100AC000002308E0002306E0002304E0002302E006
:100AD000002300E00023184602B0704730010010E8
:100AE0003401001082B0164B1B680193154B1B6834
:100AF0000093019B082B1FD1009B052B1AD801A244
:100B000052F823F01D0B0000210B0000250B000004
:100B1000290B00002D0B0000310B000001230CE01D
:100B200000230AE0002308E0002306E0002304E09D
:100B3000002302E0002300E00023184602B07047C3
:100B4000300100103401001082B0164B1B68019375
:100B5000154B1B680093019B082B1FD1009B052B95
:100B60001AD801A252F823F0810B0000850B000077
:100B7000890B00008D0B0000910B0000950B00000D
:100B800001230CE000230AE0002308E0002306E034
:100B9000002304E0002302E0002300E000231846C5
:100BA00002B07047300100103401001082B0164BC3
:100BB0001B680193154B1B680093019B082B1FD1E9
:100BC000009B052B1AD801A252F823F0E50B000078
:100BD000E90B0000ED0B0000F10B0000F50B00002D
:100BE000F90B000001230CE001230AE0012308E0D7
:100BF000012306E0012304E0012302E0012300E0D9
:100C00000023184602B07047300100103401001074
:100C100082B0164B1B680193154B1B680093019B18
:100C2000082B1FD1009B052B1AD801A252F823F0E4
:100C3000490C00004D0C0000510C0000550C000048
:100C4000590C00005D0C000000230CE000230AE0BA
:100C5000002308E0002306E0012304E0012302E072
:100C6000012300E00023184602B070473001001055
:100C70003401001008B5FFF7CBFF0346002B07D067
:100C80004FF010234FF08042D3F80832C2F85835A5
:100C900000BF08BD00BF044BD3F80034002BFAD0CE
:100CA00000BF00BF704700BF00E0014000B583B047
:100CB0000190054A019BC2F80435FFF7EBFF00BF26
:100CC00003B05DF804FB00BF00E00140024B034AA3
:100CD0001A6000BF704700BF000000200090D003E2
:100CE00008B5FFF737FE0346002B0ED04FF08043C8
:100CF0000022C3F80C214FF080430022C3F81021DA
:100D00004FF080430022C3F83825FFF755FE034615
:100D1000002B76D04FF08053734AD3F80434C2F8D6
:100D200020354FF08053704AD3F80834C2F8243588
:100D30004FF080536C4AD3F80C34C2F828354FF08A
:100D40008053694AD3F81034C2F82C354FF08053E1
:100D5000654AD3F81434C2F830354FF08053624AF4
:100D6000D3F81834C2F834354FF080535E4AD3F8C4
:100D70001C34C2F840354FF080535B4AD3F820341E
:100D8000C2F844354FF08053574AD3F82434C2F8A0
:100D900048354FF08053544AD3F82834C2F84C35C4
:100DA0004FF08053504AD3F82C34C2F850354FF0EE
:100DB00080534D4AD3F83034C2F854354FF0805345
:100DC000494AD3F83434C2F860354FF08053464A6C
:100DD000D3F83834C2F864354FF08053424AD3F820
:100DE0003C34C2F868354FF080533F4AD3F8403462
:100DF000C2F86C354FF080533B4AD3F84434C2F804
:100E00007035FFF70BFE0346002B02D0374B384AF4
:100E10001A60FFF735FE0346002B03D0354BFB224B
:100E2000C3F81825FFF75EFE0346002B0AD0324BAD
:100E30001B6823F00F02314B1B6803F00F032E4990
:100E400013430B60FFF780FE0346002B03D02C4BAF
:100E50004FF400721A60FFF7A9FE0346002B0DD075
:100E60004FF08043D3F8003403F00103002B05D08A
:100E70004FF080436FF00102C3F80024214BD3F8F8
:100E80008830204A43F47003C2F88830BFF34F8F94
:100E900000BFBFF36F8F00BFFFF7ECFE4FF01023D2
:100EA000D3F80032002B05DB4FF01023D3F80432C7
:100EB000002B15DA0120FFF7F9FE4FF01023122264
:100EC000C3F80022FFF7E6FE4FF010231222C3F80A
:100ED0000422FFF7DFFE0020FFF7E8FEFFF726FD04
:100EE000FFF7F4FE00BF08BD00C000408C56004074
:100EF0004881030000F00040E40E0040580200105A
:080F00004096024000ED00E004
:100F08002E2E2F2E2E2F2E2E2F2E2E2F2E2E2F2EF4
:100F18002E2F6D6F64756C65732F6E7266782F68EF
:100F2800616C2F6E72665F6770696F2E68000000D3
:100F3800443A5C776F726B73706163655C6E72665E
:100F4800355F73646B5C6E5246355F53444B5F315B
:100F5800372E312E305F646464653536305C636FDC
:100F68006D706F6E656E74735C626F617264735CD2
:100F7800626F617264732E63000000000D0E0F1023
:100F88000B0C1819000000000338FDD8704700004A
:040F98000090D003F2
:040000030000037581
:00000001FF
