:1000000000000420750300005D0300005F03000092
:1000100061030000630300006503000000000000AE
:100020000000000000000000000000006703000066
:1000300069030000000000006B0300006D03000076
:100040006F0300006F0300006F0300006F030000E8
:100050006F0300006F0300006F0300006F030000D8
:100060006F0300006F0300006F0300006F030000C8
:100070006F0300006F0300006F0300006F030000B8
:100080006F0300006F0300006F0300006F030000A8
:100090006F0300006F0300006F0300006F03000098
:1000A0006F0300006F0300006F0300006F03000088
:1000B0006F0300006F03000000000000000000005C
:1000C0006F0300006F0300006F0300006F03000068
:1000D0006F0300006F0300006F0300006F03000058
:1000E0006F0300006F0300006F03000000000000BA
:1000F000000000006F030000000000006F0300001C
:1001000000000000000000000000000000000000EF
:1001100000000000000000000000000000000000DF
:1001200000000000000000000000000000000000CF
:1001300000000000000000000000000000000000BF
:1001400000000000000000000000000000000000AF
:10015000000000000000000000000000000000009F
:10016000000000000000000000000000000000008F
:10017000000000000000000000000000000000007F
:10018000000000000000000000000000000000006F
:10019000000000000000000000000000000000005F
:1001A000000000000000000000000000000000004F
:1001B000000000000000000000000000000000003F
:1001C000000000000000000000000000000000002F
:1001D000000000000000000000000000000000001F
:1001E000000000000000000000000000000000000F
:1001F00000000000000000000000000000000000FF
:10020000354936480A1A02D0072291438D463449AF
:1002100034480A1A06D00722914381F30988022242
:1002200082F3148830483149314A00F044F83148AB
:100230003149324A00F03FF831483249324A00F041
:100240003AF832483249334A00F035F832483349F7
:10025000334A00F030F833483349344A00F02BF881
:1002600033483449344A00F026F8344834490022EF
:1002700000F02CF833483449002200F027F83348C6
:100280003349091A082902DB002202604160314A21
:1002900090471F481F49884205D00268043003B4C4
:1002A000904703BCF7E700208646EC46002000217B
:1002B000294A9047FEE7884207D0521A05D00378B2
:1002C00001300B700131013AF9D17047884202D0F8
:1002D00002700130FAE770470000042000E00320BC
:1002E000000004200000042014070000000000208B
:1002F00004000020D0030000D0030000F40600003A
:10030000140700000000002000000020F406000098
:10031000F4060000F4060000F4060000F4060000F5
:10032000F4060000F4060000F406000014070000C4
:100330001807000004000020040000200400002032
:10034000040000200400002004000020040000201D
:10035000042000209D0300008D040000FEE7FEE75E
:10036000FEE7FEE7FEE7FEE7FEE7FEE7FEE7FEE765
:1003700000F002B8FFF7FCBF0F484FF007018843B9
:1003800085460E4880470E48016841F470010160BF
:10039000BFF34F8FBFF36F8FFFF732BF09480A4992
:1003A0000A4A884207D0521A05D0037801300B70F0
:1003B0000131013AF9D17047000004200D05000019
:1003C00088ED00E0F406000000000020000000209E
:1003D000074B1B5C1F2B86BF064903F01F034FF022
:1003E000A041012202FA03F3C1F80835704700BFAB
:1003F000F40600000003005008B50020FFF7E8FFF6
:100400000120FFF7E5FF0220FFF7E2FFBDE808400B
:100410000320FFF7DDBF00000A4B185C1F288ABFCE
:10042000094B4FF0A04300F01F00D3F80425012131
:10043000814021EA02000A40C3F80805C3F80C25F0
:10044000704700BFF406000000030050C20710B55B
:1004500004460CD54FF0A0430322C3F83427C3F859
:100460003827C3F83C27C3F84027FFF7C5FFA30789
:100470000AD54FF0A0430C22C3F82C27C3F830272D
:10048000C3F86027C3F8642710BD000070B50120D1
:10049000FFF7DCFF4FF08043094DD3F81C3545F0E2
:1004A000010500242046FFF7B7FF4FF4FA764FF41A
:1004B0007A40A847013EFAD10134042CF2D1F0E78A
:1004C000000700004FF08053D3F83001A0F108037B
:1004D00058425841704700004FF08053D3F8302104
:1004E000082A06D1D3F83431052B02D8024AD05C51
:1004F00070470020704700BF0C070000024AD2F886
:100500000034002BFBD0704700E0014010B5FFF72E
:10051000D9FF40B14FF080430022C3F80C21C3F84B
:100520001021C3F83825FFF7CDFF002846D04FF043
:100530008052654BD2F80414C3F82015D2F8081481
:10054000C3F82415D2F80C14C3F82815D2F81014E7
:10055000C3F82C15D2F81414C3F83015D2F81814B7
:10056000C3F83415D2F81C14C3F84015D2F820147F
:10057000C3F84415D2F82414C3F84815D2F8281447
:10058000C3F84C15D2F82C14C3F85015D2F8301417
:10059000C3F85415D2F83414C3F86015D2F83814DF
:1005A000C3F86415D2F83C14C3F86815D2F84014A7
:1005B000C3F86C15D2F84424C3F87025FFF78CFFFC
:1005C00018B1424B424AC3F88C26FFF785FF18B199
:1005D000404BFB22C3F81825FFF77EFF70B14FF0A8
:1005E00080414FF08053D1F8E42ED3F8583222F0F6
:1005F0000F0203F00F031343C1F8E43EFFF76CFF53
:1006000020B1354B4FF40072C3F84026FFF75AFF74
:1006100048B14FF08043D3F80024D20744BF6FF0B5
:100620000102C3F800242D4AD2F8883043F4700345
:10063000C2F88830BFF34F8FBFF36F8F4FF08053F6
:10064000D3F83021082A0ED1D3F83431052B02D843
:10065000234AD35C3BB14FF01023D3F808224FF06C
:100660008043C3F858254FF01023D3F80022002A06
:1006700003DBD3F80432002B22DA1A4901234FF0AE
:100680001020C1F804351224FFF738FFC0F80042EB
:10069000FFF734FFC0F80442FFF730FF0023C1F832
:1006A0000435FFF72BFFBFF34F8F0C490E4BCA6881
:1006B00002F4E0621343CB60BFF34F8F00BFFDE74E
:1006C0000A4B0B4A1A6010BD00C0004000500040A9
:1006D0004881030000F000400090024000ED00E07F
:1006E0000607000000E001400400FA0500000020B9
:0406F0000090D003A3
:1006F4000D0E0F1000000000000000000338FDD8AC
:10070400704700000000010101000000000000002B
:040714000090D0037E
:040000030000037581
:00000001FF
