:1000000000000120750300005D0300005F03000095
:1000100061030000630300006503000000000000AE
:100020000000000000000000000000006703000066
:1000300069030000000000006B0300006D03000076
:100040006F0300006F0300006F030000ED19000054
:100050006F0300006F0300006F0300006F030000D8
:100060006F0300006F0300006F0300006F030000C8
:100070006F0300006F0300006F0300006F030000B8
:100080006F0300006F0300006F0300006F030000A8
:100090006F0300006F0300006F0300006F03000098
:1000A0006F0300006F0300006F0300006F03000088
:1000B0006F0300006F03000000000000000000005C
:1000C0006F0300006F0300006F0300006F03000068
:1000D0006F0300006F0300006F03000000000000CA
:1000E0000000000000000000000000000000000010
:1000F0000000000000000000000000000000000000
:1001000000000000000000000000000000000000EF
:1001100000000000000000000000000000000000DF
:1001200000000000000000000000000000000000CF
:1001300000000000000000000000000000000000BF
:1001400000000000000000000000000000000000AF
:10015000000000000000000000000000000000009F
:10016000000000000000000000000000000000008F
:10017000000000000000000000000000000000007F
:10018000000000000000000000000000000000006F
:10019000000000000000000000000000000000005F
:1001A000000000000000000000000000000000004F
:1001B000000000000000000000000000000000003F
:1001C000000000000000000000000000000000002F
:1001D000000000000000000000000000000000001F
:1001E000000000000000000000000000000000000F
:1001F00000000000000000000000000000000000FF
:10020000354936480A1A02D0072291438D463449AF
:1002100034480A1A06D00722914381F30988022242
:1002200082F3148830483149314A00F044F83148AB
:100230003149324A00F03FF831483249324A00F041
:100240003AF832483249334A00F035F832483349F7
:10025000334A00F030F833483349344A00F02BF881
:1002600033483449344A00F026F8344834490022EF
:1002700000F02CF833483449002200F027F83348C6
:100280003349091A082902DB002202604160314A21
:1002900090471F481F49884205D00268043003B4C4
:1002A000904703BCF7E700208646EC46002000217B
:1002B000294A9047FEE7884207D0521A05D00378B2
:1002C00001300B700131013AF9D17047884202D0F8
:1002D00002700130FAE770470000012000E00020C2
:1002E00000000120000001209C7900000000002097
:1002F00034000020D0030000D00300008C5E00001A
:100300009C7900000000002000000020C05E00007A
:10031000C05E0000C05E0000C05E0000C05E000065
:10032000C05E0000C05E0000C05E00009C7900005E
:10033000D079000034000020340000203400002078
:10034000D81F0020D81F0020DC1F0020DC1F002049
:10035000DC3F00209D030000A91A0000FEE7FEE735
:10036000FEE7FEE7FEE7FEE7FEE7FEE7FEE7FEE765
:1003700000F002B8FFF7FCBF0F484FF007018843B9
:1003800085460E4880470E48016841F470010160BF
:10039000BFF34F8FBFF36F8FFFF732BF09480A4992
:1003A0000A4A884207D0521A05D0037801300B70F0
:1003B0000131013AF9D1704700000120811B000092
:1003C00088ED00E0C05E000000000020000000207A
:1003D00000487047D01F0020037813F0040216D0A5
:1003E00003F00303012B03D0022B09D00120704737
:1003F0000A6800880232C0F3831002440A60F5E7FD
:100400000B684288023303EB92130B60EEE7104651
:10041000704700002DE9F04FDFF810A10F4685B0BE
:100420000446861C0020154600F062FDDAF8042020
:100430003A60DAF8083003F580739B1A0AF21C4719
:100440000AF583690AF21448B34219D30020002D3B
:1004500068D004F00F039B0143F0050363F30F0022
:10046000DAF80430DAB2033233444AF822000020CA
:10047000CAF8043000F03EFD012005B0BDE8F08F61
:100480000121384600F05BFD484600F070FD404613
:1004900000F06DFDDAF808000090C0B203300AEBFE
:1004A00080006946FFF798FF009B30BBDAB20AEB89
:1004B0008202D16801919A1C0133DBB20AEB8303FB
:1004C0000092D3F80CB001F00303012B22D0022BD1
:1004D00015D08346404600F04DFD10B1009BCAF890
:1004E00008305946384600F02AFDDAF80830DAF8C4
:1004F000042003F580739B1AA6E7D8B2CEE7BDF8B7
:100500000630C3F3891303334FEA1B4B02EB93030B
:100510000093DFE7BDF80430C3F383134FEA1B4BAE
:100520001344F5E7A40544F0060099E70401002010
:1005300030B50A4C71B10A4A0A49121BD20800238D
:100540009A4201D1002030BD31F82350854202D0BB
:100550000133F5E7034654F83300F4E78C5E0000FE
:100560009C5E000000000020094B013903EBC00035
:10057000032909D8DFE801F00A02040604207047C5
:10058000007970474079704700207047022070471B
:100590008C5E000070470000034BD3E90130C31AA2
:1005A00058425841704700BF040100202DE9FF4127
:1005B000FFF7F2FF0546002840F0E980754CC4F8CB
:1005C0001804BFF34F8FA3680093DBB2033304EB2F
:1005D00083006946FFF700FF009B18B1D4F8182488
:1005E000002A5AD0DAB2991C013304EB8202DBB242
:1005F00004EB8303D268DB68029302F00303022B4F
:100600000192009154D1BDF806306348C3F38917B5
:10061000502F3E4628BF502606F1080166F38F137F
:10062000C1F30901ADF8063000F009FF05460028C6
:1006300000F0988000F032FF0023082201A928462C
:1006400000F03EFF0099CB43DBB20133C9B2033166
:10065000B6EB830F4FEA830204EB810125D95FFAE1
:1006600082F80823A6EB0806284600F029FFF6B218
:1006700008F10803494903F0FC033246284600F01C
:100680001FFF009B033703EB97070097D4F818343C
:10069000002B43D1D4F8106453E062689A4294D896
:1006A000A260284604B0BDE8F08108233246E5E7A1
:1006B000012B57D1BDF804303748C3F38311062905
:1006C00028BF062161F38913023101F00F0189006F
:1006D000ADF8043000F0B3FE0546002842D000F02B
:1006E000DDFE0023082201A9284600F0E9FE0026CD
:1006F000BDF80420C2F38312B300964203F108034D
:10070000C4D200994A1CC9B20331009204EB8101A2
:100710000422284600F0D4FE0136E9E7284600F01E
:10072000C1FEFFF739FF80F00100C5B2B9E7F368F9
:100730005B7923B1336829461B6830469847F368D4
:100740001E68002EF3D1284600F0ACFE304600F0C3
:10075000CFFBD4F818340BB9009BA360002000F045
:10076000C9FBDEE7D4F8104454B90D4B0D480E49CF
:10077000C01AC008000440F0020000F05FF8D0E7A3
:10078000236820469B689847E3681C68ECE70025CF
:1007900087E700BF04010020AC5E000010010020CC
:1007A0008C5E0000945E0000C05E00002DE9F347FF
:1007B00004460E46924601A9012218469946FFF7C3
:1007C00029FE1C4F10B3019D4FF00008AA1CC8451C
:1007D00008EB020125D11848002100F08DFB80F3C1
:1007E0001000000440EA1440E4006B1C04F03804DC
:1007F000DBB2EDB244F0010407EB8303033544EAB6
:10080000881444EA8624D86047F825403B781BB119
:10081000FFF7CCFE0028FBD1FFF7BCFE02B0BDE81D
:10082000F087C9B207EB81015AF82830CB6008F194
:100830000108CCE7040100202005002000231A460F
:10084000FFF7B4BF38B5084B0125D3F810441D702D
:1008500004B938BDE3685D71236820465B6898473A
:10086000E3681C68F4E700BF0401002030B5C388CA
:1008700085B004460D4633B1144A00921449154A16
:10088000284600F0BAFB217A05291DD0637A4BB1C6
:10089000A088FFF769FE104B104953F82020284626
:1008A00000F0ABFB227A0E4BA08853F82220039273
:1008B0000021FFF73DFE039A0A490346284605B08A
:1008C000BDE8304000F099BB05B030BDF55E0000DA
:1008D000DD5E0000D55E0000645F0000FA5E00008F
:1008E000885F0000FD5E000007B503460846197AE0
:1008F000052911D05B7A2BB1094A0A49019000F011
:100900007CFB01980849019000F077FB019803B047
:100910005DF804EB00F066BB002AF8D0F2E700BFF8
:10092000F55E0000FA5E0000C86000002DE9F043AB
:1009300085B01F460C9D002395F80C902B7306463E
:100940000C46904629463846FFF790FFB8F1060F4F
:1009500009D8DFE808F00412181F28334000314698
:10096000284600F04AFB002229463846FFF7BCFF24
:1009700085F80C9005B0BDE8F08322683146284622
:1009800000F03BFBEFE7D4E900233146284600F0B6
:1009900034FBE8E7A36800933146D4E900232846F6
:1009A00000F02BFBDFE7E3680193A3680093314677
:1009B000D4E90023284600F020FBD4E72369029302
:1009C000E3680193A36800933146D4E900232846E5
:1009D00000F013FBC7E76369039323690293E3689D
:1009E0000193A36800933146D4E90023284600F020
:1009F00004FBB8E708292DE9F74F80460E46174655
:100A00001C463CD8002593F80C901D7319461046DF
:100A1000FFF72CFFDFF888A0DFF888B0AE4231D9AD
:100A200018F805205946204600F0E7FA0135082D50
:100A3000F4D11949194DDFF870A0204600F0DDFA15
:100A40004FF0000B5E4522D918F80B207E2A05D8FE
:100A50001046019202F0ECFD019A00B92E22514697
:100A6000204600F0CAFA0BF1010BBBF1080FE9D1E7
:100A7000012221463846FFF737FF84F80C9003B077
:100A8000BDE8F08F5146204600F0B7FACEE7294680
:100A9000204600F0B2FAE6E7115F00000F5F0000A9
:100AA0000D5F0000075F0000135F0000704700004B
:100AB00007B5044B0093044A402300F030F803B01C
:100AC0005DF804FBCD0A0000250500202DE9F84360
:100AD00088461446B2B10F4B0F4E0325002743F052
:100AE0000109224608EB0701002000F0F7F807444F
:100AF000241A48B933782BB14FF47A40C847013DE6
:100B000002D13570BDE8F88301233370002CE8D1A1
:100B1000F8E700BFA05F0000240500207047F0B593
:100B200095B01D46164608460C4600F0B7FC1A9BC9
:100B30000D93CDE9086500252B46082205A920461E
:100B40000A958DF82C500C9500F0C4FC079B02937D
:100B5000069B03939DF814308DF8115003F00302A7
:100B6000012A1DD1BDF81420059DC3F3C203C2F3B1
:100B700083168DF81030B20008230EA9204600F02D
:100B8000A9FCC5F3952508AB0093324602AB0EA92C
:100B90002846FFF7CBFE204600F084FC15B0F0BDE0
:100BA000022AF8D1BDF81650C3F3C203C5F3891564
:100BB0008DF810300827082D2E4628BF08263B4602
:100BC00032460EA9204600F085FCAD1B08AB02AAF8
:100BD00031460EA83744FFF70DFF002DEBD1DAE7C1
:100BE0000369C26893429CBF80681B18013B981A36
:100BF00070472DE9F843D0E902940546A9EB0408B3
:100C00004068904520440F46144404D902F03FFD4B
:100C1000EC60BDE8F8834246A4EB090402F037FD1E
:100C20006868224607EB0801F0E72DE9F843C5683C
:100C30000646894617464FF000083469B368706865
:100C4000A54228BFE418013C621B5C1BBC4228BFC4
:100C50003C46944228BF144649462844224602F0A6
:100C600016FDB3682544AB4208BF00253F1BA044D6
:100C7000A144F560E1D14046BDE8F88310B5114CC0
:100C8000114AA2610223C4E90433104BE361A26458
:100C90004FF400730E4A0F492362E26400231022CE
:100CA000E01DA3626362E362A3656365E365226599
:100CB00002F049FD0849204602F045FD2023A371BA
:100CC00010BD00BF68050020C45F0000F0050020D3
:100CD000E0050020CD5F0000D15F000070B5164B2D
:100CE000182400FB04451D4404FB00331646DC6A4F
:100CF000012C0ED0022C18D0E4B92846FFF770FF63
:100D0000864204D832462846FFF773FF3446204611
:100D100070BD2846FFF764FF8642344628BF04466C
:100D200022462846FFF765FFF1E72846BDE87040F8
:100D3000FFF77BBF0024EAE76805002070B50B4B86
:100D40001B7804460D4616460BB9FFF797FF0020A7
:100D500000F0CEF8324629462046FFF7BFFF044692
:100D6000002000F0C7F8204670BD00BF68050020D5
:100D70000FB410B5A2B024AB802153F8042B01931B
:100D800002A802F076FC802804460ADD802202A92F
:100D90000020FFF7D3FF204622B0BDE8104004B08A
:100DA00070470028F7DD0246F1E70000044B1A5CAB
:100DB000012393404FF0A042C2F80835704700BFAE
:100DC000D85F000008B50020FFF7F0FF0120FFF713
:100DD000EDFF0220FFF7EAFFBDE808400320FFF720
:100DE000E5BF0000074A4FF0A041105CD1F8043580
:100DF0000122824022EA03001340C1F80805C1F82D
:100E00000C357047D85F0000C20708B501460CD505
:100E10004FF0A0430322C3F84427C3F84827C3F880
:100E20004C27C3F85027FFF7CDFF8B070AD54FF0AB
:100E3000A0430C22C3F83427C3F83827C3F83C2753
:100E4000C3F8402708BD1FB50021039001AA44F252
:100E50000100CDE9011100F003F805B05DF804FBD5
:100E600038B572B6FFF7EEFCFFF7A0FB0028FBD108
:100E7000104B114C114D1249E41AE408240444F0BB
:100E80000100FFF7DBFCD5F8F030DB0700D500BE32
:100E90000C4944F00200FFF7D1FCBFF34F8FEA6822
:100EA000094B02F4E0621343EB60BFF34F8F00BFC6
:100EB000FDE700BF8C5E0000945E000000ED00E0E6
:100EC000DC5F0000E85F00000400FA0572B6024A29
:100ED0001368013313607047F0070020034A13685A
:100EE000013B136003B962B6704700BFF0070020F2
:100EF000FFF7ECBFFFF7F2BF10B5034653E8000F52
:100F00000A4643E8002494F0000FF7D110BD10B555
:100F1000034653E8002F42EA010043E8000494F03E
:100F2000000FF6D110BD10B5034653E8000F00EADC
:100F3000010243E8002494F0000FF6D110BD10B573
:100F4000034653E8002F02EB010043E8000494F04D
:100F5000000FF6D110BD10B5034653E8002FA2EBE9
:100F6000010043E8000494F0000FF6D110BD012108
:100F7000FFF7CDBF0021FFF7D6BF38B504460020EC
:100F8000FFF7B6FF226863681168994213D9481EBB
:100F9000106011F8013CE568218A01FB0355A36844
:100FA00011791B1ADBB2994200D213710020FFF7AE
:100FB000A1FF284638BD0025F8E738B505460020D2
:100FC0000C46FFF795FF2A681368591C1160E96801
:100FD000641A298AB4FBF1F41C70BDE83840002083
:100FE000FFF788BF826810B504462AB143690168DB
:100FF000006998470023A36010BD0EB403B50399A0
:1010000021B104AB01AA019300F076F802B05DF8BB
:1010100004EB03B070470A2938B504460D4602D1E7
:101020000D21FFF7F8FFA3682268591CA160D55471
:10103000D4E901329A4204D32046BDE83840FFF794
:10104000D1BF38BD2DE9F84F9846DDE90A43154672
:1010500082460F460A464FF00109AA420FD2C14507
:1010600038BFC14613F0010B01D16CB90024012631
:10107000B8F1010F1BD908F1FF386E43F8E709F109
:101080000109B2FBF5F2E8E79B070ED5B8F1000FB6
:101090000CBF30262026A145E9D2013C31465046FE
:1010A000FFF7B9FF002CF6D1E0E72026F3E7B7FB06
:1010B000F6F39D42E1D9DFF83C80B7FBF6F35046EA
:1010C00018F8031006FB1377FFF7A5FF3346AB4272
:1010D000B6FBF5F6F1D2BBF1000F02D00CB1A14581
:1010E00001D3BDE8F88F20215046013CFFF793FF64
:1010F000F4E700BFF55F00002DE9F74F05461746FE
:101100008846002900F03E8118F8011B49B92B7B65
:10111000002B00F03781284603B0BDE8F04FFFF701
:1011200061BF252940F0B780002698F800302D2BAC
:10113000424608F1010823D0302B24D02B2B25D098
:1011400000242A2B02F1010123D13B681A1D1B68E0
:101150003A601C440A4613782E2B26D101324FF0F8
:10116000000A104610F8011BA1F1300CBCF1090F68
:101170001DD80A2303FB0A13A3F1300A0246F0E745
:1011800046F00106D1E746F00206CEE746F0040637
:10119000CBE711F8013CA3F130000928DBD80A2283
:1011A00002FB0434303C0A46CBE74FF0000A12F849
:1011B000011B01F0FB0068289046F8D0782909D877
:1011C0006F290CD8632962D022D8252963D05829E9
:1011D00000F0888098F80030002B95D197E770399F
:1011E0000829F7D801A353F821F000BF5F130000CE
:1011F000D5110000D5110000F5120000D511000036
:10120000D3120000D5110000D5110000E512000036
:10121000642901D06929DDD13A68D2F80090111D06
:1012200089EAE9723960A2EBE9724FF0010B092AF1
:1012300035DCD34538BFD3462CB1B9F1000F01DB03
:10124000720700D5013CB30702D5BAF1000F03D0F5
:10125000F00701D44CBB0024B9F1000F2DDAC9F11D
:1012600000092D212846FFF7D6FE06F00302022AC8
:1012700004D1BAF1000F01D11CBB0024CDE9004616
:1012800053460A2249462846FFF7DCFEA2E73B68A0
:101290001A1D19783A602846FFF7BDFE9AE70A231F
:1012A0000BF1010BB2FBF3F2C1E7A345D4D220212D
:1012B0002846013CFFF7AFFECCE77107D5D52B21BF
:1012C000D0E7A345DAD230212846013CFFF7A3FE40
:1012D000D2E73968CDE900460A1D3A6053460A2232
:1012E0000968D0E739680A1D3A60CDE900465346DF
:1012F0001022F5E73B681A1D3A6016F00106D3F894
:10130000009024D1B9F1000F03D0484602F03DFA15
:101310000646B4421DD809F1FF3919F8011F00290A
:101320003FF458AF2846FFF776FEF6E72846013629
:10133000FFF771FE19F806100029F7D1A642BFF495
:1013400049AF20212846013CFFF765FEF6E700265D
:10135000F0E720212846013CFFF75DFED9E73B6816
:101360001A1D3A60302128461C68FFF754FE782188
:101370002846FFF750FE00220823CDE9003221461F
:10138000102280E703B0BDE8F08F00BF2DE9F84FD1
:10139000B0F806A04579D2F800B09DF828900AFB75
:1013A00005F5043D88460BEB0301A94203F1040453
:1013B00088BFA5EB030BB4FBFAF607460AFB1644FD
:1013C000C2F800B04EB9AAEB04055D4528BF5D46E2
:1013D000BBF1000F04D1BDE8F88F3F68013EF1E793
:1013E000043408EB06003C442A46B9F1000F0DD046
:1013F0002146ABEB050B02F04AF9DA452E443F6873
:1014000055464FF0000428BF5D46E1E701462046FF
:10141000EFE7F8B546790146721E05460023934270
:101420002D6803D30024A64202D8F8BD0133F6E7A5
:101430000F682846FFF7C1FD01343946F3E72DE96F
:10144000F843068ACD1C0746FFF797FD043E354456
:101450000446B5FBF6F5F0B14FF48073EDB283802E
:10146000C680013D076081464FF00008A84512D2B2
:101470003846FFF782FD064648B163790133637150
:1014800008F10108C9F8000007608146EEE7204630
:10149000FFF7BFFF34462046BDE8F8830121043042
:1014A000FFF74DBD10B5012104460430FFF753FD91
:1014B000C0B220B92046BDE81040FFF7AABF10BD5A
:1014C0001FB503920022009203AAFFF75FFF05B049
:1014D0005DF804FB1FB503920122009203AAFFF7F7
:1014E00055FF05B05DF804FB0023435082B043581C
:1014F0000193019B02B070478B6A4A6B9A4210B508
:101500004FF0010305D2496A8A5CC0F81C251A46CF
:1015100004E091F82C201AB1C3610022104610BDDE
:101520000C6A640603D5C36181F82D30F6E7436188
:10153000EDE770B5D0F8046105460C4626B14FF4CE
:101540008271FFF7D1FF012694F82F2022B34FF4C8
:1015500092712846FFF7C8FF4FF48E71FFF7C4FF62
:101560004FF48471FFF7C0FF002E69D094F82F204C
:10157000002384F82D3092BBA36A616B99421CBF93
:101580001646052386F001061CBFC5F80025C5F8E0
:10159000003584F82F6023E0D5F824314BB14FF4A7
:1015A00092712846FFF7A0FF01236B6184F82F306A
:1015B000DAE7D5F81C31ABB14FF48E712846FFF74E
:1015C00093FF636B01336363D5F8243113B14FF498
:1015D0009271E7E72146FFF78FFF0028C4D1002270
:1015E000104670BDD5F80831002BBDD04FF4847182
:1015F0002846FFF779FFD5F82431002BE7D1636B3C
:10160000A16A8B42B0D2616AD5F81805C854636BE1
:10161000A16A0133481E8342636308D1206A4006F1
:1016200010D40223C5F8003201232B629CE78B42C1
:10163000FAD1236A5B0697D5022384F82D30CFE7D1
:101640000122CDE78B42EFD1F6E7000037B5314BF1
:1016500001930D464FF48271FFF746FF4FF49271EC
:10166000FFF742FF4FF48E71FFF73EFF4FF4847196
:10167000FFF73AFF0023C0F800326B6385F82F3084
:101680000123036295F82D209A4218BF83602946F2
:101690000446FFF731FF2B6883B140F28623AB602D
:1016A000AB68C4F80433002003B030BD294620469F
:1016B000FFF73FFF28B1019B013B0193019B002BEA
:1016C000F4DC95F82F0050B9019B002BECDC0023D3
:1016D000C4F800350523C4F800350320E4E7D4F846
:1016E000C434C4F8C43493B113F0010F14BF4FF4E1
:1016F0000240032048F2012213F0020F18BF1046E7
:1017000013F0040F48F2022318BF1846DCE7032049
:10171000DAE700BFA086010037B5344B01930D46D0
:101720004FF48271FFF7E0FE4FF49271FFF7DCFE99
:101730004FF48E71FFF7D8FE4FF48471FFF7D4FE9B
:1017400000236B6385F82F30AB6A012B044617D159
:101750002B6A5B0614D40223C4F8003201232362EF
:1017600095F82D20022A18BF23602B6893B140F210
:101770008623AB60AB68C4F80433002003B030BDEF
:101780000123E9E729462046FFF7D3FE28B1019B54
:10179000013B0193019B002BF4DC95F82F0050B91D
:1017A000019B002BEADC0023C4F800350523C4F8B4
:1017B00000350320E2E7D4F8C434C4F8C43493B14C
:1017C00013F0010F14BF4FF40240032048F201222E
:1017D00013F0020F18BF104613F0040F48F2022353
:1017E00018BF1846DCE70320DAE700BFA086010037
:1017F000F0B50779294D4FF03C0C0CFB07FC05EBCD
:101800000C0494F82E60002E45D1A66084F82D605B
:1018100084F8306084F831600E6863604B7B84F834
:1018200038304FF0A04306F5E07445F80C2040F244
:101830000C6C43F824C04C6804F5E07E43F82EC0DD
:1018400003688868C3F80865C3F80C45C3F8240525
:10185000A2B10A7B43F3073052010028C3F30733D8
:10186000D2B213DB0E490C1884F800230122400980
:1018700003F01F0302FA03F341F820303C2303FB7B
:101880000755012385F82E300020F0BD054903F0EF
:101890000F03CA54F2E70820F7E700BFF40700205F
:1018A00000E100E014ED00E0036802790521C3F8CF
:1018B0000015044B3C2101FB0233022283F82E2049
:1018C000704700BFF40700202DE9F047314F04793D
:1018D000D0F800903C2303FB04730D4693F82D30A1
:1018E000012B944604D10B78012B06D1082011E07E
:1018F000022B02D10B78012BF8D13C26264BC9F8DC
:10190000083306FB047696F830302BB1B368C9F87B
:1019100004331120BDE8F0878CF00403C3F3800387
:1019200086F83030C6F820C0A846B8E80F0006F1A7
:101930000C0EAEE80F00D8F80030CEF800306B681F
:10194000B362EB6873626B78C9F888352B78C4EBA7
:10195000041A012B07EB8A0A17D09BB9CCF3401C61
:101960003C2303FB0473514683F82CC04846FFF721
:101970006DFE3C235C433A193B59002BCAD182F8D7
:101980003030C7E74FF0010CEAE751464846FFF711
:10199000C3FEEEE7F40700208642040010B586B0CF
:1019A0000024CDE902349DF820308DF80510A342C3
:1019B000CDE9042401A914BF202222468DF8044059
:1019C000FFF782FF06B010BD10B586B00124029368
:1019D0000023CDE903328DF805101A4601A98DF8D0
:1019E00004400593FFF770FF06B010BDF0B52B4C17
:1019F0002B4887B02146FFF79CFD002840D194F882
:101A00002F70D4F820C0FFB9237B9A1E012A1BD85F
:101A1000616AA269914217D1E2696262CCF3401C0B
:101A200062691F48A262032B84F82CC084F82D70D1
:101A3000214604D107B0BDE8F040FFF707BE07B06C
:101A4000BDE8F040FFF768BE164E0FCE01AD0FC5E2
:101A500033682B60FFB1124AD2F8C434C2F8C434E0
:101A600099070FD501238DF8003000231CF0040FD7
:101A700084F8303000D01FB1D4E90031684698476F
:101A800007B0F0BD5A0701D50223ECE7DB074CBFD6
:101A900003230423E7E78DF80070E6E7F40700204E
:101AA000003000400008002073B50120FFF7ACF9BA
:101AB0004FF080433422C3F81C25002404220094F4
:101AC000019400920192D3F81C3500F053FCA8B9A0
:101AD0001148124DFFF74CF945F0010500F086FC66
:101AE00000242046FFF77EF9C8264FF47A40A84725
:101AF000013EFAD10134042CF3D1EFE7084B094839
:101B00000949C01AC008000440F00300FEF796FE21
:101B1000204602B070BD00BF2B6000004060000096
:101B20008C5E0000945E0000096000004FF080535E
:101B3000D3F83001421C04BF4FF0704393F8E00F1C
:101B4000831F5842584170474FF0704393F8E02F7D
:101B5000062A09D1D3F8E83FC3F30313033B042B50
:101B600002D8024AD05C70470020704755600000E0
:101B7000024AD2F80034002BFBD0704700E001404D
:101B800010B5FFF7D3FF40B14FF08053944AD3F81C
:101B90002433C3F30423C2F84035FFF7D5FF10B157
:101BA000904B914A5A67FFF7C1FF48B14FF08053FD
:101BB0004FF08042D3F84432C3F34233C2F83C358D
:101BC000FFF7C2FF30B1894AD2F8FC3023F08073AE
:101BD000C2F8FC30FFF7AAFF40B14FF0804300226B
:101BE000C3F80C21C3F81021C3F83825FFF7ACFF68
:101BF00020B14FF080430322C3F8A025FFF7A4FFD4
:101C000060B17B4B0522C3F810260122C3F8882659
:101C10000022C3F818263F22C3F814264FF0805341
:101C2000D3F83021511C09BF4FF07043D3F8343141
:101C300093F8E02FD3F8E83F08BFC3F30313062A55
:101C40004DD1033B042B03D86A4AD35C002B46D00A
:101C50004FF08052684BD2F80414C3F82015D2F824
:101C60000814C3F82415D2F80C14C3F82815D2F8B8
:101C70001014C3F82C15D2F81414C3F83015D2F888
:101C80001814C3F83415D2F81C14C3F84015D2F850
:101C90002014C3F84415D2F82414C3F84815D2F818
:101CA0002814C3F84C15D2F82C14C3F85015D2F8E8
:101CB0003014C3F85415D2F83414C3F86015D2F8B0
:101CC0003814C3F86415D2F83C14C3F86815D2F878
:101CD0004014C3F86C15D2F84424C3F87025FFF7FC
:101CE00025FF48B14FF080534FF08042D3F858326F
:101CF00003F04F03C2F8E43EFFF718FF48B14FF07E
:101D00008043D3F80024D20744BF6FF00102C3F828
:101D100000244FF08053D3F83021062A0ED1D3F897
:101D20003431033B042B02D8344AD35C33B1344AF8
:101D3000D2F83C3743F48063C2F83C372B4AD2F8E0
:101D4000883043F47003C2F88830BFF34F8FBFF37D
:101D50006F8F4FF08053D3F83021062A0FD1D3F87C
:101D60003431033B042B02D8264AD35C3BB14FF0FD
:101D70001023D3F808224FF08043C3F858254FF0C2
:101D80001023D3F80022002A03DBD3F80432002BFF
:101D900022DA1D4901234FF01020C1F80435152423
:101DA000FFF7E6FEC0F80042FFF7E2FEC0F804428B
:101DB000FFF7DEFE0023C1F80435FFF7D9FEBFF3BD
:101DC0004F8F0A49114BCA6802F4E0621343CB609B
:101DD000BFF34F8F00BFFDE70D4B0E4A1A6010BDD9
:101DE0000030014000C007400DF0ADBA00ED00E04A
:101DF000005000404660000000C000404B60000002
:101E0000001000405060000000E001400400FA05AE
:101E1000080000200090D003037813B9014B012281
:101E20001A7070473B0800201FB50C4C8DF80C0051
:101E300000238DF80D108DF80E20237000930848B4
:101E4000032303AA6B21FFF7A9FD08B1FEF7FBFFEF
:101E50002378002BFCD004B010BD00BF3B0800204D
:101E60006C6000007FB5134C8DF80C001E460023FB
:101E70002370012315468DF80D1000930E480223A0
:101E800003AA6B21FFF78AFD08B1FEF7DCFF237878
:101E9000002BFCD000232370074833462A466B21D1
:101EA000FFF792FD08B1FEF7CEFF2378002BFCD0A0
:101EB00004B070BD3B0800206C60000030B5134CCE
:101EC00085B000232370012315468DF80C008DF892
:101ED0000D1000930E48022303AA6B21FFF75EFD4D
:101EE00008B1FEF7B0FF2378002BFCD0002323704D
:101EF000074801232A466B21FFF766FD08B1FEF76C
:101F0000A2FF2378002BFCD005B030BD3B08002099
:101F10006C6000001FB503230C4C8DF80C300023BF
:101F20008DF80D008DF80E108DF80F2023700093A2
:101F30000748042303AA6B21FFF730FD08B1FEF721
:101F400082FF2378002BFCD004B010BD3B0800209A
:101F50006C6000001FB5094B0FCB6C4684E80F0086
:101F6000074A084800232146FFF742FC08B1FEF764
:101F70006AFF0448FFF798FC04B010BD5C600000E5
:101F8000191E00006C60000010B527382DED028B83
:101F90000C46142800F29080DFE800F00B598E8C7C
:101FA0001B8E8E8E8E8E8E8E8E8E8E8E8E878E7EDB
:101FB0008400424B1B8841F2883253439B124FF4FA
:101FC0007A72B3FBF2F102FB113353432160636079
:101FD00039E03A4BDFED3A6A9B8807EE903AF8EE2B
:101FE000677AB7EE008A86EEA77A77EE487A17EE20
:101FF000900A00F03FFE41EC100B01F03DF851EC6F
:10200000100B00F051FEDFED2F7A07EE100A87EE7D
:10201000277ADFED2D7A77EEC77AF0EE480A88EE60
:10202000270ADFED2A7A30EE670AFDEEC07AC4EDAA
:10203000007A01F0F1F9DFED267A20EE270ABDEEF5
:10204000C00A84ED010A0020BDEC028B10BD1B4AC2
:10205000137A043B0B2B1DD8DFE803F0061C1C1C75
:102060001C1C1C1C13161C194FF47A735288534302
:1020700048BF03F2FF339B124FF47A7293FBF2F1E5
:10208000A1E76FF00E03F1E76FF04A03EEE76FF0A0
:102090009503EBE70023E9E7084B9B7923600020D9
:1020A0006060D1E7054BDB79F8E70A4B0020C1E916
:1020B0000003C9E70123F1E70620C5E73C0800203B
:1020C00000008044004053450FCF5B3B339388436F
:1020D00000247449F049020038B5234C234DA21D59
:1020E00034210320FFF7EAFEE21D36210320FFF72B
:1020F000E5FE2A460B2310210520FFF7B3FE6B797E
:10210000697803F0030242EA81022280AA78C3F3CD
:10211000810343EA8203A380AB7A2A7AC3F30113D3
:1021200043EA820301221146638005202B78237243
:10213000FFF77AFE012200210520FFF775FE2246F7
:10214000072112F8095F022005F00105FFF7B6FE2E
:102150004DB9637ADB0706D529460122BDE8384030
:102160000220FFF761BE38BD3C0800203008002087
:1021700010B55A4C012322460C210820FFF772FEAD
:10218000002205210820FFF74FFE17220A21042014
:10219000FFF74AFE012322460F210420FFF762FECB
:1021A00002220F210420FFF73FFE224601230F21C8
:1021B0000420FFF757FE012322460A210420FFF7DF
:1021C00051FE0F220B210420FFF72EFE0123224691
:1021D0000C210420FFF746FE90220C210420FFF77B
:1021E00023FE012322460D210420FFF73BFE182287
:1021F0000D210420FFF718FE012322460E210420A2
:10220000FFF730FE98220D210420FFF70DFE224635
:1022100001230F210420FFF725FE01232246102170
:102220000420FFF71FFE01220A210520FFF7FCFD15
:1022300007220C210320FFF7F7FD04220D210320C4
:10224000FFF7F2FD002225210820FFF763FE01229F
:102250009A210A20FFF75EFE052201210220FFF7E6
:10226000E3FD012224210520FFF7DEFD01220021EC
:102270000520FFF7D9FD012211460520FFF7D4FD07
:10228000012204210320FFF7CFFD22460123342140
:102290000320FFF7E7FD2246012336210320FFF745
:1022A000E1FD0B230E4A10210520FFF7DBFD012283
:1022B00011460520FFF7B8FD012200210520FFF798
:1022C000B3FD2246072102200123FFF7CBFDBDE825
:1022D0001040012200210220FFF7A6BD5108002076
:1022E0004608002070B52DED028B82B015460646DB
:1022F0000C46FFF7F1FE69462720FFF745FEDDEDAE
:10230000017A9FED1B8AB8EEE77A6946C7EE087A34
:102310002B209DED007AB8EEC77A77EE877AC6ED6E
:10232000007AFFF731FEDDED017AB8EEE77A694613
:10233000C7EE087A28209DED007AB8EEC77A77EECE
:10234000877AC5ED007AFFF71FFEDDED017AB8EE62
:10235000E77AC7EE087A9DED007AB8EEC77A77EE95
:10236000877AC4ED007A02B0BDEC028B70BD00BF6D
:102370000024744910B586B0184B05930024CDE9AC
:1023800002440494FFF7E6FDFFF7F2FE04AA03A956
:1023900002A8FFF7A7FF69463820FFF7F5FDDDED3E
:1023A000017ADFED0F6A0F4BB8EEE77A2146C7EEF0
:1023B000267A02A89DED007AB8EEC77AF2EE046A9A
:1023C00077EE877A87EEA67AC3ED007A064B83ED27
:1023D000007A01F027FD204606B010BDCC60000059
:1023E00000247449540800205808002070B52DEDD1
:1023F000028B94B013AA12A911A8FFF773FFDFEDA7
:10240000871A9DED131ADDED120A9DED110A0020C9
:1024100001F04EFDF0EE408A01F07AFD804BD3EDE5
:10242000000A804BB0EE408A93ED000AF1EE600A9C
:10243000B1EE400A01F072FD9DED117AB5EEC07A61
:10244000F1EE10FA40F1DE80FFEE007AB4EEE77AAA
:10245000F1EE10FA40F3D68073499FED745AFDEE09
:10246000C74AB5EEC07AF8EEE47AF1EE10FACCBFC6
:1024700077EE677A77EEC77A9DED127A67EE857A06
:10248000B5EEC07AFDEEE77AF1EE10FA17EE903A6B
:1024900040F1BA80FFEE007AB4EEE77AF1EE10FA7E
:1024A00040F3B280604ADDED136ABDEEC74AB5EE77
:1024B000C07AF8EEC47AF1EE10FACCBF77EE677A04
:1024C00077EEC77AF5EEC06A67EE857AF1EE10FA1C
:1024D000FDEEE77A40F19A80BFEE007AF4EEC76A2B
:1024E000F1EE10FA40F392804F48FDEEE63AF5EE39
:1024F000C06AB8EEE37AF1EE10FACCBF36EEC77AD6
:1025000037EE667AF5EEC08A27EE057AF1EE10FA1C
:10251000BDEEC77A7CD5FFEE006AF4EEE68AF1EEF6
:1025200010FA75DD404CBDEEE83AF5EEC08AB8EE23
:10253000C36AF1EE10FACCBF78EEC66A76EE686A2E
:10254000B5EEC08A66EE856AF1EE10FAFDEEE66A37
:1025500060D5BFEE006AB4EEC68AF1EE10FA59DD1E
:10256000314DFDEEC82AB5EEC08AF8EEE25AF1EE22
:1025700010FACCBF38EE656A35EEC86AB5EEC00A0F
:1025800026EE056AF1EE10FABDEEC66A44D5FFEEFE
:10259000005AB4EEE50AF1EE10FA3DDD224E03904A
:1025A000BDEEC02AB5EEC00AF8EEC25AF1EE10FA3E
:1025B000CCBF30EE650A35EEC00A009220EE050A67
:1025C00014EE902ABDEEC00A8DED0D2A8DED0E0A97
:1025D0000C968DED0B6ACDED0A2A0995CDED086AB2
:1025E0008DED073A06948DED057ACDED043ACDEDEB
:1025F000027A8DED014A0E48FEF7BAFB14B0BDEC2D
:10260000028B70BD0B4928E70A4A4CE709486CE782
:10261000084C88E7074DA4E7064EC0E7002474493C
:102620005808002054080020746000000000C842D0
:1026300076600000CA60000030B591EA030F00F137
:102640008480841A71EB030C05D2121953EB0C032E
:10265000001B71EB0C0140F2000CCFF6E07C1CEA91
:10266000430F54D0BCEB410F61D90C0DA4EB135EAA
:1026700031EA0C0141F4801133EA0C0343F4801376
:10268000DEF1200C2AD303FA0CF5401941F10001C8
:1026900022FA0EF5401923FA0EF5694112FA0CF2EE
:1026A000CD0208D349085FEA30005FEA320228BF52
:1026B00042F001020134013C5FEA500C72F1004229
:1026C00050F1000051EB04514FF4001313EB410F94
:1026D00038BF30BD090D0905002030BDBEF1200E08
:1026E000BEF1200F1ED223FA0EF5401941F1000170
:1026F000CEF1200C124218BF012203FA0CF52A4336
:10270000CEE711EA5C0F04BF0020002130BD1CEAB7
:10271000410F04BF01F00041002030BD01F0004135
:10272000002030BD21F4801101EB045130BD004286
:1027300018BF41F00101BCEB410F08BF30BD4FF0A5
:10274000FE4141F47801002030BD83F00043841A3B
:1027500071EB030E07D28EF0004E001B71EB0E01E1
:10276000121953EB0E0340F2000CCFF6E07C1CEA8A
:10277000430FC6D0BCEB410F72D90C0DA4EB135E16
:10278000C90241EA5051C00241F00041DB0243EA74
:102790005253D20243F00043DEF1200C41D312FA2F
:1027A0000CF522FA0EF203FA0CF542EA050218BF04
:1027B00042F0010223FA0EF3801A9941E30AC4F3AE
:1027C0000A0411F0404F03D418D0013C40004941A5
:1027D000013C23D44205C00A40EA4150C90A51EAEB
:1027E000C3715FEA500C72F1004250F1000051EBEE
:1027F000045130BD01002FD00020203C0029F9D029
:10280000B1FA81FCDCF1200E11FA0CF130FA0EF570
:1028100010FA0CF02943A4EB0C04D9E70020D907E7
:1028200030BDAEF1200EBEF1200F0DD2CEF1200C46
:1028300003FA0CF533FA0EF32A4318BF43F00103F1
:10284000C01A61F10001B9E721F00041C00A40EA75
:102850004150C90A01EB045130BD0020002130BDB8
:10286000004218BF41F00101BCEB410F7FF467AF9C
:10287000BCEB430F3FF463AF30BD00BF83F00043B8
:10288000FFF7DABEF0B540F2FF7681EA030C16EAF4
:10289000115E1EBFB64516EA1355B5425AD021EA5D
:1028A000465141F48011A1FB024723EA465343F409
:1028B0008013AE44A0FB03650CF0004C36197D413B
:1028C000A1FB034747F10003A0FB0217F61965417E
:1028D00053F10003094218BF46F0010640F2FE74AE
:1028E000B3F5007F13D2AEF5806EA6452BD24CEA2D
:1028F0000331280341EA155140EA165032034508D6
:1029000072F1004250F1000051EB0E51F0BDAEF2F9
:10291000FF3EA64517D24CEAC321E80241EA5551D1
:1029200040EA5650F202450872F1004250F10000B0
:1029300051EB0E51F0BD0CF0004141F0FE4141F46D
:1029400070010020F0BD1EEA0E0FF4D50CF000411E
:102950000020F0BD16EA115F04BF01F00041002025
:10296000004218BF41F0010116EA135F04BF03F0F3
:1029700000430022124218BF43F0010306EA135439
:10298000B44218BF9EEA060F03D00CF000410020AD
:10299000F0BD21F0004123F00043B1EB065F06D803
:1029A000B3EB065F03D8002918BF002BC3D140F258
:1029B0000001C7F6F8710020F0BD00BF2DE9F0431B
:1029C00091EA030E0EF0004E40F20007CFF6E077DA
:1029D00017EA41051EBF95EA070F17EA430595EA76
:1029E000070F00F0A1807F0D17EA135623EA475323
:1029F00043F4801317EA115521EA475141F480113D
:102A0000AD1B05F2FD354FEAD31C1CF1010C4FF054
:102A10000047B7FBFCF77F01A2FB079C0024E3FB08
:102A200007C4DCF1000CD9F100097CF1000CA0FB1B
:102A300007620020E1FB072000275FEAC628E0FBD1
:102A40000987760D46EAC226520DF61900277A410B
:102A5000E0FB0C625FEAC823E2FB09375FEA5858E3
:102A600048EAC628760D18EB070800214E41E2FB24
:102A70000C8602EBC020DA02E6FB09215B0D43EA7B
:102A8000C8235FEA58585B18002758EB0708E6FB95
:102A90000C38D102E8FB0917520D42EAC3225B0D44
:102AA000D21900277B41E8FB0C2308EBC6265FEA1E
:102AB000C128E3FB0987490D41EAC221520DC9191A
:102AC00042F10002E3FB0C12470019EB08095CEB32
:102AD000010C72EB040453EBC62047EB565300265F
:102AE000B3F5000F7641AD190236D6F1200910FA80
:102AF00009F4F04013FA09F21043F340E40F00190F
:102B000043F10003B3F5001F24BF5B08013540F219
:102B1000FE77BD4204D24EEA05511944BDE8F08368
:102B20002D4224D5714626E0004218BF41F0010134
:102B3000124218BF43F00103B7EB410F2CBFB7EBB4
:102B4000430F1BE0B7EB410F04BFB7EB430F15E09A
:102B500017EA410F04BF17EA430F0FE017EA410FCE
:102B6000E0D017EA430F02D0B7EB430FDAD04EF0B4
:102B7000FE4141F470010020BDE8F08340F2000105
:102B8000C7F6F871F7E700BF4FF4001C1CEB410FCC
:102B900098BF1CEB430F0CD850EA410C08BF52EA17
:102BA000430C08D0904208BF99420CBF012000207E
:102BB0007047002070470120704700BF4FF4001C91
:102BC0001CEB410F98BF1CEB430F11D851EA030CCB
:102BD00050EA4C0C5CEA020C0AD004D282428B41CF
:102BE0008041404270479042994180414042704745
:102BF000002070474FF4001C1CEB410F98BF1CEBEA
:102C0000430F11D851EA030C50EA4C0C5CEA020C59
:102C10000AD004D29042994180414042704782429A
:102C20008B418041404270470020704742007FEA5C
:102C3000525201D1020307D14A007FEA525201D118
:102C40000A0301D1002070470120704780B110F0C5
:102C5000004248BFD0F10000120D02F21D42B0FA4E
:102C600080F18840521AC30A400503EB02517047B5
:102C700001007047C0F3C75191B142004FEA407064
:102C80004FEAD2014FEA310101F16051B2F17F4FB9
:102C900038BF704701F1605118BF41F400217047FF
:102CA00010F000410020704701F000428B1AA3F1A0
:102CB0006051B1F5801F0ADBB1F17F6F09D242EAA2
:102CC000C102C10071F1004142EB507070471046E3
:102CD000704701285B4113F5001F04D842F0FE4005
:102CE00040F400007047C90041EA507040EA020019
:102CF00040F4800040F08040704700BF10EE100AA2
:102D00004FEA4000B0F17F4F0CBF01200020704718
:102D100010EE100A41000020B1F17F4F18BF50EBB8
:102D20000000704751EC100B0128494111F5001FBC
:102D30008CBF012000207047B0EEC00A704700BF72
:102D400000B510EE100A00F003F800EE100A00BD06
:102D50004FF07F43B3EB400F22D9410008BF7047CB
:102D600003EA4002120E7F3A14DB172AA8BF70470D
:102D70004FF6FF73C0F27F03D340184220EA0300EE
:102D800018BF10F0004F08BF70474FF40001D1404A
:102D90004018704710F0004F0CBF002002487047E9
:102DA00018BF024870470000000080BF0000C07FCD
:102DB00000B5014610EE100A00F003F800EE100A0C
:102DC00000BD4FF07F43B3EB400F98BF704713EA4D
:102DD000400207D0120E7E3A0A6020EA530040F00B
:102DE0007C5070470A6000F00040704710EE103AC7
:102DF000C3F3C750002800F08480002B10EE101A97
:102E000023F07F4223DDFF2800F08C80474B99425E
:102E100000F2858042F40002762825D8C0F17600C1
:102E20001F286ED8024182FB0213023202EB6302BA
:102E30009210B2F1404226BF52004FF07A534FF049
:102E40007C53403203EBD21300EE103A7047FF2858
:102E50005AD0374B99425FD842F400020029DBD0A8
:102E60007628C2F10002D9D9324910B582FB01138C
:102E7000C0F1910E21FA0EF101F1010C5221A0F1E5
:102E8000710402FB01F1491203FA04F2E24041FA33
:102E90000EF1723802FA00F0C1EB5C0101442648E1
:102EA0009B1A264A81FB000402EBA402244882FB01
:102EB000012400EBA400234A80FB010443FA0EF333
:102EC00002EBA4022048214C82FB012E03F0070CE8
:102ED00000EBAE0054F82C2080FB0101491081FB6F
:102EE00002100244634451004FEAD3035ABF7D33BA
:102EF00052007E334032DB0503EBD21300EE103A72
:102F000010BDB7EE000A7047B2F5000FA1D041F432
:102F1000800300EE103A70479FED0D0A70479FED59
:102F20000D0A7047B2F5000FF1D170471772B14228
:102F30004FACAEC2951D555C00B12B00B72A3B01CA
:102F400036C21A0700BEBF1EFC0BB958CC76000073
:102F5000000000000000807F08B52DED028BF0EE30
:102F6000408AB0EE608AFFF7D3FE20B1B0EE480A87
:102F7000BDEC028B08BDB0EE480AFFF7C9FE20B9D0
:102F8000F4EEC88AF1EE10FAF0DDB0EE680ABDEC9E
:102F9000028B08BDB4EEE00AF1EE10FA58BFB0EEB5
:102FA000600A70472DE9F04155EC104B8046002235
:102FB00010EE100A0023294610EE106AFFF7E4FD18
:102FC00030B1002345EC104BC8F80030BDE8F0816B
:102FD00025F0FF4323F4E00343F07F57C5F30A5382
:102FE00047F40017A3F2FE3347EC106BC8F800302B
:102FF000BDE8F081000000002DE9704355EC104B56
:103000000646002210EE100A0023294610EE108A10
:10301000FFF7BAFDB0B9C5F30A53334440F2FE726C
:10302000934213DC002E01DB002B0FDB002B09DDAC
:1030300025F0FF4222F4E00242EA035949EC108BEA
:10304000BDE870839FED060BBDE8708300F0F6FAD3
:10305000074B1B6803609FED040BBDE8708300BF46
:103060000000000000000000000000000000F07FF1
:1030700050790000000000002DE9F04F85B055ECBC
:10308000104BFFF74FFE002840F0C38000220023C2
:1030900020462946FFF778FD002840F0BF80002237
:1030A000002320462946FFF7A5FD002840F0B18007
:1030B00045EC104B03A8FFF775FF55EC104B78A3B8
:1030C000D3E9002310EE100A2946FFF777FD002808
:1030D00040F0A9800399704B4E1E204629460022DD
:1030E0000396FFF7CBFB04460D4645EC104B4FF023
:1030F000FF30FFF781FF684B51EC100B0022FFF708
:103100009BFA02460B4620462946FFF757FC02462B
:103110000B4606460F46FFF7B5FB4BA3D3E900234A
:1031200004460D46FFF7AEFB49A3D3E90023FFF7A2
:1031300083FA49A3D3E900238046894620462946DD
:10314000FFF79CFB22462B46FFF79CFB44A3D3E9E9
:103150000023FFF771FA42464B4682468B462046D3
:103160002946FFF78FFB40A3D3E90023FFF786FB37
:1031700052465B468046894620462946FFF782FB39
:103180003BA3D3E90023FFF779FB02460B464046F9
:103190004946FFF713FC02460B4620462946FFF737
:1031A00071FB32463B46FFF76DFB02460B46039828
:1031B000CDE90023FFF74AFDDDE9002304460D4673
:1031C00030463946FFF738FA2BA3D3E900230646E9
:1031D0000F4620462946FFF755FB02460B46304670
:1031E0003946FFF729FA02460B462046294614467F
:1031F0001D4623A3D3E90023FFF744FB02460B46F9
:1032000020462946FFF718FA41EC100B05B0BDE83F
:10321000F08F9FED1D0B05B0BDE8F08F9FED1C0BEF
:1032200005B0BDE8F08F0022204629461B4BFFF772
:1032300025FB024645EC104B4FF0FF3014460D467F
:1032400057E700BFAFF3008029BD56B31544E9BF6F
:10325000EDAF16204A6230400FCE674B80D541401B
:103260007E2615FA838073409AB5B312FF0750404B
:1032700077900D9CFE0B8840A80C615C10D02BBF92
:10328000000000000030E63F000000000000F87F72
:10329000000000000000F0FF0000E03F0000F03FF1
:1032A000CD3B7F669EA0E63F00B5B5EE400AF1EE4D
:1032B00010FA83B060D0B5EEC00AF1EE10FA51D426
:1032C00001A8FFF775FDDFED317AB4EEE70AF1EE04
:1032D00010FA38DCB6EE007A70EE477A019BA7EE62
:1032E000877A013BF0EE476A87EEA60A07EE103AAE
:1032F00060EE007A9FED266ADFED265A9FED265A92
:10330000DFED266ADFED264A37EEC66AA7EEA55A3C
:10331000E7EE866ADFED235A9FED236AE7EE855AD2
:10332000A7EEA66AB8EEC77AC5EE866A9FED1F5A69
:1033300066EEA77AA0EE270AA7EE240AA7EE050AF2
:1033400003B05DF804FBF6EE007AE0EE277A9DED1F
:10335000017AF0EE676AF7EE007A70EE677A87EE30
:10336000A60AC5E700F06AF9114B9FED120A1B6827
:10337000036003B05DF804FB00F060F90E4B9FEDB5
:103380000D0A1B68036003B05DF804FBF304353FCE
:1033900002AC0E42AE204ABF5112834120049C432E
:1033A00083805EB9F93F80C2F55F40C40080313F41
:1033B0004C790000000080FF507900009FED147AE6
:1033C000B4EE470AF1EE10FAF0EE407A12D010EEA9
:1033D000102AC2F3C7537F3B11D4162B12DC0D49C0
:1033E00021FA03F322EA030207EE102A026030EE0C
:1033F000470A7047B0EE470A80ED007A704780EDCB
:10340000007A7047B0EE470AC0ED007A704700BFFF
:1034100000000000FFFF7F0000B52DED028BF5EEF0
:10342000400AF1EE10FA83B04BD0B0EE608AF0EEB5
:10343000408AFFF76DFC30B1B0EE680A03B0BDEC16
:10344000028B5DF804FBB0EE480AFFF761FC002830
:1034500043D1F5EE408AF1EE10FAEDD0B0EE680AF5
:10346000FFF74CFC00283FD1B0EE480AFFF746FCBE
:103470000028E1D1B0EE480AFFF75EFCB0EE408ACA
:1034800088EE880A01A8FFF799FFDDED017AF5EED5
:10349000C08AB0EE680AF1EE10FAA8EE670AB1EE43
:1034A000487A24DDB4EEC08AF1EE10FA98BF30EE0F
:1034B000480AB5EEC00AF1EE10FABFD530EE080AA0
:1034C000BCE700F0BBF8114B9FED110A1B680360CD
:1034D00003B0BDEC028B5DF804FBB0EE480A03B00C
:1034E000BDEC028B5DF804FB9FED090AA6E7B4EE84
:1034F000C70AF1EE10FA98BF30EE080AB5EEC00A1E
:10350000F1EE10FA9ADD30EE480A97E74C790000A8
:103510000000C07F7F2805D8034B185C034B5B5C21
:103520001840704700207047F87600007877000058
:10353000A0F16103192B98BF20387047A0F1410317
:10354000192B98BF203070477F2805D8034B185C93
:10355000034B5B5C1840704700207047F876000012
:1035600078770000A0F16103192B98BF20387047CD
:10357000A0F14103192B98BF203070477F299ABFD3
:10358000017001206FF02E0070475AB10A787F2A2F
:103590000AD800B10260002119605960501A18BFA2
:1035A00001207047002070476FF02E00704710B563
:1035B00004460846A2684AB12368616803F1010C19
:1035C0008C4508BF00208B4208D2D054E3682BB151
:1035D00021686268914201D22146984723680133ED
:1035E000236010BD70B54C1E09D41646C5B22946DD
:1035F0003046FFF7DCFF013CB4F1FF3FF7D170BD6F
:1036000010F0100F08D108B510F4007F14BF30205F
:103610002020FFF7E7FF08BD7047000008B5034B07
:103620005B689B681B68984708BD00BF0C000020C2
:1036300008B50921FFF7F2FF08BD000000B5FCF74F
:10364000C7FE024B18445DF804FB00BF08000000F1
:10365000037853B159B10144034613F8012F12B155
:103660008B42FAD10B46181A70470346FBE7034614
:10367000F9E710B584B00C4611460290002203927F
:1036800001941A46684600F0B1F804B010BD8446B3
:1036900040EA010313F0030F18D18446202A0BD30C
:1036A0002DE9F007B1E8F807A0E8F807A2F1200239
:1036B000202AF7D2BDE8F007042A07D351F8043BCB
:1036C00040F8043BA2F10402042AF7D2002A05D0F4
:1036D00011F8013B00F8013B013AF9D1604670470F
:1036E0008446002A2DD010F0030F04D000F8011BEF
:1036F000013A26D0F7E7C9B241EA012141EA014186
:10370000202A12D3A2F120022DE9F0030B460C4629
:103710000D460E460F4688468946A0E8FA03203A31
:10372000FBD2BDE8F00320320BD0042A05D340F8C9
:10373000041B043A05D0042AF9D200F8011B013A0F
:10374000FBD160467047024610F0030F16D111F00E
:10375000030F13D12DE9F0004FF001374FF0803304
:1037600051F8044BA4EB070525EA04051D4002D1DE
:1037700042F8044BF4E7A1F10401F0BC11F8013B5D
:1037800002F8013B002BF9D1704700F1010110F064
:10379000030F11D010F8012B002A23D010F0030FD3
:1037A0000AD010F8012B002A1CD010F0030F03D010
:1037B00010F8012B002A15D02DE970004FF00132CE
:1037C0004FF0803350F8044BA4EB020525EA0405C2
:1037D0001D4000D1F6E7A0F1040070BC10F8012BE9
:1037E000002AFBD1A0EB0100704700002DE9F04F4B
:1037F00089B007460392002303600C4614F8011BAE
:10380000002900F0FC82DFF818B5EBE2002507E0A4
:103810005E2868D145F4805501E045F040051C461E
:10382000234613F8010B3028F2D81F2837D9A0F10E
:103830002002102A33D801A151F822F01B380000D1
:103840009F3800009F380000813800009F3800003A
:103850009F3800009F380000873800009F38000024
:103860009F3800009F3800008D3800009F3800000E
:10387000933800009F3800009F38000099380000FE
:1038800045F08005CBE745F40045C8E745F0200545
:10389000C5E745F01005C2E745F40075BFE72A28E3
:1038A00021D1039A111D0391D2F800A0BAF1000FA3
:1038B000BCBFCAF1000A45F010051878A31C2AEA1B
:1038C000EA7A2E2826D00021742847D07A2845D0BD
:1038D0006C2800F0A8804C2800F0AB80682800F02D
:1038E000B8801C463DE0A0F13002D2B2092A88BF60
:1038F0004FF0000AE3D84FF0000A0AEB8A0A30388A
:1039000000EB4A0A13F8010BA0F13002D2B2092AE7
:10391000F3D9D4E718782A280AD1039A111D039104
:103920001168587802330029CEDB45F48075CBE767
:103930000133A0F13002D2B2092A88BF0021F4D8A5
:10394000002101EB8101303800EB410113F8010B3C
:10395000A0F13002D2B2092AF3D9E4E71C4614F8E8
:10396000010B002800F05782A0F12503DBB2532B96
:1039700062D8A0F12503532B5ED8DFE813F0760060
:103980005D005D005D005D005D005D005D005D004F
:103990005D005D005D005D005D005D005D005D003F
:1039A0005D005D005D005D005D005D005D005D002F
:1039B0005D005D005D005D005D005D005D005D001F
:1039C0005D005D005D005D005D005D005D005D000F
:1039D0005D005D005D005D005D005D005D005D00FF
:1039E0005D005D00EC005D005D005D005D005D0060
:1039F0005D005D005D005D005D007B0021015D00FC
:103A00005D005D005D0021015D005D005D005D0009
:103A100095000F01D2005D005D00A6005D001A0157
:103A20005D005D00EE001C4614F8010B45F0010539
:103A300097E745F001051C46B54B1E68002E00F0C7
:103A4000CE8103AB0193009153462A463946B047D5
:103A5000C5E11878682803D05C1C45F0040580E7B0
:103A600045F008059C1C58787BE725213846FFF770
:103A70009EFDB4E1039B1A1D03921E780AF1FF3AE2
:103A80003A4651462846FFF7BBFD31463846FFF718
:103A90008EFDA94619F0100F00F0A1813A4651465B
:103AA0002020FFF79FFD9AE115F0080F06D03A6835
:103AB000039B191D03911B681A7090E1039B1A1D4B
:103AC00003921B683A681A6089E1039B1A1D0392EE
:103AD000D3F800808F4BB8F1000F08BF98464646D8
:103AE00025F4007915F4807F16D04046FFF7B0FD2D
:103AF0000546AAEB050A3A4651464846FFF780FDBF
:103B0000002DC7D016F8011B3846FFF750FDA8EB73
:103B10000603EB42F6D1BDE74046FFF736FE054609
:103B2000E7E7039B1A1D03921B6815F0800F0CBF7B
:103B30000026232645F4807508211A46002B00F044
:103B40002A8105AB4FF0000805F4005CA6466046EC
:103B50008C460146D2E045F4005515F0800F1BD08D
:103B600043F2780643F25803782818BF1E4615F42E
:103B7000807F01D025F4007515F4804F32D0039B6F
:103B80001A1D03921B6815F0040F1FD01BB2002BE7
:103B900020DA5B422D262DE00026E8E715F0800FA5
:103BA0000CBF0026302615F4807FE5D025F4007583
:103BB000E2E715F4807F07D025F400750026DBE7E7
:103BC00045F480450026D7E70026D5E715F0080F15
:103BD000DDD0DBB215F0200F61D115F0400F18BF1A
:103BE000202607E0039B1A1D03921B6815F0040FA3
:103BF00050D09BB215F4807F14BF25F400750121CD
:103C00005838202800F2AF8001A252F820F000BFFF
:103C10003B3B0000673D0000673D0000673D000042
:103C2000673D0000673D0000673D0000673D000004
:103C3000673D0000673D0000673D0000673D0000F4
:103C4000CB3C0000673D0000673D0000673D000081
:103C5000673D0000CB3C0000673D0000673D000071
:103C6000673D0000673D0000673D0000A33C000089
:103C70003B3B0000673D0000673D0000673D0000E2
:103C8000673D0000CB3C0000673D0000673D000041
:103C90003B3B000015F0080FACD0DBB2AAE72B26A7
:103CA000A8E71A464FF00008002B5ED005A84FF099
:103CB000000803F00703303300F8013B08F1010866
:103CC000D2081346002AF4D14FE018464FF00008FE
:103CD000002B4AD04FF0000805F4004E4FF02C099D
:103CE00073468E4619462FE002F00F000A4C205C06
:103CF00003F8010B08F10108120906D00029F3D0DE
:103D000002F00F00054C205CF2E7744661462CE09F
:103D10005C080020547900002C7900003C790000F8
:103D2000CDCCCCCC08AB03EB080CABFB0032D208FB
:103D300002EB8203A0EB430330330CF80C3C08F198
:103D4000010809280DD910460029EBD008F003031B
:103D5000032BE7D108AB434403F80C9C08F101089E
:103D6000E0E7714601E04FF00008A1EB080121EA0D
:103D7000E179AAEB090AAAEB080AFF2E0ED9AAF1EB
:103D8000020AC6F307213846FFF711FCF1B23846A4
:103D9000FFF70DFC04E04FF00008E6E7002E3DD1F0
:103DA0003A4651462846FFF72BFC3A464946302012
:103DB000FFF718FCB8F1000F0EDD0DF1140908F142
:103DC000FF38C84498F8001046463846FFF7EFFB26
:103DD000C14508F1FF38F5D115F0100F09D114F8DD
:103DE000011B61B125293FF411AD3846FFF7DFFB18
:103DF000F5E73A4651462020FFF7F4FBEFE7BB68B2
:103E00002BB13A6879688A423CBF002199543868DE
:103E100009B0BDE8F08F4FF0FF30F9E70AF1FF3A43
:103E2000B4E700BF002837D0F0B5C36893B00546AB
:103E30007BB31B4C1B481C4F0E4641F2787200218D
:103E4000FFF74EFC0FCC0DF1080CACE80F000FCCC7
:103E5000ACE80F000FCCACE80F0094E80F00DFF8DF
:103E60004CE08CE80F00E9680E4A9EED002AD7ED81
:103E7000001A95ED021AD5ED010A95ED000A01AB85
:103E800002A800F01DF90EB1019B3360002013B0B1
:103E9000F0BD6FF01500FAE76FF01500704700BF36
:103EA0005C790000600800202C0000202800002021
:103EB00010B510EE903A002BB5BF0F4B0F4B104AC8
:103EC000104A1968126804460F4886B0C1648264BB
:103ED00002AB01AA694600F063FC9DED000ADFED2C
:103EE0000B7A20EE270A2CB10299039A059B2160D8
:103EF0006260A36006B010BD2000002028000020F2
:103F0000240000202C000020600800200000C8428F
:103F1000014800F061BB00BF60080020014801F0CB
:103F200049BD00BF6008002070B52DED048BD0EDB9
:103F3000007AD0ED019A90EDC87AF4EEC07AF1EEF5
:103F400010FA79EEE79A0646F0EE408AB0EE609AF3
:103F50000D461446B4EEC70AC0F29680F1EE10FA90
:103F6000F4EEC07A71DBF1EE10FA66D4002395ED21
:103F7000C85AD4EDC85AD4EDC74A95EDC76AF0EED9
:103F8000456AE5EE896AA4EE896A38EEC77A76EE6C
:103F9000C66A26EE877A87EE298A38EE058AA5EE6C
:103FA000898AEBB338EEE70A80EE290AFEF7C8FEED
:103FB0006FF04041D6ED007A78EEE76AF0EE007AD5
:103FC00086EEA97A70EE277AB7EE006A70EE066A7E
:103FD000FDEEE77A37EE400A17EE903AFDEEE67A0C
:103FE0000B4417EE902A0A4405EB830104EB83038C
:103FF00093ED007A91ED008A05EB820504EB8204D3
:1040000076EE407A20EE088AD5ED006A20EE070AA7
:1040100094ED007AA6EEA78AA7EE270AA9EE008AF9
:10402000B0EE680A00F04CFA9FED240A002808BFA1
:10403000B0EE480ABDEC048B70BDF4EEC78AF1EE19
:1040400010FA4CBF0123002391E7F1EE10FA2DD4B2
:104050000023D5ED005A94ED006A94ED017AD5ED78
:10406000016AB0EE655AE7EE096AA6EE095A38EE23
:10407000E77A76EEC56A27EE267A87EE298A38EE49
:10408000258AA6EE098A8CE7F1EE10FAF4EEC07AE2
:10409000BFF669AFF1EE10FA05D5B4EEC70AF1EE3E
:1040A00010FA3FF57FAF9FED058AB9E7B4EEC70A76
:1040B000F1EE10FA4CBF01230023CAE70000000014
:1040C0002DE9F04114462DED068B4FF07E52226013
:1040D0004FF0804262608AB040220D46014604F1F2
:1040E0000800B0EE61AAF0EE428A1E46B0EE408AA9
:1040F000F0EE609AB0EE419AFFF7C9FADF4AE04964
:10410000D2F800C02165002384ED12AAC4ED138A01
:104110006365A365E36504F1600004F1C40E40F833
:1041200004CB8645C0F860C0F9D14FF07E53C4F887
:1041300028310023C4F82CC1C4F830C1C4F834C1FC
:10414000C4F83831C4F83C31C4F840C14FF4B0521F
:10415000294604F5A270FFF79AFA95EDC97AD5EDD4
:10416000CA6AB4EEE67AF1EE10FA80F29F8100F1AD
:104170004481B0EE476A01DDB0EE667AD5EDCB7AC8
:10418000F4EEE76AF1EE10FA80F29681B4EEE76A97
:10419000F1EE10FA00F14281B4EEE77AF1EE10FA96
:1041A00040F33A81B0EE677A0322F0EE467AB4EE3D
:1041B000C79AF1EE10FA00F13981B4EE679AF1EE88
:1041C00010FAC8BFB0EE679A04F5805707F244733F
:1041D000C3ED007A05F5497807F5E96383ED007AC8
:1041E000404687F84C2700F079F9F0EE400AB0EE2F
:1041F000490AFEF7CFFE4046F0EE408A00F0A0F9F3
:10420000F0EE400AB0EE680AFEF7A6FED5EDC97AD8
:1042100095EDCA7AF4EE407AD5EDCB7AF1EE10FA4C
:10422000B4EE407A0CBF01230023F1EE10FAF4EE55
:10423000407A8DF804300CBF01230023F1EE10FA10
:104240008DF8053007A90CBF0123002302AA01A89D
:10425000F0EE408A8DF8063000F0A4F903990029A9
:1042600000F014810EDD07AA02EB810104A852F8C8
:10427000043B03F25D5305EB830391421B6840F856
:10428000043BF4D19DED04AA7E4A07F5EA63A9EE4A
:104290008A8A1A6005F21453D5EDCC7AD5EDCD9A01
:1042A00093ED007AF4EEC87AF1EE10FA79EEE79A1F
:1042B00040F1A680B4EEC87AF1EE10FA40F3A08087
:1042C000F4EE487AF1EE10FA00F0EE80B4EE487A9F
:1042D000F1EE10FA21D1012205F5805303F2745159
:1042E000D3EDE35AD3EDE24A91ED005A03F5AE6304
:1042F00093ED006AF0EE456AE5EE896AA4EE896AFC
:1043000038EE477A76EEC66A26EE877AC7EE298AB5
:1043100078EE858AE5EE898ACAB378EE677A87EE09
:10432000A90AFEF70DFDD5EDCC7A38EE677AF7EEE7
:10433000006AC7EE297A30EE267AB0EE006ABDEE4A
:10434000C77A30EE066A17EE103ABDEEC66A05EB84
:10435000830303F5805393EDE35AD3ED695A16EEC8
:10436000103A77EEC07A05EB830505F5805536EEF9
:10437000E77AD5EDE38AD5ED696A67EEA88A67EE3C
:10438000A67AE5EE078AE5EE877AE9EE278A04F554
:10439000BB54B0EE480A00F093F807F25473DFED17
:1043A0003A7A4FF081421A60002807F5EB6207F273
:1043B0005C73C2ED007A18BFF0EE678AC3ED007A35
:1043C00007F26473C4ED007A07F5ED61C3ED008A6E
:1043D00007F26C7207F5EE6307F2747781ED00AABD
:1043E00082ED00AA83ED00AA87ED00AA86ED008A7F
:1043F0000AB0BDEC068BBDE8F081B0EE666ABDE6A2
:10440000F4EEC87AF1EE10FA13DAB4EEC87AF1EEEF
:1044100010FA46D800225FE7F0EE467AB4EEC79A6B
:10442000F1EE10FA4FF003027FF5C7AEB0EE479AF7
:10443000CAE60022B4EEC87AF1EE10FA7FF64CAF6D
:1044400005F58053D3EDE45A93ED6A6AD3EDE56A3E
:10445000D3ED6B4AB0EE655AA6EE095AE4EE896ACE
:1044600038EE677A76EEC56A27EE267AC7EE298A95
:1044700078EEA58AE6EE098A4EE700BF30000020FC
:104480000000A040000040400000000005F5AB51D6
:10449000B0EE680A4046183101F098FCB0EE40AA30
:1044A000F2E65FED078A72E70122C3E7F0EE477A92
:1044B000B0EE479A012287E6F0EE467A022276E6CF
:1044C00008B510EE100AFEF7D5FB02460B46FEF7C4
:1044D000ADFB003818BF012008BD00BF10B590ED3E
:1044E000000A0446FFF7ECFF60B194ED010AFFF704
:1044F000E7FF00B394ED020AFFF7E2FFC0B994EDC5
:10450000020A10BD94ED000A022303F18042013A31
:1045100004EB820000E00323F0EC017AF4EE407A31
:10452000F1EE10FAC8BFB0EE670A022BF3D010BD4F
:1045300094ED000A10BD94ED010A0323E5E700BFE6
:1045400010B590ED000A0446FFF7BAFF60B194ED94
:10455000010AFFF7B5FF00B394ED020AFFF7B0FFC1
:10456000C0B994ED020A10BD94ED000A022303F1D4
:104570008042013A04EB820000E00323F0EC017A70
:10458000F4EE407AF1EE10FA48BFB0EE670A022B63
:10459000F3D010BD94ED000A10BD94ED010A032381
:1045A000E5E700BF30B400230124146001389C46C5
:1045B00010F8014F0CF1010501333CB1022D41F817
:1045C0002C3002DD556030BC7047AC46032BEFD178
:1045D0006546556030BC704730B52DED048BD0ED8D
:1045E0004B7A634BF5EEC07AF1EE10FA93ED009A38
:1045F0008BB017D490ED188AD0ED318A044600F1C3
:10460000640300F1C402B3EC017AD3ED187A93424B
:1046100038EE078A78EEA78AF5D1B0EE480AFFF7A0
:104620004FFF28B1B0EE490A0BB0BDEC048B30BD92
:1046300004F58D652846D4ED4C9AFFF74FFFF0EE58
:10464000400AB0EE690AFEF7A5FC2846F0EE409A53
:10465000FFF776FFF0EE400AB0EE690AFEF77CFC49
:10466000D5ED007A04F26C4393ED007A04F58E6385
:10467000F4EE407AD3ED007AF1EE10FAB4EE407A1F
:104680000CBF01220022F1EE10FAF4EE407A0CBFCA
:1046900001230023F1EE10FA0CBF012100218DF857
:1046A00006108DF8042001A802AA04A9F0EE409A91
:1046B0008DF80530FFF776FF0398002847D054DDCA
:1046C00004AA07A902EB800552F8043B03F2BB538E
:1046D00004EB8303AA429B6841F8043BF4D1012810
:1046E0009DED070A09D0DDED087A032830EE270A90
:1046F00004BFDDED097A30EE270A9FED1E7AD4ED76
:104700004B7A20EE070AF4EEC07AF1EE10FA08D5E3
:1047100094ED4F7AF3EE097AB4EEE77AF1EE10FAFF
:104720001EDCC8EE287AF5EEC07AF1EE10FA7FF5BD
:1047300079AF94ED4D7AB1EE477A87EE279AB5EED0
:10474000C09AF1EE10FA48BF9FED0B9A6AE704F5A4
:10475000B751B0EE690A1831284601F037FBCCE7B3
:10476000D4ED4E6AC6EE877ADDE79DED070AC4E711
:10477000300000200AD7A33C000000004A6852B174
:10478000411EC0F101035818824206DD11F8010FE5
:104790000028F8D17047104670470120704700BFCD
:1047A0002DE9F04F2DED0E8B00F58056ADF5097D0E
:1047B000CDE90712099396F84C3706F5E962012B0B
:1047C00092ED008A0446B0EE409AF0EE608AB0EEB8
:1047D00041DAB0EE61AA05D0B4EEC81AF1EE10FAD3
:1047E00040F1488704F58D673846FFF777FE384675
:1047F000F0EE409AFFF7A4FEF0EE690AF0EE40AA50
:10480000B0EE480AFEF7C6FBF0EE6A0AFEF7A4FB1C
:10481000D7ED007A04F26C43F4EE407AD3ED007ADF
:10482000029304F58E63F1EE10FAF4EE407AD3EDC4
:10483000007A03930CBF01230023F1EE10FAF4EE8B
:10484000407A8DF828300CBF01230023F1EE10FAD6
:104850008DF829300FAA0CBF012300231DA90AA837
:104860008DF82A30B0EE40BAFFF79CFE109B0593FE
:10487000002B00F0EF8741F36F80059B11A91DAA63
:10488000019102EB830052F8043B03F2BB5304EBAB
:10489000830382429B6841F8043BF4D1F0EE690A3D
:1048A000B0EE480AFEF776FBF0EE6A0AFEF754FB1C
:1048B000029BD7ED007A93ED007A039BF4EE407AE9
:1048C000D3ED007AF1EE10FAB4EE407A0CBF01237A
:1048D0000023F1EE10FAF4EE407A8DF828300CBF88
:1048E00001230023F1EE10FA8DF829301DA90CBF29
:1048F000012300230FAA0AA8B0EE40BA8DF82A308F
:10490000FFF750FE1099002900F08F874FEA410A07
:10491000524641F3258032AB1DA800939E468B0082
:10492000069300EB810184465CF8043B03F2AF532D
:1049300004EB830361459B684EF8043BF4D1009B74
:10494000069D03EB050C50F8043B03F2B25304EB55
:10495000830388429B684CF8043BF4D1002A40F35F
:10496000AF8715462CABDDF800B0049399464FF0A5
:104970000008BBEC010AFEF7DFF908F10108C245A7
:10498000A9EC010AF5DC002D40F3F5870499F1EE5E
:104990004ACA002391ED007ACCEE877A01339D421A
:1049A000E1EC017AF6DCBAF1000F0CDD049D4FF06A
:1049B000000895ED000AFEF719FA08F10108C24552
:1049C000A5EC010AF5D1F0EE690AB0EE480AFEF74F
:1049D000E1FAF0EE6A0AFEF7BFFA029BD7ED007A21
:1049E00093ED007A039BF4EE407AD3ED007AF1EE7A
:1049F00010FAB4EE407A0CBF01230023F1EE10FA56
:104A0000F4EE407A8DF828300CBF01230023F1EE3C
:104A100010FA8DF829300FAA0CBF012300231DA91D
:104A20000AA8B0EE40BA8DF82A30FFF7BBFD109A05
:104A3000002A00F0E78640F388871DA9DDF800C052
:104A40004FEA820A084601EB820250F8043B03F267
:104A5000B55304EB830382429B684CF8043BF4D1CA
:104A6000009B03EB0A0051F8043B03F5B76304EB2A
:104A700083038A429B6840F8043BF4D1009B93ED8A
:104A800000BAF0EE690AB0EE480AFEF783FAF0EEDB
:104A90006A0AFEF761FA029BD7ED006A93ED007A8D
:104AA000039BF4EE406AD3ED007AF1EE10FAB4EE17
:104AB000407A0CBF01230023F1EE10FAF4EE407AA5
:104AC0008DF828300CBF01230023F1EE10FA8DF889
:104AD00029300FAA0CBF012300231DA90AA8F0EE5C
:104AE000409A8DF82A30FFF75DFDDDF840B0BBF14C
:104AF000000F00F079860EDD1DAB14A903EB8B00CF
:104B000053F8042B02F2AD5204EB82029842526831
:104B100041F8042BF4D1009D94ED170A554439EE69
:104B2000400AD5ED00BAFEF707F9F0EE407A94EDB1
:104B3000150A30EE680A17EE907AFEF7FDF810EECF
:104B4000105A2846FEF796F8F9A3D3E90023FEF79A
:104B500035F870B13846FEF78DF8F5A3D3E9002398
:104B6000FEF72CF828B1B5EEC0DAF1EE10FA00F13C
:104B7000E48606F5ED6393ED00CA9FEDE77ADFED7D
:104B8000E77A06F27473D3ED009A69EE879A06F518
:104B9000EE63ECEE279AD3ED00AA6AEE87AAF0EE58
:104BA000006AE9EEA7AA06F5E963D3ED007AB0EE54
:104BB0006A7A99EEA67AF4EECD7AF1EE10FA8DEDDE
:104BC000177A05D4B5EEC0DAF1EE10FAC0F25286CB
:104BD0004FEA8B0214A917A8FEF759FD40220021C5
:104BE00058A8FEF77DFD06F25473D3ED007AFDEE72
:104BF000E77A002217EE903A209221922292239295
:104C00005A1E03EB820388A901EB83034FF07E5108
:104C100043F8C41C059B002B4FEA82020DDD019B6B
:104C200005999FEDBF7A03EB8101D3ED007A67EE22
:104C3000877AE3EC017A9942F7D1019B9FEDBEDAC6
:104C4000D3ED00DAD4ED157A0499069BD4ED006A11
:104C500091ED006A8CEEAD7A0B4488A888AD67EEC2
:104C60008D7AD3ED005A67EE8A7A20AB87EEAD0AD3
:104C70001A44D4ED017A82ED007AFDEEE77AB7EEC0
:104C800000EA17EE903AFDEEE67A591E17EE902AEA
:104C900003EB810300EB830320A800EB8101501E8E
:104CA00002EB800205EB82027EEE657A02ED316A4C
:104CB0003EEE466A43ED315A20AB03EB800080EDB7
:104CC000006AB1EE400AC1ED007ACDED275AFEF739
:104CD0008DF806F5EA63D3ED007A9DED206ADDEDEF
:104CE000216A9DED227A8DED386AFDEEE77A26EE97
:104CF0000D4A17EE903ADDED237A8DED3C4A03EB39
:104D0000830366EE8D4A27EE0D5A67EE8D5A05EB4A
:104D10008303F0EE40CA03ED350A94ED150ACDED9C
:104D2000396ACDED3D4A8DED3A7A8DED3E5ACDEDA5
:104D30003B7ACDED3F5AFFF7C3FB002800F0A78474
:104D4000784BD4ED156A93ED007A9FED7B6A2AEEDD
:104D5000066A06F5EA63C6EE2D7A06F25C7238A999
:104D600058AFCDE902B778AD0DF1A00AA946384693
:104D70004FF0000E04F1400892ED005A27EEEC6A65
:104D8000D3ED007AFDEEE77A06F5EB63D3ED004A4A
:104D900017EE903A03F2D55204EB8202D2ED007A7C
:104DA000F7EE005A7CEEE5CAE7EE875A5A1E01EB91
:104DB0008303C3ED03CA04F5BB5366EE257A009363
:104DC000D3ED005A06F2647393ED006A20AB03EB57
:104DD0008203C3ED007A930068AAD0ED041AD0EDE7
:104DE000082A90ED0C3AB0EC012AF1EC013A65EE9C
:104DF000217A91ED034AE2EE247A9346274627EE84
:104E0000044AE2EEA57AA3EEA64AE3EE067A77EE2E
:104E1000847AEAEC017AD7ED037A97ED024AD7ED6E
:104E2000043A61EEA77A1037E2EE047ADC460BF121
:104E3000100B97ED014AE2EEA37AB845E3EE047A4F
:104E4000CCED007AE7D1B2EC012AD2ED032A92ED43
:104E5000073AD2ED0B3ACB4658AFB7EC014AD7ED43
:104E6000037AD7ED071A97ED0B1A62EEA77ADC46A4
:104E7000E4EE027A0BF1100BE3EE217AE3EE817A95
:104E8000CCED007A0DF5B87CBC45E6D10EF1010EF3
:104E9000BEF1040F09F104099FD128AA1344D3EDF0
:104EA000000ABFEE000ADDE902B7FEF755F806F585
:104EB000EA63D3ED007AFDEEE77AF0EE400A06F2FF
:104EC000547AB7EE000A17EE909AFEF763F8DAED1F
:104ED000007AFDEEE77A28AB09F1FF3903EB890987
:104EE00017EE903A28AA02EB830389ED000A53EDEE
:104EF000010A9FED0D0AFEF72FF8DAED007AFDEEBC
:104F0000E77AF0EE400A17EE909A9FED080AFEF756
:104F100041F8D4ED137A13E072F97F3F17B7D13817
:104F20000000614530000020CDCC4CBD6666863F58
:104F3000FCA9F1D24D62703F000000000000C842A1
:104F40009DED204ADDED214A9DED225A9DED237A0B
:104F500028AB09F1FF3903EB89090DF1800A27EE2F
:104F6000844A67EEA44A27EE855A27EE877A89EDB0
:104F7000000A58AB5246F2EC017A24A964EE275A93
:104F800027EEA46A67EE856A67EE877A9142C3EDE1
:104F9000005A83ED016AC3ED026AC3ED037A03F19F
:104FA0001003E8D104F1080905F140024B46F5EC85
:104FB000017AB7EC017A77EE877AAA42E3EC017ABC
:104FC000F5D106F25473D3ED007A94ED510AD4ED85
:104FD00052DAFDEEE77A04F2644393ED007A17EEBD
:104FE000903A28AA02EB830313ED01DAB4EECD0A5E
:104FF000F1EE10FA7DEEC0DAC0F25783B4EEC7DAF4
:10500000F1EE10FAB4EECD0A80F26583F1EE10FAFB
:1050100000F18684002304F6841292ED007A04F5F0
:10502000CC62D2ED007A04F5186292ED006A04F2C7
:105030005C62D2ED006AF0EE465AA7EE887AE6EEA0
:10504000885A7DEE407A37EE657A67EE877AC7EE4A
:10505000ADCA7CEE86CAE6EE88CA002B4AD03DEE89
:10506000400A80EE2D0AFDF76BFE06F2547228A965
:10507000F0EE007A70EE277AD4ED515AFDEEE77A21
:10508000F7EE006A17EE903AD2ED007AFDEEE77A7D
:1050900030EE267A17EE902A01EB820212ED016AB9
:1050A00036EE656ABDEEC77AC6EE2D7A04EB830351
:1050B00003F67C1103F5CB6317EE102A77EEC07A66
:1050C00093ED007AD1ED00CA04EB820202F67C1364
:1050D00002F5CB6276EEE76A67EEACCA93ED006A42
:1050E00067EE877A92ED007AE6EE26CAE7EE267A38
:1050F000E8EE27CAB0EE4D0AFFF7E2F994ED017A27
:10510000D4ED007A5FED746ABDEEC77A28AA17EE77
:10511000103AFDEEE77A02EB830313ED017A0028E3
:1051200017EE903A18BFF0EE66CAE7EE6BCA02EBD4
:105130008303BBF1000F53ED017AE7EECBCA0DDD1F
:1051400017AB019A03EB8B01B3EC017AF0EE6C7AAA
:10515000E7EE687A9942E2EC017AF5D106F25473EF
:10516000D3ED007A5FED8CCAFDEEE77A04F6C872E3
:1051700017EE905A04F6A441F0EE480AB0EE4D0A3C
:1051800004F5A270CDED20CACDED21CACDED22CA25
:10519000CDED23CA013DFEF7C7FE20ABD4ED006A7A
:1051A000D4ED017A03EB850506F5EA6393ED006A19
:1051B00085ED000AFDEEE66A20AA16EE903AFDEEB5
:1051C000C66A02EB830316EE902A20A9FDEEE77A69
:1051D000B1EE4BBA01EB820242ED01CA03ED01BA16
:1051E00017EE903AF1EE6BBA01EB830343ED01BA8F
:1051F000DDED206A9DED216ADDED225A9DED235AF9
:10520000B0EE6C7A2346D3ED037AD3ED024AD3EDA8
:10521000043A93ED054A66EE277A1033E6EEA47A57
:105220009845FAEC014AE5EEA37AE5EE047AA7EE9A
:10523000A47AE8D1D4ED127A24AD37EE27BA04F17E
:1052400018022B46B9EC014AD9ED037AD9ED074A89
:1052500099ED0B7A66EE277A4A45E6EE847AE5EE1A
:10526000A47AE5EE077A87EE8B7AA3EC017AE9D18E
:105270005FEDCECABBF1000F6BEE2CCA40F3FE828D
:10528000019914AA0B4601EB8B004FEA8B091146DA
:10529000F3EC017A79EE677A9842E1EC017AF7D182
:1052A00014A91AAB9DED147A09EB01001946F2EC32
:1052B000017A67EE277A9042E1EC017AF7D1012278
:1052C0000DAF09EB03003A60C7F804B00AAAF3EC8B
:1052D000017AF4EEEC7AF1EE10FACCBF0121002154
:1052E000984202F8011BF2D139460AA8FFF746FAA4
:1052F000002800F02382DFEDDE7AF0EE67BACDED14
:10530000247AF0EE67DAB0EE67EAB0EE67DACDED58
:10531000257ACDED267ACDED277A14AA4CA99144B1
:105320000B46F2EC017A2DEE276A6EEE276A2DEE1F
:10533000A77A6BEEA77A914583ED006AC3ED016A07
:1053400083ED027AC3ED037A03F11003E9D140AB98
:105350009DED284ADDED294A9DED2A5ADDED2B5AB7
:105360004FEA0B1C01EB0B1E18460A4692ED006A31
:10537000D2ED016A92ED027AD2ED037A36EE046A3A
:1053800076EEA46A37EE057A77EEA57A1032964566
:1053900080ED006AC0ED016A80ED027AC0ED037A0B
:1053A00000F11000E2D19C441A680A605A684A6011
:1053B0009A688A60103353F8042CCA609C4501F146
:1053C0001001F1D106F5EA69D9ED007AFDEEE77A30
:1053D00088AA17EE903A02EB830353ED3D0ABFEE25
:1053E000000AFDF7B9FDD9ED007AFDEEE77AF0EE9F
:1053F000400A06F2547AB7EE000A17EE909AFDF7CB
:10540000C9FDDAED007AFDEEE77A88AB09F1FF39E4
:1054100003EB890917EE903A88AA09ED3C0A02EBE2
:10542000830353ED3D0A9FED900AFDF795FDDAEDFC
:10543000007AFDEEE77AF0EE400A17EE909A9FEDC3
:105440008B0AFDF7A7FD09F1FF3988AB03EB89094A
:105450002BEE0E4A6BEE2D4A6BEE2B3A2DEE4B5A8D
:1054600009ED3C0A2346F5EC017AD3ED025A93ED9F
:10547000036AD3ED046A93ED057AE7EE855A10339B
:10548000A7EEC46AE7EEE46AA7EEE37A43ED025AB8
:1054900003ED016AC3ED006A83ED017A9845E2D11C
:1054A0000123BBF1000FC7F804B03B6010DD1AAB5D
:1054B00003EB8B0B0AAAF3EC017AF4EEEC7AF1EE33
:1054C00010FACCBF012100219B4502F8011BF2D14B
:1054D00039460AA8FFF752F9002800F0248106F2A5
:1054E0005473D3ED007A94ED147AFDEEE77A17EE5B
:1054F000902A531E02EB830204EB8202D2ED017A62
:1055000067EE877A9B00C2ED017A06F5EB604C9F4F
:10551000C4ED158A076006F25C704D9D0560009829
:105520004E9A026003F5087306F264724F99116097
:105530006B44079A53F8F03C136006F25473D3EDB2
:10554000007AFDEEE77A17EE903A03EB830304EB63
:10555000830313ED030A00F095FCF0EE087A20EEC9
:10556000270A089B179A83ED000A06F26C7384EDF4
:10557000179A1A6006F5ED6383ED00CA06F5EE632F
:10558000C3ED00AA06F27473C3ED009A94ED4B0AC2
:10559000FEF796FF002800F0DA80B0EE680AFDF70B
:1055A000CBFB06F25476B0EE409A94ED4B0AFDF731
:1055B000C3FB96ED007AD4ED4D6AC4ED4B8ABDEE87
:1055C000C77AF1EE047A60EE277A17EE103A88AACD
:1055D000B4EEE79A02EB8303D4ED4A7A13ED3D5A19
:1055E000019A84ED4D5AF1EE10FAF7EE004A37EECB
:1055F000A47ACEBF9FED1E6AD4ED4F5A94ED4E6A49
:1056000084ED4C8AFDEEE77A75EE666AC8BFF0EE6F
:10561000465A17EE903A36EE866A7AEE257AB3EE5F
:10562000094A04EB8303B4EE447AC4ED4F7A84ED67
:105630004E6A1168C3ED176A83ED30AA179A099B69
:10564000F1EE10FAC8BFB0EE647A84ED4A7A1960C0
:105650005A60C3ED02BA83ED038A0DF5097DBDECF6
:105660000E8BBDE8F08F00BFCDCC4CBD6666863F8B
:105670000000000006F2447393ED008AB4EEC18A84
:10568000F1EE10FA58BFB0EE418AFFF7ABB8D4ED97
:10569000156AF5EEC06AF1EE10FA00F10D8140F3E3
:1056A0004881B0EE4E7AFFF750BB0CD5B4EEC7DAA6
:1056B000F1EE10FA07D5B4EE47DAF1EE10FA7FF406
:1056C000CEAC01230CE0B4EEC7DAF1EE10FA06DA44
:1056D0005FED19CA0EE5F1EE10FA00F1108100231A
:1056E00004F54A62D2ED005A04F67C1292ED006A8B
:1056F00004F6781292ED005A04F69C42D2ED006A4C
:10570000F0EE657AE6EE087AE5EE086A3DEE477A55
:1057100077EEE67A67EE877AC7EEADCA7CEEA5CA69
:10572000E6EE08CA99E406F25473D3ED007AFDEE72
:10573000E77A17EE903A013B9B00E6E69DED24DA0E
:105740009DED25EADDED26DADDED27BAE5E5B0EEE3
:10575000680AFEF7B5FE002840F0B880F5EEC08A72
:10576000F1EE10FA00F10E8140F31281B7EE009ACB
:1057700094ED4B0AFEF7A4FE002800F0B1808B4B9D
:10578000D3ED007A69EE277ABFEE007AF4EE477A1D
:10579000F1EE10FA7FF401AF844B04F1C4011A68F2
:1057A00004F1600343F8042B8B421A66FAD1FFEE32
:1057B000007AB4EE679A0023F1EE10FAC4F83C3197
:1057C000C4F8383140F0DB8006F25473D3ED007A30
:1057D000FDEEE77A88AA17EE903A02EB830353F8BE
:1057E000F43CC4F84031D8E604F5B551B0EE690A8E
:1057F00038461C3100F0EAFA4FF0010B8DED140A27
:10580000FFF789B9B0EE4B0A0BAA04F5B751384639
:1058100000F056FA009A9DED0BBA0C9B536082ED96
:1058200000BA4FF0040AFFF72CB904F5B65108315D
:105830000BAAB0EE4B0A384600F042FA0C9B0B9ACA
:10584000339332A90225042300913292AA4606938B
:10585000FFF788B804F5B751B0EE4B0A1831384657
:1058600000F0B4FA11AB019301238DED110A0593F9
:10587000FFF714B84FF0010BFFF7B0B90DAF0123DC
:105880003B6039460AA8C7F804B0FEF777FF002846
:105890003DD0DFED477AF0EE67BACDED247AF0EE39
:1058A00067DAB0EE67EAB0EE67DACDED257ACDEDD6
:1058B000267ACDED277A85E5BFEE007AFFF745BA67
:1058C0002CAB6FF000450493FFF760B8374B94EDB5
:1058D0004B0A93ED009AFEF7F3FD00287FF44FAFDB
:1058E00094ED4B7ADFED327AB4EEE77AF1EE10FA0E
:1058F0004BD4D4BF69EE277AF0EE497A44E7B4EE90
:10590000C7DAF1EE10FA4CBF01230023E8E69DED63
:1059100024DA9DED25EADDED26DADDED27BA51E545
:10592000B4EEC7DAF1EE10FA4CBF01230023FFF703
:1059300072BBB0EE4D7AFFF708BA07EE907A07EE29
:10594000105A87EE87CAFFF718B9009B4FEA820A00
:1059500093ED00BAFFF795B811AB0193FEF79EBF28
:10596000BAF1000F17DD8B00069332AB4FF0004504
:105970000093FEF7F7BFF1EE4ACAFFF717B8C4F875
:1059800040210AE6BFEE009AF2E6F1EE497AFBE624
:105990009FED079AECE68B00069332AB00932CAB9D
:1059A000F1EE4ACA0493FFF70EB800BF30000020A2
:1059B000000000002DE9F0412DED048BBE4B90B0AE
:1059C000F0EE408A90ED4B0A93ED009A0446B0EE5B
:1059D000608AFEF775FD30B9D4ED4B7AF5EEC07AEA
:1059E000F1EE10FA06DBB0EE490A10B0BDEC048B04
:1059F000BDE8F08104F58D663046D4ED4C9AFEF793
:105A00006DFDF0EE400AB0EE690AFDF7C3FA3046CC
:105A1000F0EE409AFEF794FDF0EE400AB0EE690A0F
:105A2000FDF79AFAD6ED007A04F26C4393ED007A12
:105A300004F58E63F4EE407AD3ED007AF1EE10FABD
:105A4000B4EE407A0CBF01220022F1EE10FAF4EE1F
:105A5000407A0CBF01230023F1EE10FA0CBF0121A4
:105A600000218DF806108DF8042004A902AA01A8CF
:105A7000F0EE409A8DF80530FEF794FD039D002D61
:105A800000F0A48040F3B48004AA0AA98C46AE00BA
:105A900002EB8507104650F8043B03F2AF5304EBCA
:105AA0008303B8429B684CF8043BF4D1881952F840
:105AB000043B03F2B25304EB8303BA429B6840F801
:105AC000043BF4D107AF0B468819B8463A4600218B
:105AD000F3EC017AB0EC017A013177EE877A8D42EE
