:1000000000000120750300005D0300005F03000095
:1000100061030000630300006503000000000000AE
:100020000000000000000000000000006703000066
:1000300069030000000000006B0300006D03000076
:100040006F0300006F0300006F03000079090000D8
:100050006F0300006F0300006F0300006F030000D8
:100060006F0300006F0300006F0300006F030000C8
:100070006F0300006F0300006F0300006F030000B8
:100080006F0300006F0300006F0300006F030000A8
:100090006F0300006F0300006F0300006F03000098
:1000A0006F0300006F0300006F0300006F03000088
:1000B0006F0300006F03000000000000000000005C
:1000C0006F0300006F0300006F0300006F03000068
:1000D0006F0300006F0300006F03000000000000CA
:1000E0000000000000000000000000000000000010
:1000F0000000000000000000000000000000000000
:1001000000000000000000000000000000000000EF
:1001100000000000000000000000000000000000DF
:1001200000000000000000000000000000000000CF
:1001300000000000000000000000000000000000BF
:1001400000000000000000000000000000000000AF
:10015000000000000000000000000000000000009F
:10016000000000000000000000000000000000008F
:10017000000000000000000000000000000000007F
:10018000000000000000000000000000000000006F
:10019000000000000000000000000000000000005F
:1001A000000000000000000000000000000000004F
:1001B000000000000000000000000000000000003F
:1001C000000000000000000000000000000000002F
:1001D000000000000000000000000000000000001F
:1001E000000000000000000000000000000000000F
:1001F00000000000000000000000000000000000FF
:10020000354936480A1A02D0072291438D463449AF
:1002100034480A1A06D00722914381F30988022242
:1002200082F3148830483149314A00F044F83148AB
:100230003149324A00F03FF831483249324A00F041
:100240003AF832483249334A00F035F832483349F7
:10025000334A00F030F833483349344A00F02BF881
:1002600033483449344A00F026F8344834490022EF
:1002700000F02CF833483449002200F027F83348C6
:100280003349091A082902DB002202604160314A21
:1002900090471F481F49884205D00268043003B4C4
:1002A000904703BCF7E700208646EC46002000217B
:1002B000294A9047FEE7884207D0521A05D00378B2
:1002C00001300B700131013AF9D17047884202D0F8
:1002D00002700130FAE770470000012000E00020C2
:1002E0000000012000000120FC540000000000205C
:1002F00018000020D0030000D0030000903D000053
:10030000FC5400000000002000000020903D000090
:10031000903D0000903D0000903D0000903D0000A9
:10032000903D0000903D0000903D0000FC54000016
:1003300014550000180000201800002018000020AC
:10034000E0170020E0170020E4170020E417002049
:10035000E43700209D030000350A0000FEE7FEE7B9
:10036000FEE7FEE7FEE7FEE7FEE7FEE7FEE7FEE765
:1003700000F002B8FFF7FCBF0F484FF007018843B9
:1003800085460E4880470E48016841F470010160BF
:10039000BFF34F8FBFF36F8FFFF732BF09480A4992
:1003A0000A4A884207D0521A05D0037801300B70F0
:1003B0000131013AF9D1704700000120F90A00002B
:1003C00088ED00E0903D00000000002000000020CB
:1003D00000487047D817002001F01ABB044B1A5C84
:1003E000012393404FF0A042C2F80835704700BF88
:1003F000903D000008B50020FFF7F0FF0120FFF757
:10040000EDFF0220FFF7EAFFBDE808400320FFF7F9
:10041000E5BF0000074A4FF0A041105CD1F8043559
:100420000122824022EA03001340C1F80805C1F806
:100430000C357047903D0000C20708B501460CD549
:100440004FF0A0430322C3F84427C3F84827C3F85A
:100450004C27C3F85027FFF7CDFF8B070AD54FF085
:10046000A0430C22C3F83427C3F83827C3F83C272D
:10047000C3F8402708BD0023435082B0435801937E
:10048000019B02B070478B6A4A6B9A4210B54FF0DD
:10049000010305D2496A8A5CC0F81C251A4604E0AB
:1004A00091F82C201AB1C3610022104610BD0C6ACD
:1004B000640603D5C36181F82D30F6E74361EDE7AB
:1004C00070B5D0F8046105460C4626B14FF4827130
:1004D000FFF7D1FF012694F82F2022B34FF4927139
:1004E0002846FFF7C8FF4FF48E71FFF7C4FF4FF4A3
:1004F0008471FFF7C0FF002E69D094F82F200023ED
:1005000084F82D3092BBA36A616B99421CBF1646DA
:10051000052386F001061CBFC5F80025C5F8003587
:1005200084F82F6023E0D5F824314BB14FF4927159
:100530002846FFF7A0FF01236B6184F82F30DAE72C
:10054000D5F81C31ABB14FF48E712846FFF793FFFD
:10055000636B01336363D5F8243113B14FF49271A7
:10056000E7E72146FFF78FFF0028C4D1002210469D
:1005700070BDD5F80831002BBDD04FF484712846EA
:10058000FFF779FFD5F82431002BE7D1636BA16A1F
:100590008B42B0D2616AD5F81805C854636BA16A62
:1005A0000133481E8342636308D1206A400610D499
:1005B0000223C5F8003201232B629CE78B42FAD15B
:1005C000236A5B0697D5022384F82D30CFE70122FA
:1005D000CDE78B42EFD1F6E737B5314B01930D46AE
:1005E0004FF48271FFF747FF4FF49271FFF743FF1B
:1005F0004FF48E71FFF73FFF4FF48471FFF73BFF1D
:100600000023C0F800326B6385F82F3001230362AA
:1006100095F82D209A4218BF836029460446FFF7BB
:1006200032FF2B6883B140F28623AB60AB68C4F81D
:100630000433002003B030BD29462046FFF740FFB9
:1006400028B1019B013B0193019B002BF4DC95F841
:100650002F0050B9019B002BECDC0023C4F80035BF
:100660000523C4F800350320E4E7D4F8C434C4F803
:10067000C43493B113F0010F14BF4FF402400320B0
:1006800048F2012213F0020F18BF104613F0040FB6
:1006900048F2022318BF1846DCE70320DAE700BF60
:1006A000A086010037B5344B01930D464FF482719B
:1006B000FFF7E1FE4FF49271FFF7DDFE4FF48E710C
:1006C000FFF7D9FE4FF48471FFF7D5FE00236B636B
:1006D00085F82F30AB6A012B044617D12B6A5B06D5
:1006E00014D40223C4F800320123236295F82D208C
:1006F000022A18BF23602B6893B140F28623AB60B7
:10070000AB68C4F80433002003B030BD0123E9E72F
:1007100029462046FFF7D4FE28B1019B013B0193F7
:10072000019B002BF4DC95F82F0050B9019B002BA6
:10073000EADC0023C4F800350523C4F800350320A3
:10074000E2E7D4F8C434C4F8C43493B113F0010F11
:1007500014BF4FF40240032048F2012213F0020FAD
:1007600018BF104613F0040F48F2022318BF1846B2
:10077000DCE70320DAE700BFA0860100F0B50779C7
:10078000294D4FF03C0C0CFB07FC05EB0C0494F8D6
:100790002E60002E45D1A66084F82D6084F830606C
:1007A00084F831600E6863604B7B84F838304FF01A
:1007B000A04306F5E07445F80C2040F20C6C43F8B9
:1007C00024C04C6804F5E07E43F82EC003688868B6
:1007D000C3F80865C3F80C45C3F82405A2B10A7B29
:1007E00043F3073052010028C3F30733D2B213DBBF
:1007F0000E490C1884F800230122400903F01F035E
:1008000002FA03F341F820303C2303FB0755012390
:1008100085F82E300020F0BD054903F00F03CA54BF
:10082000F2E70820F7E700BF1800002000E100E031
:1008300014ED00E0036802790521C3F80015044BAC
:100840003C2101FB0233022283F82E20704700BFB7
:10085000180000202DE9F047314F0479D0F80090BE
:100860003C2303FB04730D4693F82D30012B944673
:1008700004D10B78012B06D1082011E0022B02D104
:100880000B78012BF8D13C26264BC9F8083306FB20
:10089000047696F830302BB1B368C9F804331120D0
:1008A000BDE8F0878CF00403C3F3800386F8303092
:1008B000C6F820C0A846B8E80F0006F10C0EAEE856
:1008C0000F00D8F80030CEF800306B68B362EB68E8
:1008D00073626B78C9F888352B78C4EB041A012B46
:1008E00007EB8A0A17D09BB9CCF3401C3C2303FBCF
:1008F0000473514683F82CC04846FFF76DFE3C2335
:100900005C433A193B59002BCAD182F83030C7E713
:100910004FF0010CEAE751464846FFF7C3FEEEE709
:10092000180000208642040010B586B00024CDE9EE
:1009300002349DF820308DF80510A342CDE904243F
:1009400001A914BF202222468DF80440FFF782FF40
:1009500006B010BD10B586B0012402930023CDE986
:1009600003328DF805101A4601A98DF8044005934D
:10097000FFF770FF06B010BDF0B52B4C2B4887B0C9
:100980002146FFF79DFD002840D194F82F70D4F840
:1009900020C0FFB9237B9A1E012A1BD8616AA26975
:1009A000914217D1E2696262CCF3401C62691F4830
:1009B000A262032B84F82CC084F82D70214604D148
:1009C00007B0BDE8F040FFF707BE07B0BDE8F04054
:1009D000FFF768BE164E0FCE01AD0FC533682B6012
:1009E000FFB1124AD2F8C434C2F8C43499070FD503
:1009F00001238DF8003000231CF0040F84F8303000
:100A000000D01FB1D4E900316846984707B0F0BD67
:100A10005A0701D50223ECE7DB074CBF032304236D
:100A2000E7E78DF80070E6E718000020003000408E
:100A30002400002073B50120FFF7FEFC4FF0804337
:100A40003422C3F81C25002404220094019400924F
:100A50000192D3F81C3500F06FFAA04215DB0E4866
:100A60000E4D00F0F9FB45F0010500F0A3FA00245B
:100A70002046FFF7CFFC32264FF47A40A847013ECC
:100A8000FAD10134042CF3D1EFE7054800F0E4FB80
:100A9000204602B070BD00BFB63D0000D03D000052
:100AA000943D00004FF08053D3F83001421C04BF46
:100AB0004FF0704393F8E00F831F5842584170473E
:100AC0004FF0704393F8E02F062A09D1D3F8E83F9E
:100AD000C3F30313033B042B02D8024AD05C7047D4
:100AE00000207047E53D0000024AD2F80034002B98
:100AF000FBD0704700E0014010B5FFF7D3FF40B1D5
:100B00004FF08053944AD3F82433C3F30423C2F83C
:100B10004035FFF7D5FF10B1904B914A5A67FFF768
:100B2000C1FF48B14FF080534FF08042D3F84432B8
:100B3000C3F34233C2F83C35FFF7C2FF30B1894AF4
:100B4000D2F8FC3023F08073C2F8FC30FFF7AAFF24
:100B500040B14FF080430022C3F80C21C3F81021AC
:100B6000C3F83825FFF7ACFF20B14FF080430322D4
:100B7000C3F8A025FFF7A4FF60B17B4B0522C3F8A3
:100B800010260122C3F888260022C3F818263F2227
:100B9000C3F814264FF08053D3F83021511C09BFFD
:100BA0004FF07043D3F8343193F8E02FD3F8E83F97
:100BB00008BFC3F30313062A4DD1033B042B03D80C
:100BC0006A4AD35C002B46D04FF08052684BD2F873
:100BD0000414C3F82015D2F80814C3F82415D2F869
:100BE0000C14C3F82815D2F81014C3F82C15D2F839
:100BF0001414C3F83015D2F81814C3F83415D2F809
:100C00001C14C3F84015D2F82014C3F84415D2F8C8
:100C10002414C3F84815D2F82814C3F84C15D2F898
:100C20002C14C3F85015D2F83014C3F85415D2F868
:100C30003414C3F86015D2F83814C3F86415D2F828
:100C40003C14C3F86815D2F84014C3F86C15D2F8F8
:100C50004424C3F87025FFF725FF48B14FF08053B7
:100C60004FF08042D3F8583203F04F03C2F8E43E0D
:100C7000FFF718FF48B14FF08043D3F80024D207A4
:100C800044BF6FF00102C3F800244FF08053D3F843
:100C90003021062A0ED1D3F83431033B042B02D87D
:100CA000344AD35C33B1344AD2F83C3743F48063DE
:100CB000C2F83C372B4AD2F8883043F47003C2F8AC
:100CC0008830BFF34F8FBFF36F8F4FF08053D3F84F
:100CD0003021062A0FD1D3F83431033B042B02D83C
:100CE000264AD35C3BB14FF01023D3F808224FF0D3
:100CF0008043C3F858254FF01023D3F80022002A70
:100D000003DBD3F80432002B22DA1D4901234FF014
:100D10001020C1F804351524FFF7E6FEC0F80042A4
:100D2000FFF7E2FEC0F80442FFF7DEFE0023C1F841
:100D30000435FFF7D9FEBFF34F8F0A49114BCA683C
:100D400002F4E0621343CB60BFF34F8F00BFFDE7B7
:100D50000D4B0E4A1A6010BD0030014000C0074024
:100D60000DF0ADBA00ED00E000500040D63D0000AF
:100D700000C00040DB3D000000100040E03D0000EE
:100D800000E001400400FA05000000200090D003BC
:100D900030B585B0012514468DF80C008DF80D1086
:100DA00007480095022303AA3521FFF7BDFD28B9A6
:100DB00003482B4622463521FFF7CCFD05B030BD58
:100DC000FC3D00002738142821D8DFE800F00B1183
:100DD000201D0E2020202020202020202020201A2E
:100DE0002014170000231B88FFDE00239B88FBE7ED
:100DF00000231B7AF8E700239B79F5E70023DB79D2
:100E0000F2E700239B68EFE70023DB68ECE76FF075
:100E1000850070477FB5062234210320FFF7B8FF15
:100E200000BB072236210320FFF7B2FFD0B905230C
:100E30008DF8083010238DF80930012300930B48FA
:100E4000022302AA3521FFF76FFD034630B90B23B9
:100E5000064803AA3521FFF77DFD034618460BB966
:100E60001B80FFDE07B05DF804FB00BFFC3D000007
:100E70001FB50A4B0FCB6C4684E80F0000232146B8
:100E800007481A46FFF77AFC044620B90448FFF7E2
:100E9000D1FC237DFFDE04B010BD00BFEC3D00009F
:100EA000FC3D000070B52DED028B82B006460C466D
:100EB0001546FFF7AFFF002838DB69462720FFF70C
:100EC00081FFDDED017A9FED1B8AB8EEE77A694676
:100ED000C7EE087A2B209DED007AB8EEC77A77EE40
:100EE000877AC6ED007AFFF76DFFDDED017AB8EE87
:100EF000E77A6946C7EE087A28209DED007AB8EEB9
:100F0000C77A77EE877AC5ED007AFFF75BFFDDEDF4
:100F1000017AB8EEE77A0020C7EE087A9DED007AF4
:100F2000B8EEC77A77EE877AC4ED007A02B0BDECEE
:100F3000028B70BD0024744910B586B0194B05931F
:100F40000024CDE902440494FFF792FF002827DB38
:100F500004AA03A902A8FFF7A5FF002820DB694621
:100F60003820FFF72FFFDDED017ADFED0F6A0F4B21
:100F7000B8EEE77A2146C7EE267A02A89DED007A00
:100F8000B8EEC77AF2EE046A77EE877A87EEA67A31
:100F9000C3ED007A064B83ED007A00F05FFD20463A
:100FA00006B010BD6C3E00000024744954000020BF
:100FB0005800002070B58AB009AA08A907A8FFF751
:100FC00071FF041E05DA294800F046F920460AB0F0
:100FD00070BDDFED271A9DED091ADDED080A9DEDC4
:100FE000070A002000F080FD10EE106A00F0ACFD52
:100FF000204BD3ED000A204B10EE104A93ED000A6F
:10100000F1EE600AB1EE400A00F0A4FD079810EE80
:10101000105A00F063F802460B460998CDE9042304
:1010200000F05CF8CDE90201089800F057F8DDE91E
:101030000423CDE90001114800F00EF9304600F01C
:101040004DF802460B462846CDE9042300F046F849
:10105000CDE90201204600F041F8DDE90423CDE9A5
:101060000001074800F0F8F80024AFE7043E000054
:101070000050C34758000020540000202F3E0000BD
:101080004B3E00004FF4001C1CEB410F98BF1CEBC3
:10109000430F11D851EA030C50EA4C0C5CEA020CE5
:1010A0000AD004D282428B41804140427047904234
:1010B00099418041404270470020704742007FEADA
:1010C000525201D1020307D14A007FEA525201D1A4
:1010D0000A0301D10020704701207047C0F3C751B7
:1010E00091B142004FEA40704FEAD2014FEA31011C
:1010F00001F16051B2F17F4F38BF704701F160518B
:1011000018BF41F40021704710F0004100207047E3
:1011100010EE100A41000020B1F17F4F18BF50EBD4
:1011200000007047B0EEC00A704700BF00B510EE77
:10113000100A00F003F800EE100A00BD4FF07F43E4
:10114000B3EB400F22D9410008BF704703EA4002C9
:10115000120E7F3A14DB172AA8BF70474FF6FF73B1
:10116000C0F27F03D340184220EA030018BF10F0FA
:10117000004F08BF70474FF40001D140401870473E
:1011800010F0004F0CBF00200248704718BF024803
:1011900070470000000080BF0000C07F00B501461E
:1011A00010EE100A00F003F800EE100A00BD4FF038
:1011B0007F43B3EB400F98BF704713EA400207D05C
:1011C000120E7E3A0A6020EA530040F07C507047CD
:1011D0000A6000F00040704710B504460846A26857
:1011E0004AB12368616803F1010C8C4508BF0020F7
:1011F0008B4208D2D054E3682BB1216862689142D7
:1012000001D22146984723680133236010BD70B591
:101210004C1E09D41646C5B229463046FFF7DCFFFE
:10122000013CB4F1FF3FF7D170BD10F0100F08D1B1
:1012300008B510F4007F14BF30202020FFF7E7FF2F
:1012400008BD704700B5FFF7C3F8024B18445DF8BE
:1012500004FB00BF080000000FB410B586B008AB57
:1012600053F8044B0593002303936FF0004302935C
:10127000084B049300F0CAFB059A214601A800F030
:10128000A9F8044600F0C3FB204606B0BDE81040B4
:1012900004B07047D9030000037853B159B1014439
:1012A000034613F8012F12B18B42FAD10B46181ADC
:1012B00070470346FBE70346F9E7844640EA01032B
:1012C00013F0030F18D18446202A0BD32DE9F00721
:1012D000B1E8F807A0E8F807A2F12002202AF7D227
:1012E000BDE8F007042A07D351F8043B40F8043B5B
:1012F000A2F10402042AF7D2002A05D011F8013B1A
:1013000000F8013B013AF9D1604670478446002A53
:101310002DD010F0030F04D000F8011B013A26D0A5
:10132000F7E7C9B241EA012141EA0141202A12D37B
:10133000A2F120022DE9F0030B460C460D460E46A5
:101340000F4688468946A0E8FA03203AFBD2BDE85A
:10135000F00320320BD0042A05D340F8041B043AD2
:1013600005D0042AF9D200F8011B013AFBD16046EE
:10137000704700F1010110F0030F11D010F8012B9C
:10138000002A23D010F0030F0AD010F8012B002AF6
:101390001CD010F0030F03D010F8012B002A15D039
:1013A0002DE970004FF001324FF0803350F8044BBC
:1013B000A4EB020525EA04051D4000D1F6E7A0F1E3
:1013C000040070BC10F8012B002AFBD1A0EB010037
:1013D000704700002DE9F04F89B0074603920023C3
:1013E00003600C4614F8011B002900F0FC82DFF8B2
:1013F00018B5EBE2002507E05E2868D145F480557A
:1014000001E045F040051C46234613F8010B302847
:10141000F2D81F2837D9A0F12002102A33D801A111
:1014200051F822F003140000871400008714000014
:10143000691400008714000087140000871400005E
:101440006F14000087140000871400008714000048
:1014500075140000871400007B140000871400003E
:10146000871400008114000045F08005CBE745F4A7
:101470000045C8E745F02005C5E745F01005C2E77F
:1014800045F40075BFE72A2821D1039A111D039165
:10149000D2F800A0BAF1000FBCBFCAF1000A45F0B3
:1014A00010051878A31C2AEAEA7A2E2826D00021F3
:1014B000742847D07A2845D06C2800F0A8804C28A2
:1014C00000F0AB80682800F0B8801C463DE0A0F139
:1014D0003002D2B2092A88BF4FF0000AE3D84FF099
:1014E000000A0AEB8A0A303800EB4A0A13F8010BAB
:1014F000A0F13002D2B2092AF3D9D4E718782A2809
:101500000AD1039A111D03911168587802330029FA
:10151000CEDB45F48075CBE70133A0F13002D2B2C7
:10152000092A88BF0021F4D8002101EB810130385D
:1015300000EB410113F8010BA0F13002D2B2092AED
:10154000F3D9E4E71C4614F8010B002800F0578299
:10155000A0F12503DBB2532B62D8A0F12503532B56
:101560005ED8DFE813F076005D005D005D005D0091
:101570005D005D005D005D005D005D005D005D0083
:101580005D005D005D005D005D005D005D005D0073
:101590005D005D005D005D005D005D005D005D0063
:1015A0005D005D005D005D005D005D005D005D0053
:1015B0005D005D005D005D005D005D005D005D0043
:1015C0005D005D005D005D005D005D00EC005D00A4
:1015D0005D005D005D005D005D005D005D005D0023
:1015E0005D007B0021015D005D005D005D0021016B
:1015F0005D005D005D005D0095000F01D2005D00A3
:101600005D00A6005D001A015D005D00EE001C4655
:1016100014F8010B45F0010597E745F001051C465C
:10162000B54B1E68002E00F0CE8103AB01930091F4
:1016300053462A463946B047C5E11878682803D092
:101640005C1C45F0040580E745F008059C1C5878B3
:101650007BE725213846FFF7BFFDB4E1039B1A1D48
:1016600003921E780AF1FF3A3A4651462846FFF7A0
:10167000DCFD31463846FFF7AFFDA94619F0100FE3
:1016800000F0A1813A4651462020FFF7C0FD9AE1C3
:1016900015F0080F06D03A68039B191D03911B68CB
:1016A0001A7090E1039B1A1D03921B683A681A6036
:1016B00089E1039B1A1D0392D3F800808F4BB8F188
:1016C000000F08BF9846464625F4007915F4807F40
:1016D00016D04046FFF7E0FD0546AAEB050A3A465C
:1016E00051464846FFF7A1FD002DC7D016F8011B53
:1016F0003846FFF771FDA8EB0603EB42F6D1BDE7D4
:101700004046FFF736FE0546E7E7039B1A1D0392A6
:101710001B6815F0800F0CBF0026232645F480754A
:1017200008211A46002B00F02A8105AB4FF0000873
:1017300005F4005CA64660468C460146D2E045F4BE
:10174000005515F0800F1BD043F2780643F2580382
:10175000782818BF1E4615F4807F01D025F4007547
:1017600015F4804F32D0039B1A1D03921B6815F0AD
:10177000040F1FD01BB2002B20DA5B422D262DE078
:101780000026E8E715F0800F0CBF0026302615F480
:10179000807FE5D025F40075E2E715F4807F07D05F
:1017A00025F400750026DBE745F480450026D7E7E1
:1017B0000026D5E715F0080FDDD0DBB215F0200FBD
:1017C00061D115F0400F18BF202607E0039B1A1DBA
:1017D00003921B6815F0040F50D09BB215F4807F64
:1017E00014BF25F4007501215838202800F2AF807D
:1017F00001A252F820F000BF231700004F1900008B
:101800004F1900004F1900004F1900004F19000038
:101810004F1900004F1900004F1900004F19000028
:101820004F1900004F190000B31800004F190000B5
:101830004F1900004F1900004F190000B3180000A5
:101840004F1900004F1900004F1900004F190000F8
:101850004F1900008B180000231700004F190000DB
:101860004F1900004F1900004F190000B318000075
:101870004F1900004F1900002317000015F0080F42
:10188000ACD0DBB2AAE72B26A8E71A464FF0000837
:10189000002B5ED005A84FF0000803F0070330339B
:1018A00000F8013B08F10108D2081346002AF4D1E0
:1018B0004FE018464FF00008002B4AD04FF00008C8
:1018C00005F4004E4FF02C0973468E4619462FE062
:1018D00002F00F000A4C205C03F8010B08F101082C
:1018E000120906D00029F3D002F00F00054C205C4D
:1018F000F2E7744661462CE05C000020945400003E
:101900006C5400007C540000CDCCCCCC08AB03EB75
:10191000080CABFB0032D20802EB8203A0EB4303BE
:1019200030330CF80C3C08F1010809280DD9104699
:101930000029EBD008F00303032BE7D108AB4344A5
:1019400003F80C9C08F10108E0E7714601E04FF054
:101950000008A1EB080121EAE179AAEB090AAAEB48
:10196000080AFF2E0ED9AAF1020AC6F3072138464B
:10197000FFF732FCF1B23846FFF72EFC04E04FF0DF
:101980000008E6E7002E3DD13A4651462846FFF7CB
:101990004CFC3A4649463020FFF739FCB8F1000FBD
:1019A0000EDD0DF1140908F1FF38C84498F8001055
:1019B00046463846FFF710FCC14508F1FF38F5D11F
:1019C00015F0100F09D114F8011B61B125293FF45E
:1019D00011AD3846FFF700FCF5E73A4651462020A6
:1019E000FFF715FCEFE7BB682BB13A6879688A42CC
:1019F0003CBF00219954386809B0BDE8F08F4FF022
:101A0000FF30F9E70AF1FF3AB4E700BF70477047CB
:101A100010B504460146172000F008F800280CBF56
:101A200020464FF0FF3010BD7047704738B5044670
:101A30000D46FFF7F9FF074B1D6044F08004064B8D
:101A40001C601A461368002BFCD1FFF7EEFF014B18
:101A5000186838BD6400002060000020002837D0DE
:101A6000F0B5C36893B005467BB31B4C1B481C4FB5
:101A70000E4641F278720021FFF748FC0FCC0DF1C1
:101A8000080CACE80F000FCCACE80F000FCCACE8B2
:101A90000F0094E80F00DFF84CE08CE80F00E968D5
:101AA0000E4A9EED002AD7ED001A95ED021AD5EDEB
:101AB000010A95ED000A01AB02A800F01DF90EB174
:101AC000019B3360002013B0F0BD6FF01500FAE702
:101AD0006FF01500704700BF9C54000068000020A4
:101AE000100000200C00002010B510EE903A002BE2
:101AF000B5BF0F4B0F4B104A104A196812680446C5
:101B00000F4886B0C164826402AB01AA694600F046
:101B100063FC9DED000ADFED0B7A20EE270A2CB165
:101B20000299039A059B21606260A36006B010BD14
:101B3000040000200C0000200800002010000020FD
:101B4000680000200000C842014800F061BB00BFEF
:101B500068000020014801F049BD00BF6800002076
:101B600070B52DED048BD0ED007AD0ED019A90ED9B
:101B7000C87AF4EEC07AF1EE10FA79EEE79A0646EA
:101B8000F0EE408AB0EE609A0D461446B4EEC70AF5
:101B9000C0F29680F1EE10FAF4EEC07A71DBF1EE4D
:101BA00010FA66D4002395EDC85AD4EDC85AD4ED86
:101BB000C74A95EDC76AF0EE456AE5EE896AA4EE7C
:101BC000896A38EEC77A76EEC66A26EE877A87EE9D
:101BD000298A38EE058AA5EE898AEBB338EEE70A42
:101BE00080EE290AFFF7A2FA6FF04041D6ED007AA5
:101BF00078EEE76AF0EE007A86EEA97A70EE277A40
:101C0000B7EE006A70EE066AFDEEE77A37EE400A3C
:101C100017EE903AFDEEE67A0B4417EE902A0A444E
:101C200005EB830104EB830393ED007A91ED008AC9
:101C300005EB820504EB820476EE407A20EE088AFA
:101C4000D5ED006A20EE070A94ED007AA6EEA78A89
:101C5000A7EE270AA9EE008AB0EE680A00F04CFA57
:101C60009FED240A002808BFB0EE480ABDEC048BA3
:101C700070BDF4EEC78AF1EE10FA4CBF01230023C9
:101C800091E7F1EE10FA2DD40023D5ED005A94ED32
:101C9000006A94ED017AD5ED016AB0EE655AE7EE7F
:101CA000096AA6EE095A38EEE77A76EEC56A27EE9B
:101CB000267A87EE298A38EE258AA6EE098A8CE7ED
:101CC000F1EE10FAF4EEC07ABFF669AFF1EE10FA59
:101CD00005D5B4EEC70AF1EE10FA3FF57FAF9FEDE0
:101CE000058AB9E7B4EEC70AF1EE10FA4CBF01233A
:101CF0000023CAE7000000002DE9F04114462DED55
:101D0000068B4FF07E5222604FF0804262608AB0B4
:101D100040220D46014604F10800B0EE61AAF0EE43
:101D2000428A1E46B0EE408AF0EE609AB0EE419ACA
:101D3000FFF7C3FADF4AE049D2F800C0216500236B
:101D400084ED12AAC4ED138A6365A365E36504F10B
:101D5000600004F1C40E40F804CB8645C0F860C0B2
:101D6000F9D14FF07E53C4F828310023C4F82CC1B8
:101D7000C4F830C1C4F834C1C4F83831C4F83C31B7
:101D8000C4F840C14FF4B052294604F5A270FFF7E1
:101D900094FA95EDC97AD5EDCA6AB4EEE67AF1EE19
:101DA00010FA80F29F8100F14481B0EE476A01DDB4
:101DB000B0EE667AD5EDCB7AF4EEE76AF1EE10FA82
:101DC00080F29681B4EEE76AF1EE10FA00F14281FA
:101DD000B4EEE77AF1EE10FA40F33A81B0EE677AAA
:101DE0000322F0EE467AB4EEC79AF1EE10FA00F153
:101DF0003981B4EE679AF1EE10FAC8BFB0EE679A77
:101E000004F5805707F24473C3ED007A05F549786D
:101E100007F5E96383ED007A404687F84C2700F028
:101E200079F9F0EE400AB0EE490A01F01BFF404696
:101E3000F0EE408A00F0A0F9F0EE400AB0EE680A39
:101E400001F0F2FED5EDC97A95EDCA7AF4EE407A4A
:101E5000D5EDCB7AF1EE10FAB4EE407A0CBF012347
:101E60000023F1EE10FAF4EE407A8DF804300CBF46
:101E700001230023F1EE10FA8DF8053007A90CBFFD
:101E80000123002302AA01A8F0EE408A8DF8063053
:101E900000F0A4F90399002900F014810EDD07AACF
:101EA00002EB810104A852F8043B03F25D5305EBF9
:101EB000830391421B6840F8043BF4D19DED04AAD2
:101EC0007E4A07F5EA63A9EE8A8A1A6005F214537E
:101ED000D5EDCC7AD5EDCD9A93ED007AF4EEC87AB3
:101EE000F1EE10FA79EEE79A40F1A680B4EEC87AE6
:101EF000F1EE10FA40F3A080F4EE487AF1EE10FA19
:101F000000F0EE80B4EE487AF1EE10FA21D1012211
:101F100005F5805303F27451D3EDE35AD3EDE24A51
:101F200091ED005A03F5AE6393ED006AF0EE456A59
:101F3000E5EE896AA4EE896A38EE477A76EEC66ADB
:101F400026EE877AC7EE298A78EE858AE5EE898AB9
:101F5000CAB378EE677A87EEA90AFFF7E7F8D5EDFE
:101F6000CC7A38EE677AF7EE006AC7EE297A30EE5F
:101F7000267AB0EE006ABDEEC77A30EE066A17EE3A
:101F8000103ABDEEC66A05EB830303F5805393ED6B
:101F9000E35AD3ED695A16EE103A77EEC07A05EBA4
:101FA000830505F5805536EEE77AD5EDE38AD5ED64
:101FB000696A67EEA88A67EEA67AE5EE078AE5EE1B
:101FC000877AE9EE278A04F5BB54B0EE480A00F0A0
:101FD00093F807F25473DFED3A7A4FF081421A60BA
:101FE000002807F5EB6207F25C73C2ED007A18BFB8
:101FF000F0EE678AC3ED007A07F26473C4ED007AED
:1020000007F5ED61C3ED008A07F26C7207F5EE6328
:1020100007F2747781ED00AA82ED00AA83ED00AA91
:1020200087ED00AA86ED008A0AB0BDEC068BBDE8FC
:10203000F081B0EE666ABDE6F4EEC87AF1EE10FA11
:1020400013DAB4EEC87AF1EE10FA46D800225FE750
:10205000F0EE467AB4EEC79AF1EE10FA4FF00302B2
:102060007FF5C7AEB0EE479ACAE60022B4EEC87A52
:10207000F1EE10FA7FF64CAF05F58053D3EDE45A3C
:1020800093ED6A6AD3EDE56AD3ED6B4AB0EE655A1B
:10209000A6EE095AE4EE896A38EE677A76EEC56AEA
:1020A00027EE267AC7EE298A78EEA58AE6EE098A17
:1020B0004EE700BF140000200000A0400000404098
:1020C0000000000005F5AB51B0EE680A404618313B
:1020D00001F098FCB0EE40AAF2E65FED078A72E7E5
:1020E0000122C3E7F0EE477AB0EE479A012287E675
:1020F000F0EE467A022276E608B510EE100AFEF7F8
:10210000EDFF02460B46FEF7D9FF003818BF01204D
:1021100008BD00BF10B590ED000A0446FFF7ECFFC4
:1021200060B194ED010AFFF7E7FF00B394ED020AF6
:10213000FFF7E2FFC0B994ED020A10BD94ED000A6A
:10214000022303F18042013A04EB820000E0032302
:10215000F0EC017AF4EE407AF1EE10FAC8BFB0EE7E
:10216000670A022BF3D010BD94ED000A10BD94ED68
:10217000010A0323E5E700BF10B590ED000A04460D
:10218000FFF7BAFF60B194ED010AFFF7B5FF00B3A6
:1021900094ED020AFFF7B0FFC0B994ED020A10BD3A
:1021A00094ED000A022303F18042013A04EB82001D
:1021B00000E00323F0EC017AF4EE407AF1EE10FA3D
:1021C00048BFB0EE670A022BF3D010BD94ED000AB1
:1021D00010BD94ED010A0323E5E700BF30B40023EE
:1021E0000124146001389C4610F8014F0CF10105E0
:1021F00001333CB1022D41F82C3002DD556030BC7A
:102200007047AC46032BEFD16546556030BC704734
:1022100030B52DED048BD0ED4B7A634BF5EEC07AE3
:10222000F1EE10FA93ED009A8BB017D490ED188A66
:10223000D0ED318A044600F1640300F1C402B3EC2E
:10224000017AD3ED187A934238EE078A78EEA78A9E
:10225000F5D1B0EE480AFFF74FFF28B1B0EE490ABA
:102260000BB0BDEC048B30BD04F58D652846D4ED74
:102270004C9AFFF74FFFF0EE400AB0EE690A01F00A
:10228000F1FC2846F0EE409AFFF776FFF0EE400AA8
:10229000B0EE690A01F0C8FCD5ED007A04F26C4397
:1022A00093ED007A04F58E63F4EE407AD3ED007A74
:1022B000F1EE10FAB4EE407A0CBF01220022F1EEEA
:1022C00010FAF4EE407A0CBF01230023F1EE10FA6D
:1022D0000CBF012100218DF806108DF8042001A803
:1022E00002AA04A9F0EE409A8DF80530FFF776FFB8
:1022F0000398002847D054DD04AA07A902EB800503
:1023000052F8043B03F2BB5304EB8303AA429B68DD
:1023100041F8043BF4D101289DED070A09D0DDED19
:10232000087A032830EE270A04BFDDED097A30EE83
:10233000270A9FED1E7AD4ED4B7A20EE070AF4EEC1
:10234000C07AF1EE10FA08D594ED4F7AF3EE097ADF
:10235000B4EEE77AF1EE10FA1EDCC8EE287AF5EE5C
:10236000C07AF1EE10FA7FF579AF94ED4D7AB1EEC7
:10237000477A87EE279AB5EEC09AF1EE10FA48BF79
:102380009FED0B9A6AE704F5B751B0EE690A183170
:10239000284601F037FBCCE7D4ED4E6AC6EE877ACB
:1023A000DDE79DED070AC4E7140000200AD7A33C2F
:1023B000000000004A6852B1411EC0F101035818E4
:1023C000824206DD11F8010F0028F8D1704710464F
:1023D00070470120704700BF2DE9F04F2DED0E8BA7
:1023E00000F58056ADF5097DCDE90712099396F801
:1023F0004C3706F5E962012B92ED008A0446B0EEF7
:10240000409AF0EE608AB0EE41DAB0EE61AA05D0F3
:10241000B4EEC81AF1EE10FA40F1488704F58D6762
:102420003846FFF777FE3846F0EE409AFFF7A4FEF5
:10243000F0EE690AF0EE40AAB0EE480A01F012FC94
:10244000F0EE6A0A01F0F0FBD7ED007A04F26C437B
:10245000F4EE407AD3ED007A029304F58E63F1EE48
:1024600010FAF4EE407AD3ED007A03930CBF012307
:102470000023F1EE10FAF4EE407A8DF828300CBF0C
:1024800001230023F1EE10FA8DF829300FAA0CBFBA
:10249000012300231DA90AA88DF82A30B0EE40BA06
:1024A000FFF79CFE109B0593002B00F0EF8741F394
:1024B0006F80059B11A91DAA019102EB830052F8C0
:1024C000043B03F2BB5304EB830382429B6841F855
:1024D000043BF4D1F0EE690AB0EE480A01F0C2FB09
:1024E000F0EE6A0A01F0A0FB029BD7ED007A93EDB3
:1024F000007A039BF4EE407AD3ED007AF1EE10FA05
:10250000B4EE407A0CBF01230023F1EE10FAF4EE92
:10251000407A8DF828300CBF01230023F1EE10FA29
:102520008DF829301DA90CBF012300230FAA0AA88A
:10253000B0EE40BA8DF82A30FFF750FE109900290E
:1025400000F08F874FEA410A524641F3258032ABB3
:102550001DA800939E468B00069300EB81018446E4
:102560005CF8043B03F2AF5304EB830361459B68C3
:102570004EF8043BF4D1009B069D03EB050C50F88C
:10258000043B03F2B25304EB830388429B684CF88C
:10259000043BF4D1002A40F3AF8715462CABDDF89D
:1025A00000B0049399464FF00008BBEC010AFEF717
:1025B000B9FD08F10108C245A9EC010AF5DC002DBE
:1025C00040F3F5870499F1EE4ACA002391ED007AB1
:1025D000CCEE877A01339D42E1EC017AF6DCBAF168
:1025E000000F0CDD049D4FF0000895ED000A01F08E
:1025F00065FA08F10108C245A5EC010AF5D1F0EE33
:10260000690AB0EE480A01F02DFBF0EE6A0A01F00B
:102610000BFB029BD7ED007A93ED007A039BF4EE5F
:10262000407AD3ED007AF1EE10FAB4EE407A0CBFA6
:1026300001230023F1EE10FAF4EE407A8DF82830F1
:102640000CBF01230023F1EE10FA8DF829300FAAF8
:102650000CBF012300231DA90AA8B0EE40BA8DF8D3
:102660002A30FFF7BBFD109A002A00F0E78640F3FE
:1026700088871DA9DDF800C04FEA820A084601EBF1
:10268000820250F8043B03F2B55304EB8303824209
:102690009B684CF8043BF4D1009B03EB0A0051F813
:1026A000043B03F5B76304EB83038A429B6840F85D
:1026B000043BF4D1009B93ED00BAF0EE690AB0EE52
:1026C000480A01F0CFFAF0EE6A0A01F0ADFA029B77
:1026D000D7ED006A93ED007A039BF4EE406AD3EDE8
:1026E000007AF1EE10FAB4EE407A0CBF0123002319
:1026F000F1EE10FAF4EE407A8DF828300CBF012389
:102700000023F1EE10FA8DF829300FAA0CBF012337
:1027100000231DA90AA8F0EE409A8DF82A30FFF791
:102720005DFDDDF840B0BBF1000F00F079860EDDF5
:102730001DAB14A903EB8B0053F8042B02F2AD522E
:1027400004EB82029842526841F8042BF4D1009DB8
:1027500094ED170A554439EE400AD5ED00BAFEF75C
:10276000E1FCF0EE407A94ED150A30EE680A17EEBF
:10277000907AFEF7D7FC10EE105A2846FEF7AEFC12
:10278000F9A3D3E90023FEF77DFC70B13846FEF7CC
:10279000A5FCF5A3D3E90023FEF774FC28B1B5EE40
:1027A000C0DAF1EE10FA00F1E48606F5ED6393ED80
:1027B00000CA9FEDE77ADFEDE77A06F27473D3ED96
:1027C000009A69EE879A06F5EE63ECEE279AD3ED50
:1027D00000AA6AEE87AAF0EE006AE9EEA7AA06F55B
:1027E000E963D3ED007AB0EE6A7A99EEA67AF4EE58
:1027F000CD7AF1EE10FA8DED177A05D4B5EEC0DA88
:10280000F1EE10FAC0F252864FEA8B0214A917A813
:10281000FEF753FD4022002158A8FEF777FD06F28F
:102820005473D3ED007AFDEEE77A002217EE903A6A
:1028300020922192229223925A1E03EB820388A9AE
:1028400001EB83034FF07E5143F8C41C059B002B22
:102850004FEA82020DDD019B05999FEDBF7A03EBE4
:102860008101D3ED007A67EE877AE3EC017A994231
:10287000F7D1019B9FEDBEDAD3ED00DAD4ED157AE6
:102880000499069BD4ED006A91ED006A8CEEAD7A56
:102890000B4488A888AD67EE8D7AD3ED005A67EEB9
:1028A0008A7A20AB87EEAD0A1A44D4ED017A82ED24
:1028B000007AFDEEE77AB7EE00EA17EE903AFDEE09
:1028C000E67A591E17EE902A03EB810300EB83038F
:1028D00020A800EB8101501E02EB800205EB820272
:1028E0007EEE657A02ED316A3EEE466A43ED315A7C
:1028F00020AB03EB800080ED006AB1EE400AC1ED31
:10290000007ACDED275A01F0D9F806F5EA63D3ED48
:10291000007A9DED206ADDED216A9DED227A8DED34
:10292000386AFDEEE77A26EE0D4A17EE903ADDEDB5
:10293000237A8DED3C4A03EB830366EE8D4A27EE46
:102940000D5A67EE8D5A05EB8303F0EE40CA03ED96
:10295000350A94ED150ACDED396ACDED3D4A8DED80
:102960003A7A8DED3E5ACDED3B7ACDED3F5AFFF7E9
:10297000C3FB002800F0A784784BD4ED156A93EDD3
:10298000007A9FED7B6A2AEE066A06F5EA63C6EED8
:102990002D7A06F25C7238A958AFCDE902B778AD4E
:1029A0000DF1A00AA94638464FF0000E04F1400888
:1029B00092ED005A27EEEC6AD3ED007AFDEEE77A4D
:1029C00006F5EB63D3ED004A17EE903A03F2D552C9
:1029D00004EB8202D2ED007AF7EE005A7CEEE5CAF3
:1029E000E7EE875A5A1E01EB8303C3ED03CA04F5D1
:1029F000BB5366EE257A0093D3ED005A06F264735A
:102A000093ED006A20AB03EB8203C3ED007A9300E1
:102A100068AAD0ED041AD0ED082A90ED0C3AB0EC7B
:102A2000012AF1EC013A65EE217A91ED034AE2EEDA
:102A3000247A9346274627EE044AE2EEA57AA3EECF
:102A4000A64AE3EE067A77EE847AEAEC017AD7EDCD
:102A5000037A97ED024AD7ED043A61EEA77A103770
:102A6000E2EE047ADC460BF1100B97ED014AE2EE40
:102A7000A37AB845E3EE047ACCED007AE7D1B2EC64
:102A8000012AD2ED032A92ED073AD2ED0B3ACB465A
:102A900058AFB7EC014AD7ED037AD7ED071A97ED97
:102AA0000B1A62EEA77ADC46E4EE027A0BF1100B09
:102AB000E3EE217AE3EE817ACCED007A0DF5B87C75
:102AC000BC45E6D10EF1010EBEF1040F09F1040977
:102AD0009FD128AA1344D3ED000ABFEE000ADDE916
:102AE00002B701F0A1F806F5EA63D3ED007AFDEE36
:102AF000E77AF0EE400A06F2547AB7EE000A17EED3
:102B0000909A01F0AFF8DAED007AFDEEE77A28ABA3
:102B100009F1FF3903EB890917EE903A28AA02EB75
:102B2000830389ED000A53ED010A9FED0D0A01F0C0
:102B30007BF8DAED007AFDEEE77AF0EE400A17EE68
:102B4000909A9FED080A01F08DF8D4ED137A13E006
:102B500072F97F3F17B7D13800006145140000209B
:102B6000CDCC4CBD6666863FFCA9F1D24D62703F6C
:102B7000000000000000C8429DED204ADDED214A22
:102B80009DED225A9DED237A28AB09F1FF3903EB25
:102B900089090DF1800A27EE844A67EEA44A27EEE0
:102BA000855A27EE877A89ED000A58AB5246F2EC37
:102BB000017A24A964EE275A27EEA46A67EE856A93
:102BC00067EE877A9142C3ED005A83ED016AC3ED47
:102BD000026AC3ED037A03F11003E8D104F1080996
:102BE00005F140024B46F5EC017AB7EC017A77EE3D
:102BF000877AAA42E3EC017AF5D106F25473D3ED59
:102C0000007A94ED510AD4ED52DAFDEEE77A04F23F
:102C1000644393ED007A17EE903A28AA02EB8303FF
:102C200013ED01DAB4EECD0AF1EE10FA7DEEC0DA62
:102C3000C0F25783B4EEC7DAF1EE10FAB4EECD0A63
:102C400080F26583F1EE10FA00F18684002304F629
:102C5000841292ED007A04F5CC62D2ED007A04F58C
:102C6000186292ED006A04F25C62D2ED006AF0EE46
:102C7000465AA7EE887AE6EE885A7DEE407A37EE1D
:102C8000657A67EE877AC7EEADCA7CEE86CAE6EE55
:102C900088CA002B4AD03DEE400A80EE2D0AFEF78E
:102CA00045FA06F2547228A9F0EE007A70EE277AFF
:102CB000D4ED515AFDEEE77AF7EE006A17EE903A3E
:102CC000D2ED007AFDEEE77A30EE267A17EE902A02
:102CD00001EB820212ED016A36EE656ABDEEC77A3B
:102CE000C6EE2D7A04EB830303F67C1103F5CB6368
:102CF00017EE102A77EEC07A93ED007AD1ED00CA74
:102D000004EB820202F67C1302F5CB6276EEE76AF0
:102D100067EEACCA93ED006A67EE877A92ED007AAF
:102D2000E6EE26CAE7EE267AE8EE27CAB0EE4D0AAE
:102D3000FFF7E2F994ED017AD4ED007A5FED746A61
:102D4000BDEEC77A28AA17EE103AFDEEE77A02EB3D
:102D5000830313ED017A002817EE903A18BFF0EEC6
:102D600066CAE7EE6BCA02EB8303BBF1000F53EDBB
:102D7000017AE7EECBCA0DDD17AB019A03EB8B01AD
:102D8000B3EC017AF0EE6C7AE7EE687A9942E2EC05
:102D9000017AF5D106F25473D3ED007A5FED8CCA57
:102DA000FDEEE77A04F6C87217EE905A04F6A441D5
:102DB000F0EE480AB0EE4D0A04F5A270CDED20CA3F
:102DC000CDED21CACDED22CACDED23CA013DFEF7DE
:102DD000C7FE20ABD4ED006AD4ED017A03EB850584
:102DE00006F5EA6393ED006A85ED000AFDEEE66AFA
:102DF00020AA16EE903AFDEEC66A02EB830316EEA9
:102E0000902A20A9FDEEE77AB1EE4BBA01EB8202DF
:102E100042ED01CA03ED01BA17EE903AF1EE6BBA3A
:102E200001EB830343ED01BADDED206A9DED216ADC
:102E3000DDED225A9DED235AB0EE6C7A2346D3ED98
:102E4000037AD3ED024AD3ED043A93ED054A66EED8
:102E5000277A1033E6EEA47A9845FAEC014AE5EEBB
:102E6000A37AE5EE047AA7EEA47AE8D1D4ED127A3B
:102E700024AD37EE27BA04F118022B46B9EC014A0B
:102E8000D9ED037AD9ED074A99ED0B7A66EE277AE8
:102E90004A45E6EE847AE5EEA47AE5EE077A87EE17
:102EA0008B7AA3EC017AE9D15FEDCECABBF1000FBA
:102EB0006BEE2CCA40F3FE82019914AA0B4601EB7B
:102EC0008B004FEA8B091146F3EC017A79EE677AB1
:102ED0009842E1EC017AF7D114A91AAB9DED147A6E
:102EE00009EB01001946F2EC017A67EE277A90426D
:102EF000E1EC017AF7D101220DAF09EB03003A6052
:102F0000C7F804B00AAAF3EC017AF4EEEC7AF1EE19
:102F100010FACCBF01210021984202F8011BF2D126
:102F200039460AA8FFF746FA002800F02382DFEDB1
:102F3000DE7AF0EE67BACDED247AF0EE67DAB0EE25
:102F400067EAB0EE67DACDED257ACDED267ACDEDE4
:102F5000277A14AA4CA991440B46F2EC017A2DEE83
:102F6000276A6EEE276A2DEEA77A6BEEA77A914557
:102F700083ED006AC3ED016A83ED027AC3ED037A43
:102F800003F11003E9D140AB9DED284ADDED294A5C
:102F90009DED2A5ADDED2B5A4FEA0B1C01EB0B1E5F
:102FA00018460A4692ED006AD2ED016A92ED027A65
:102FB000D2ED037A36EE046A76EEA46A37EE057A2D
:102FC00077EEA57A1032964580ED006AC0ED016A71
:102FD00080ED027AC0ED037A00F11000E2D19C444A
:102FE0001A680A605A684A609A688A60103353F80F
:102FF000042CCA609C4501F11001F1D106F5EA6983
:10300000D9ED007AFDEEE77A88AA17EE903A02EB46
:10301000830353ED3D0ABFEE000A00F005FED9ED33
:10302000007AFDEEE77AF0EE400A06F2547AB7EE47
:10303000000A17EE909A00F015FEDAED007AFDEE28
:10304000E77A88AB09F1FF3903EB890917EE903A6B
:1030500088AA09ED3C0A02EB830353ED3D0A9FED7C
:10306000900A00F0E1FDDAED007AFDEEE77AF0EE8D
:10307000400A17EE909A9FED8B0A00F0F3FD09F1DC
:10308000FF3988AB03EB89092BEE0E4A6BEE2D4A14
:103090006BEE2B3A2DEE4B5A09ED3C0A2346F5EC2C
:1030A000017AD3ED025A93ED036AD3ED046A93EDEE
:1030B000057AE7EE855A1033A7EEC46AE7EEE46AB4
:1030C000A7EEE37A43ED025A03ED016AC3ED006A0D
:1030D00083ED017A9845E2D10123BBF1000FC7F8D7
:1030E00004B03B6010DD1AAB03EB8B0B0AAAF3ECC8
:1030F000017AF4EEEC7AF1EE10FACCBF0121002156
:103100009B4502F8011BF2D139460AA8FFF752F994
:10311000002800F0248106F25473D3ED007A94ED78
:10312000147AFDEEE77A17EE902A531E02EB830223
:1031300004EB8202D2ED017A67EE877A9B00C2ED42
:10314000017A06F5EB604C9FC4ED158A076006F224
:103150005C704D9D056000984E9A026003F50873FF
:1031600006F264724F9911606B44079A53F8F03C71
:10317000136006F25473D3ED007AFDEEE77A17EE92
:10318000903A03EB830304EB830313ED030A00F08F
:10319000FBFDF0EE087A20EE270A089B179A83EDD4
:1031A000000A06F26C7384ED179A1A6006F5ED6357
:1031B00083ED00CA06F5EE63C3ED00AA06F2747350
:1031C000C3ED009A94ED4B0AFEF796FF002800F03D
:1031D000DA80B0EE680AFDF7A5FF06F25476B0EE8D
:1031E000409A94ED4B0AFDF79DFF96ED007AD4EDE1
:1031F0004D6AC4ED4B8ABDEEC77AF1EE047A60EEFB
:10320000277A17EE103A88AAB4EEE79A02EB830306
:10321000D4ED4A7A13ED3D5A019A84ED4D5AF1EE00
:1032200010FAF7EE004A37EEA47ACEBF9FED1E6A81
:10323000D4ED4F5A94ED4E6A84ED4C8AFDEEE77A58
:1032400075EE666AC8BFF0EE465A17EE903A36EE53
:10325000866A7AEE257AB3EE094A04EB8303B4EE6C
:10326000447AC4ED4F7A84ED4E6A1168C3ED176A53
:1032700083ED30AA179A099BF1EE10FAC8BFB0EEA1
:10328000647A84ED4A7A19605A60C3ED02BA83ED1C
:10329000038A0DF5097DBDEC0E8BBDE8F08F00BFF4
:1032A000CDCC4CBD6666863F0000000006F244733C
:1032B00093ED008AB4EEC18AF1EE10FA58BFB0EE79
:1032C000418AFFF7ABB8D4ED156AF5EEC06AF1EEAE
:1032D00010FA00F10D8140F34881B0EE4E7AFFF70D
:1032E00050BB0CD5B4EEC7DAF1EE10FA07D5B4EE48
:1032F00047DAF1EE10FA7FF4CEAC01230CE0B4EE25
:10330000C7DAF1EE10FA06DA5FED19CA0EE5F1EE52
:1033100010FA00F11081002304F54A62D2ED005A40
:1033200004F67C1292ED006A04F6781292ED005ACF
:1033300004F69C42D2ED006AF0EE657AE6EE087A79
:10334000E5EE086A3DEE477A77EEE67A67EE877A31
:10335000C7EEADCA7CEEA5CAE6EE08CA99E406F24D
:103360005473D3ED007AFDEEE77A17EE903A013B05
:103370009B00E6E69DED24DA9DED25EADDED26DAFB
:10338000DDED27BAE5E5B0EE680AFEF7B5FE0028E8
:1033900040F0B880F5EEC08AF1EE10FA00F10E812F
:1033A00040F31281B7EE009A94ED4B0AFEF7A4FEAB
:1033B000002800F0B1808B4BD3ED007A69EE277ABC
:1033C000BFEE007AF4EE477AF1EE10FA7FF401AF27
:1033D000844B04F1C4011A6804F1600343F8042B20
:1033E0008B421A66FAD1FFEE007AB4EE679A002398
:1033F000F1EE10FAC4F83C31C4F8383140F0DB800B
:1034000006F25473D3ED007AFDEEE77A88AA17EE40
:10341000903A02EB830353F8F43CC4F84031D8E609
:1034200004F5B551B0EE690A38461C3100F0EAFAED
:103430004FF0010B8DED140AFFF789B9B0EE4B0A7E
:103440000BAA04F5B751384600F056FA009A9DEDE4
:103450000BBA0C9B536082ED00BA4FF0040AFFF7E1
:103460002CB904F5B65108310BAAB0EE4B0A384618
:1034700000F042FA0C9B0B9A339332A902250423E5
:1034800000913292AA460693FFF788B804F5B75127
:10349000B0EE4B0A1831384600F0B4FA11AB019384
:1034A00001238DED110A0593FFF714B84FF0010BBE
:1034B000FFF7B0B90DAF01233B6039460AA8C7F842
:1034C00004B0FEF777FF00283DD0DFED477AF0EE3D
:1034D00067BACDED247AF0EE67DAB0EE67EAB0EEC7
:1034E00067DACDED257ACDED267ACDED277A85E523
:1034F000BFEE007AFFF745BA2CAB6FF0004504939E
:10350000FFF760B8374B94ED4B0A93ED009AFEF746
:10351000F3FD00287FF44FAF94ED4B7ADFED327A64
:10352000B4EEE77AF1EE10FA4BD4D4BF69EE277A05
:10353000F0EE497A44E7B4EEC7DAF1EE10FA4CBF88
:1035400001230023E8E69DED24DA9DED25EADDED7B
:1035500026DADDED27BA51E5B4EEC7DAF1EE10FA5E
:103560004CBF01230023FFF772BBB0EE4D7AFFF78B
:1035700008BA07EE907A07EE105A87EE87CAFFF76F
:1035800018B9009B4FEA820A93ED00BAFFF795B88D
:1035900011AB0193FEF79EBFBAF1000F17DD8B0050
:1035A000069332AB4FF000450093FEF7F7BFF1EE04
:1035B0004ACAFFF717B8C4F840210AE6BFEE009ADE
:1035C000F2E6F1EE497AFBE69FED079AECE68B0016
:1035D000069332AB00932CABF1EE4ACA0493FFF78B
:1035E0000EB800BF14000020000000002DE9F041DB
:1035F0002DED048BBE4B90B0F0EE408A90ED4B0A5F
:1036000093ED009A0446B0EE608AFEF775FD30B97E
:10361000D4ED4B7AF5EEC07AF1EE10FA06DBB0EE9F
:10362000490A10B0BDEC048BBDE8F08104F58D664D
:103630003046D4ED4C9AFEF76DFDF0EE400AB0EE48
:10364000690A00F00FFB3046F0EE409AFEF794FD59
:10365000F0EE400AB0EE690A00F0E6FAD6ED007A24
:1036600004F26C4393ED007A04F58E63F4EE407A35
:10367000D3ED007AF1EE10FAB4EE407A0CBF0122DD
:103680000022F1EE10FAF4EE407A0CBF0123002381
:10369000F1EE10FA0CBF012100218DF806108DF813
:1036A000042004A902AA01A8F0EE409A8DF8053082
:1036B000FEF794FD039D002D00F0A48040F3B4803C
:1036C00004AA0AA98C46AE0002EB8507104650F802
:1036D000043B03F2AF5304EB8303B8429B684CF8FE
:1036E000043BF4D1881952F8043B03F2B25304EBC3
:1036F0008303BA429B6840F8043BF4D107AF0B4602
:103700008819B8463A460021F3EC017AB0EC017A08
:10371000013177EE877A8D42E2EC017AF4DC94EDA8
:103720004B0AFDF7FFFCF0EE409AB0EE680AFDF799
:10373000F9FC39EEC00AFDF7F5FCF0EE409AB0EE68
:10374000480AFDF7EFFCF4EEC09AF1EE10FA40F1F2
:103750009C8094ED180A04F1640304F1C402B3ECF4
:10376000017A9A4230EE070AF9D1FEF7C5FC00282B
:103770007FF455AFD4ED4E6A94ED4F7AC6EE877A5A
:10378000F5EEC07AF1EE10FA3FF549AFD4ED4D6A8F
:10379000B7EE007A37EE667AC7EE279AF5EEC09A52
:1037A000F1EE10FA3FF53BAF88EE280A00F062FA1E
:1037B000002D19DD07AA02EB85011346D3ED007A2F
:1037C00067EEC07AE3EC017A9942F7D101ABF2ECF3
:1037D000017AF5EEC07AF1EE10FA4CBF012000201C
:1037E000914203F8010BF2D10023AB4201AABFF6CC
:1037F00016AF11780133002975D0AB4202F10102F6
:10380000F7DB0CE707AF04F5B6513A46304608310E
:10381000B0EE690A00F070F8079A089B0A920B93C1
:1038200001250AA904266AE794ED4B0AFDF77AFC04
:10383000F0EE409AB0EE680AFDF774FC39EEC00A6B
:10384000FDF770FCF0EE409AB0EE480AFDF76AFC16
:10385000F4EEC09AF1EE10FA3FF57BAF88EE280A3D
:1038600000F008FA94ED4B0A80EE280A00F002FA04
:103870000023AB4201AABFF6D2AE1178013359B38F
:10388000AB4202F10102F8DBC9E688EE280A00F03B
:10389000F1F93E44D4ED4B7AB0EE408A87EEA80AA7
:1038A00000F0E8F93B4693ED007A60EE077AE7EE28
:1038B000487AE3EC017AB342F5D101ABF8EC017A36
:1038C000F5EEC07AF1EE10FA4CBF01220022B045AD
:1038D00003F8012BF2D1CBE79DED079ADFED057AD6
:1038E00039EE279A9BE69DED079A39EE899A96E67E
:1038F0001400002000000000F0B52DED0A8B87B009
:103900001746F0EE409A05466B4601F1180251F851
:10391000040B43F8040B8A42F9D1D5ED00BA95EDBA
:1039200002BA2C4605F10C06B4EC010AFEF7E4FBE2
:10393000A0BBA642F8D195ED019AD5ED007ADDED58
:1039400002AA9DED05AA9DED008ADDED038AB4EE85
:10395000E79AF1EE10FA0FD5F0EE686AB0EE487A09
:10396000D5ED02BAF0EE4A8AB0EE6A8AB0EE66AAE7
:10397000F0EE47AAB0EE67BAB0EE690ADDED01CA13
:103980009DED04CAFEF7B8FB60B11D4B93ED008AB4
:10399000F0EE488AC7ED018A87ED008A07B0BDECDA
:1039A0000A8BF0BD79EE6B6A7CEEC87A3BEE499AE1
:1039B0003CEE686A7AEEECAA3AEE4CAA87EEA67A5A
:1039C000CAEE895AC6EE267A8AEE096A75EEC75A99
:1039D0003BEE6BBA36EE676A85EE8B5AC6EE0B5A33
:1039E000A6EEC57AE6EEE57A39EEEB0AA5EE007AA8
:1039F000E5EE807AA7EE008AE7EE808ACAE700BF8C
:103A000014000020F8B52DED088BD1ED00AAD0ED03
:103A1000009A91ED02AA90ED029A04460D46F0EE4E
:103A2000408A064600F10C07B6EC010AFEF764FB7B
:103A3000E0B9B742F8D194ED018AD4ED007AB4EE42
:103A4000E78AF1EE10FA07D5D4ED029AD5ED02AA75
:103A500095ED00AAB0EE679AB0EE680A95ED01BA4E
:103A6000FEF74AFB38B1144B93ED008AB0EE480ADA
:103A7000BDEC088BF8BD38EE696A3BEE6A7A39EE28
:103A8000488A3AEE4BAAC7EE067A8AEE087A39EEF1
:103A9000699A37EE677A78EEE98AC7EE096AB0EE7E
:103AA0006A8AE6EE667AE6EEA87AA7EEA88AB0EE13
:103AB000480ABDEC088BF8BD1400002010EE103A47
:103AC000C3F3C750002800F08480002B10EE101ABA
:103AD00023F07F4223DDFF2800F08C80474B994282
:103AE00000F2858042F40002762825D8C0F17600E5
:103AF0001F286ED8024182FB0213023202EB6302DE
:103B00009210B2F1404226BF52004FF07A534FF06C
:103B10007C53403203EBD21300EE103A7047FF287B
:103B20005AD0374B99425FD842F400020029DBD0CB
:103B30007628C2F10002D9D9324910B582FB0113AF
:103B4000C0F1910E21FA0EF101F1010C5221A0F108
:103B5000710402FB01F1491203FA04F2E24041FA56
:103B60000EF1723802FA00F0C1EB5C010144264804
:103B70009B1A264A81FB000402EBA402244882FB24
:103B8000012400EBA400234A80FB010443FA0EF356
:103B900002EBA4022048214C82FB012E03F0070C0B
:103BA00000EBAE0054F82C2080FB0101491081FB92
:103BB00002100244634451004FEAD3035ABF7D33DD
:103BC00052007E334032DB0503EBD21300EE103A95
:103BD00010BDB7EE000A7047B2F5000FA1D041F456
:103BE000800300EE103A70479FED0D0A70479FED7D
:103BF0000D0A7047B2F5000FF1D170471772B1424C
:103C00004FACAEC2951D555C00B12B00B72A3B01ED
:103C100036C21A0700BEBF1EFC0BB958DC540000A8
:103C2000000000000000807F08B52DED028BF0EE53
:103C3000408AB0EE608AFDF76BFA20B1B0EE480A18
:103C4000BDEC028B08BDB0EE480AFDF761FA20B961
:103C5000F4EEC88AF1EE10FAF0DDB0EE680ABDECC1
:103C6000028B08BDB4EEE00AF1EE10FA58BFB0EED8
:103C7000600A704700B5B5EE400AF1EE10FA83B065
:103C800060D0B5EEC00AF1EE10FA51D401A8FDF7EC
:103C900085FADFED317AB4EEE70AF1EE10FA38DC9E
:103CA000B6EE007A70EE477A019BA7EE877A013B69
:103CB000F0EE476A87EEA60A07EE103A60EE007A49
:103CC0009FED266ADFED265A9FED265ADFED266A24
:103CD000DFED264A37EEC66AA7EEA55AE7EE866AFA
:103CE000DFED235A9FED236AE7EE855AA7EEA66A19
:103CF000B8EEC77AC5EE866A9FED1F5A66EEA77AC0
:103D0000A0EE270AA7EE240AA7EE050A03B05DF885
:103D100004FBF6EE007AE0EE277A9DED017AF0EEF4
:103D2000676AF7EE007A70EE677A87EEA60AC5E753
:103D3000FDF788FA114B9FED120A1B68036003B070
:103D40005DF804FBFDF77EFA0E4B9FED0D0A1B6834
:103D5000036003B05DF804FBF304353F02AC0E4290
:103D6000AE204ABF5112834120049C4383805EB938
:103D7000F93F80C2F55F40C40080313F8C540000A1
:103D8000000080FF90540000B1EEC00A70470000B0
:103D900011121314436F756C64206E6F7420696E7A
:103DA000697469616C697365206675656C2067610B
:103DB0007567652E0A00504D494320646576696336
:103DC00065206F6B0A00000000000000000000008A
:103DD0000338FDD870470000010101000000010117
:103DE0000000000001010000000000001B000000B6
:103DF0001A0000000000980102000000003000409E
:103E0000000000004572726F723A20436F756C6457
:103E1000206E6F7420726561642066726F6D20631E
:103E2000686172676572206465766963650A005629
:103E30003A20252E33662C20493A20252E33662C35
:103E400020543A20252E32662C2000536F433A200E
:103E5000252E32662C205454453A20252E30662CCF
:103E6000205454463A20252E30660A0000000000F7
:103E70000AD7A33B0AD7233C8FC2753C0AD7A33C81
:103E8000CDCCCC3C8FC2F53C295C0F3D0AD7233DFD
:103E9000EC51383DCDCC4C3DAE47613D8FC2753DB8
:103EA000B81E853D295C8F3D9A99993D0AD7A33D5F
:103EB0007B14AE3DEC51B83D5C8FC23DCDCCCC3DCA
:103EC0003D0AD73DAE47E13D1F85EB3D8FC2F53D35
:103ED0000000003EB81E053E713D0A3E295C0F3EC3
:103EE000E17A143E9A99193E52B81E3E0AD7233EF3
:103EF000C3F5283E7B142E3E3333333EEC51383E1F
:103F0000A4703D3E5C8F423E14AE473ECDCC4C3E4D
:103F100085EB513E3D0A573EF6285C3EAE47613E7A
:103F20006666663E1F856B3ED7A3703E8FC2753EA8
:103F300048E17A3E0000803E5C8F823EB81E853E9E
:103F400014AE873E713D8A3ECDCC8C3E295C8F3EBF
:103F500085EB913EE17A943E3D0A973E9A99993ECF
:103F6000F6289C3E52B89E3EAE47A13E0AD7A33EDD
:103F70006666A63EC3F5A83E1F85AB3E7B14AE3EEB
:103F8000D7A3B03E3333B33E8FC2B53EEC51B83EFB
:103F900048E1BA3EA470BD3E0000C03E5C8FC23E08
:103FA000B81EC53E14AEC73E713DCA3ECDCCCC3E18
:103FB000295CCF3E85EBD13EE17AD43E3D0AD73E27
:103FC0009A99D93EF628DC3E52B8DE3EAE47E13E35
:103FD0000AD7E33E6666E63EC3F5E83E1F85EB3E44
:103FE0007B14EE3ED7A3F03E3333F33E8FC2F53E53
:103FF000EC51F83E48E1FA3EA470FD3E0000003F5F
:10400000AE47013F5C8F023F0AD7033FB81E053F12
:104010006666063F14AE073FC3F5083F713D0A3F91
:104020001F850B3FCDCC0C3F7B140E3F295C0F3F0F
:10403000D7A3103F85EB113F3333133FE17A143F91
:104040008FC2153F3D0A173FEC51183F9A99193F0F
:1040500048E11A3FF6281C3FA4701D3F52B81E3F8E
:104060000000203FAE47213F5C8F223F0AD7233F0D
:10407000B81E253F6666263F14AE273FC3F5283F8E
:10408000713D2A3F1F852B3FCDCC2C3F7B142E3F0B
:10409000295C2F3FD7A3303F85EB313F3333333F8C
:1040A000E17A343F8FC2353F3D0A373FEC51383F0C
:1040B0009A99393F48E13A3FF6283C3FA4703D3F8A
:1040C00052B83E3F0000403FAE47413F5C8F423F09
:1040D0000AD7433FB81E453F6666463F14AE473F8A
:1040E000C3F5483F713D4A3F1F854B3FCDCC4C3F08
:1040F0007B144E3F295C4F3FD7A3503F85EB513F88
:104100003333533FE17A543F8FC2553F3D0A573F07
:10411000EC51583F9A99593F48E15A3FF6285C3F85
:10412000A4705D3F52B85E3F0000603FAE47613F04
:104130005C8F623F0AD7633FB81E653F6666663F85
:1041400014AE673FC3F5683F713D6A3F1F856B3F03
:10415000CDCC6C3F7B146E3F295C6F3FD7A3703F83
:1041600085EB713F3333733FE17A743F8FC2753F04
:104170003D0A773FEC51783F9A99793F48E17A3F81
:10418000F6287C3FA4707D3F52B87E3F0000803F00
:104190000000A0400000C84100003442295C3F40BC
:1041A00000004040D7A34040AE47414085EB41402E
:1041B0005C8F4240333343400AD74340E17A444066
:1041C000B81E45408FC24540666646403D0A47409E
:1041D00014AE4740EC514840C3F548409A994940D5
:1041E000713D4A4048E14A401F854B40F6284C400B
:1041F000CDCC4C40A4704D407B144E4052B84E4044
:10420000295C4F4000005040D7A35040AE4751407A
:1042100085EB51405C8F5240333353400AD75340B3
:10422000E17A5440B81E55408FC2554066665640EC
:104230003D0A574014AE5740EC515840C3F5584022
:104240009A995940713D5A4048E15A401F855B4058
:10425000F6285C40CDCC5C40A4705D407B145E4091
:1042600052B85E40295C5F4000006040D7A36040C8
:10427000AE47614085EB61405C8F62403333634001
:104280000AD76340E17A6440B81E65408FC265403A
:10429000666666403D0A674014AE6740EC51684070
:1042A000C3F568409A996940713D6A4048E16A40A7
:1042B0001F856B40F6286C40CDCC6C40A4706D40DF
:1042C0007B146E4052B86E40295C6F400000704015
:1042D000D7A37040AE47714085EB71405C8F724050
:1042E000333373400AD77340E17A7440B81E754087
:1042F0008FC27540666676403D0A774014AE7740BF
:10430000EC517840C3F578409A997940713D7A40F4
:1043100048E17A401F857B40F6287C40CDCC7C402C
:10432000A4707D407B147E4052B87E40295C7F4063
:1043300000008040EC518040D7A38040C3F580400E
:10434000AE4781409A99814085EB8140713D824022
:104350005C8F824048E18240333383401F85834035
:104360000AD78340F6288440E17A8440CDCC84404B
:10437000B81E8540A47085408FC285407B1486405E
:1043800066668640AD9E1EBB4DAE09BB7EDFF3BAAE
:104390000E2DDCBA3598C9BACA07BABA01B0ACBAA0
:1043A0001EA6A0BA295F95BA3E9489BAA27978BAB6
:1043B0001B7758BA57B331BA5D9007BA89F5C0B9BF
:1043C0003EC383B9F41234B9E5A9FDB843FEBCB8C5
:1043D000B05696B859CE7DB8B39D61B8A6AC54B866
:1043E000BED657B85BED66B81D5083B856379DB83A
:1043F000B7D2BFB837FAEDB843CE12B9A0AC2FB9D7
:1044000055B648B9094B5BB95EED66B911B36BB9E6
:10441000422A6BB9387867B99A6365B9BF9A64B9AB
:10442000F63F65B9895766B97D5166B9AE3A66B946
:104430004B7365B97C2F64B9BFFF5FB930D158B9F0
:1044400033D253B9AFA64BB98D4E45B900CF46B95B
:1044500009A64BB983924FB90D7852B9CA5355B9D1
:10446000754958B9C4B15AB9E6FF5BB9910B5CB94B
:10447000FCBE5AB9E00558B9ADCD53B96D1A4EB965
:104480000E2547B9F9253FB9220536B9207C2BB94D
:10449000B2581FB9958711B924F801B98D55E1B803
:1044A000B75EBBB8BAC392B863F252B8D31F03B8B1
:1044B00084B766B76D60BE3547806437C30DBE37BD
:1044C0009881EE3716D40238648803389083F63723
:1044D000766DD7370514AD37611E753733E805376C
:1044E000F3388C350EEACBB6E6735DB717A8A7B7DD
:1044F00002FFDAB7A9D604B8C4D01CB8C5A537B82E
:1045000002E353B82BF06EB81A5683B850178CB824
:10451000A15190B8109C90B844998EB8C16C8BB8DA
:1045200080F886B87E4881B8CCD775B84CFF68B89B
:10453000B9C35BB8C97B4CB833D53CB8471D32B85A
:10454000A41E2FB872EF2FB833852FB8E12C2DB8E9
:104550003D0A2AB83F4427B8724326B8E76828B80E
:10456000CC692DB8997C34B855D93CB89EEA45B889
:10457000A28D4FB852555AB8E6F866B8A73176B84A
:10458000EA7784B8B56390B83220A0B84602B5B8CF
:10459000094CD0B83198F1B8CD400BB9C8F91DB964
:1045A0004B652FB96B003EB9AB6249B918FE51B9E2
:1045B000362258B9F41B5CB9823A5EB934EF5EB961
:1045C0007D935EB94A525DB9EC545BB9E9C558B9FF
:1045D00098DF55B989D952B9AFE14FB9D3254DB953
:1045E0009FC54AB9064348B9FD3645B9A27941B9D4
:1045F00067E33CB9C15037B9FDBF30B9211629B9BD
:104600009D2720B9E1C815B907D509B91833F9B8FC
:104610001A77DEB8F211C6B8829FB2B8C077A6B8D2
:1046200008C3A1B83AC0A3B809B6ABB825EBB8B86F
:10463000A4CBCAB88C62E1B81549FCB8597F0DB952
:104640006A811EB923ED30B9048944B9EC0D59B91A
:1046500037336EB921D881B9FCA38CB98C8497B952
:104660008D91A2B9E0E2ADB96B90B9B956AFC5B9B9
:10467000BE43D2B9AA4ADFB910C1ECB9E9A3FAB96D
:10468000FE7A04BA04F30BBAB6DB13BAD9561CBAD5
:104690002F8625BA7C8B2FBA84883ABA0A9F46BAED
:1046A000D1F053BA9D9F62BA95E14840BF164C4085
:1046B000A6C94E40A51651406119534038E25440F6
:1046C000B0785640A2E9574013355940225B5A4012
:1046D0002E5D5B40A2355C402BE05C40FF605D409E
:1046E00053C45D4017155E407A595E40E9965E40BE
:1046F00017D05E40F8055F4028395F40E5695F40AC
:10470000AA985F4029C75F40B9F55F408F25604098
:10471000AB5760409E8C60409BC56040CA036140BF
:104720001B466140258A614094CE61401B12624065
:10473000BD5362406493624050D162406E0E63404C
:10474000704A6340FF8563405BC16340D9FB6340AF
:10475000D43564404B6F6440A7A764401ADE6440C0
:10476000E9126540C4466540B876654078A7654063
:10477000A1DC6540F7126640EC476640EF7B66407F
:104780000FB06640ABE466409B196740C74E674078
:104790004B84674048BA6740C3F06740B42768401D
:1047A000095F6840C6966840FACE6840AB0769402A
:1047B000CA406940407A694006B4694024EE6940C5
:1047C000AF286A40B8636A405A9F6A40CFDB6A40AC
:1047D00045196B40CE576B408B976B40CED86B40E2
:1047E000DB1B6C40B2606C400EA76C40B9EE6C40B5
:1047F000AE376D40ED816D405FCD6D40E9196E4083
:104800005E676E4076B56E40F6036F40D4526F40DF
:1048100010A26F4074F16F40A5407040728F7040DD
:10482000CCDD70407B2B71403D787140EFC371400F
:10483000620E7240345772401D9E724007E3724010
:10484000F8257340E5667340EEA5734049E3734075
:10485000091F744005597440269174400AC8744079
:10486000AEFE744069357540846B75404CA0754050
:10487000D3D3754077067640963876408E6A764078
:10488000B29C764005CF764079017740013477407D
:104890009066774027997740E7CB7740F4FE7740E2
:1048A00075327840926678409A9B784011D2784071
:1048B000820A7940764579404C83794009C4794031
:1048C0006D077A40324D7A4018957A400EDF7A4073
:1048D0001C2B7B402D797B402CC97B40051B7C40E9
:1048E000A16E7C40A5C37C4084197D40B16F7D40A2
:1048F000A2C57D40D11A7E40C76E7E4010C17E4069
:1049000038117F40C75E7F403AA97F406FF07F40FB
:10491000371A8040A33A804081598040D576804044
:104920008B92804089AC8040B5C48040F7DA8040EB
:1049300059EF804040028140221481407625814019
:10494000AE3681401B488140F9598140826C8140DC
:10495000F27F8140859481406EAA8140BFC1814031
:1049600084DA8140CAF481409D108240052E824045
:10497000004D82408B6D8240A48F82404BB38240B9
:1049800084D882405AFF8240D52783400152834019
:10499000E57D834087AB8340EBDA8340140C844091
:1049A000063F8440C873844076AA844038E384403C
:1049B000361E8540985B8540869B854028DE854075
:1049C000A5238640266C8640D2B78640536220419C
:1049D000B5A91341E5FAF9409592D740B2C2BD405E
:1049E000689DA840BB7297403DCB884015567440E7
:1049F000ACAA5740B0593940B52A17401EE1E93FEB
:104A0000AC3FB23F58B28C3FAE0C693F96D84A3F9C
:104A1000CB54393FFA862D3F0D2A243F9D221C3F5F
:104A2000173C153F80BA113F0C67113FEA7E133FD8
:104A3000D509193F3F07213F1DC72B3F13353A3F8B
:104A400009C8483FD6EE513F973D553FB76F543F99
:104A5000F20F503FDE014A3F0335443FA13F403F44
:104A600031433D3FA1D33A3F2DCF393F2324383F37
:104A7000ADFC353FA562343FCAD9313F90222D3F6E
:104A80001E96273F5B8A233F94F31B3F2D19173F48
:104A9000FF3B1F3F64F6273F4EA6273F6402243F9B
:104AA000C6B5223F65A6233F72EA243F61CB253F6E
:104AB00072B4263F81FA273F487B293FAAF72A3F55
:104AC000624D2C3FBE8C2D3FFCE72E3F8465303F6E
:104AD000F7D4313F2C09333FEF0D343FC814353F35
:104AE000EB47363FB4B6373FBC6A393F26A33B3F5E
:104AF000387F3E3FCFBF413F5F4E453F258F493F07
:104B0000DEBC4E3F6554543F527F593F23EB5D3F1F
:104B1000A7FA613F5900663FAAE3693F087A6D3FF3
:104B2000999E703F550D733FDBAC743FBCE2753FFF
:104B3000AC08773FFDD8773F11CA773F58DD763F05
:104B4000D88B753F6BCE733F7151713FC4346E3F4C
:104B500006996A3F431C663F8D94603F3C795A3FFB
:104B60007E45543FD90A4E3F97F0473F4D5D423F47
:104B7000853A3D3FADF5373F4C4D323FA1762D3F55
:104B8000AB242B3F7BE42A3F6B0E2A3F1403273FC5
:104B9000FBFB223F01A41F3F9C6F1D3FCB631C3FCB
:104BA000986B1C3FE5F81C3F07781D3F12CA1D3F5C
:104BB000DEF21D3F690B1E3F13581E3FC2101F3F00
:104BC0006A3E203F9DE6213F6549243F2CF6273F62
:104BD000C14A2D3F784D343FFEBB3C3F78C6453F30
:104BE00010734E3F8D50563F945B5D3F9DE7633F92
:104BF000E4656A3F99CF703F84F9763FD8E17C3F06
:104C00009E43813FBFBC833FA580853FF569863FBA
:104C10000F78863F5FB0853F5F24843F58E1813F36
:104C200090D07D3F336E763F40846D3FCE95633F9D
:104C3000FB81593FCE914F3FB9C6453F4A1A3C3F91
:104C40003E3D323FBFD2273FA5C51C3F1918113F3B
:104C5000C23D053FB685F53E5BEBE53E8C13DC3E81
:104C600008EAD73E1388D83E7B93DC3EFA82E33EC7
:104C70000155ED3EE312FA3E73C5043F0F560D3F5A
:104C80007543163FC6801F3F190E293FFFD8323F9C
:104C900001B43C3F6A82463F7542503F64F7593F3A
:104CA0001BBB633F38AF6D3FE8DE773F2F25813F69
:104CB000FF77863F72E18B3F2759913F56DC963F45
:104CC000F76A9C3F5309A23FADDEA73F3E1FAE3FB0
:104CD00068DCB43F4D16BC3FECCCC33F4600CC3F34
:104CE0005AB0D43F28DDDD3FB186E73FA47AEC3FE0
:104CF0005ADE823D4E45653D93742C3DC51E043DF4
:104D0000E568D53C43ABB43C73A29E3C4BB9913CA7
:104D1000BB2F903CA4169D3C4D6AB73CAB2BDD3CB1
:104D200013D1FC3CC9D0FD3C11C2D93CD7D0A03C2A
:104D30006795553CF9B6053C0472A13B2708423BF8
:104D4000F990EA3A5089803AE76D7439E028E4B97D
:104D5000A53592BA0E7A02BB20183DBB00617CBB20
:104D6000550B9FBB7D24B1BB3875A8BB094F88BBD1
:104D7000F6D73CBB6314CDBA9AE4D3B9537ED3398A
:104D80007D66103A9F418F391BC15E37F0BE2DB949
:104D900013B2D5B8B55934370097AD38A25F4C3946
:104DA000BD48083AB21A8E3A5139983A5593A43A06
:104DB000996DB53A0F20F2391A8B1EBAC8175BBA33
:104DC00068822ABAE6DF0FBA1E7311BA7C2D06BAC2
:104DD00010A2B9B91C1407B906B7FA389D1CC93915
:104DE000B5902D3A3EFE773AC33B9E3AAFEFBA3AC2
:104DF000010FD63A12CBF53ABFB50D3B6338223BD3
:104E0000769B373B0E644D3BE3C6623BB287753BF6
:104E100041ED7F3BEDC17D3B0C7B6F3B6F2D563BE6
:104E2000CB61333B0B2F0B3B4726C23A88C25F3A1C
:104E3000E87E9939A0493DB960DE14BA937C65BA21
:104E40004C1B91BAE0D1A5BA2CCEB1BAD644B8BAAF
:104E50001BB4BABA364FB6BAE72BA9BA2C2899BAFE
:104E6000F3DD93BA37C79EBA0019ACBA7FC8ACBAA3
:104E7000BEB49EBA2DE380BA154822BA86ED61B958
:104E80006704AC38AF9E81391AB3BE398D8AFD39BB
:104E9000879D163A8FCE1F3A79FD223AEE35323A87
:104EA000C252413AAFCE243A046AAB3922E75938AC
:104EB000FE3F20B771008A380F020939C6B713398F
:104EC0009CD3BC3817A3E4B7D4BE32B931F696B937
:104ED00033F2C0B942DFD9B9BECDE9B9C635FFB9A1
:104EE0006C5E12BA15212EBA514754BAFF1385BA17
:104EF000BEDBACBA0FDFE4BA018916BB7D543DBB03
:104F000063675BBB885D68BB17E461BB7D2948BBF9
:104F1000986F22BBF8E2F9BA485AB8BA69EA7CBA83
:104F20006F5F18BA8A428DB9B7080BB84A4B21395E
:104F30006538A239F96AE3394075083A6A15143AB6
:104F4000C3CB153AB58C0E3A0E7BFF390D4CF439B4
:104F5000C4ED0A3AD0AA293AB429503AF2FD7D3A72
:104F6000A8BA973AD2DCB13AB370CF3A9F45F13A3A
:104F70002C840B3BD2671D3B393F263B97C71F3B19
:104F8000BD01093BBA83C53AF2C3523A33D8073957
:104F900014BBF8B93C4C84BA0C47C2BA42EAFCBA1A
:104FA00002A81ABBF80734BB74444ABB2E6E5DBB23
:104FB00086AF6DBBE9CC7ABBDE3382BB4C3B85BB95
:104FC000DEA086BBA07587BBC50C89BB8BCD8BBB18
:104FD000ECB88FBBDEBD94BBCB609ABBD00AA0BB44
:104FE000418FA5BBC8EDAABBC44AB0BB3FDDB6BB71
:104FF000F838C0BBE5DFCCBBE8D2DCBBFF11F0BBAF
:10500000954E03BC363A10BCE1CB1EBC96032FBCB8
:10501000F38837BC00000000000000000000000022
:105020000000000000000000EA009A36428CCE37F3
:10503000244C3B3814A9873816ACB13817AFDB388D
:105040000DD9023992281C39FA83353962DF4E397D
:10505000C4C2593992B3583942AE5B39788B5F3943
:10506000AE68633931806439C31566391B346A39D7
:1050700073526E39257970397C1A733923D0763999
:10508000CA857A39B8A57C39940280394CB2813905
:10509000F335833972C08439F24A86394923883915
:1050A000E2998939E2B78B397AF48C39CA1E8F3983
:1050B0001DC18F39347D9139BDED90399D209139D5
:1050C000E7AA8E3944B38B393761863946B17839CE
:1050D000735559392D1D2E39278DF1382DDEBF38E6
:1050E0004CF8F93877F956398BF38839B4B49439D8
:1050F000A4299A39E476A039A749A3392FF1A23916
:10510000540FA5390832A339325EAD39FD0EAA39E4
:105110001B489C39E650883926DB6039D44527394D
:10512000ED6FCF386ADE2B38B8AD8BB6EA04F9B72D
:10513000375117B8BB66EEB7026166B7D133453653
:105140004645A03731DD0838E24445380D708638D1
:10515000B78FA03877B3A7389CD3A73818CD9D3820
:105160003F9D8D38A7D283382E228938260C893866
:1051700094119B384FEDB53823F6E0383DC81D3902
:10518000A75656399AEF6C39D50C6C39D34464392B
:10519000ED815B392FC25439FBBB503917025139AD
:1051A00073DB573928A96239E2066A39387C6B39D2
:1051B0001D645F39F5933C3919C34739493F81393B
:1051C00013F79E393430B33936D2C03904C4CB39E1
:1051D00070B6D5393FBADE39BAE5E6390C1DEF397C
:1051E0009244F739A99CFF398580043AA9DAE93954
:1051F0008D5A9839F1EB153954EE31360000000024
:10520000000000000000000000000000000000009E
:10521000AB9660B89B9B96B9309208BA619411BA6C
:10522000BFB908BA38BEFFB9F308EEB91C70F5B9BA
:105230009B1CFDB94C5CF4B90ED5E43860F1923A90
:10524000D9D8083BD593473B2921843B9D09A93BED
:105250000266CF3BDFD5F43B2E610D3C0853223C68
:105260000A88383CAE8A4E3CF22D653C45337E3C84
:1052700007BF8B3C25A7983CD8A0A63CF502B53CBF
:105280006BAAC33C8D5AD33CA459E33CF526F43CAD
:1052900096F7023DF30D0C3DAFFD153D550E203D3B
:1052A000D63C2B3D45EE363DDBD3433DB765523D05
:1052B000840A633D085B773D56DB883DC8E49A3D30
:1052C0007764B43D5D3BD43D5C7FF73D65B70B3EF5
:1052D0007B3F193E57E2253E08D9323E927B403E45
:1052E0007AA74E3E02485D3E8ABE6C3E5C427D3EE1
:1052F0001689863E3A9A8E3EE48B963EC4469E3E82
:1053000002CFA53E2D2CAD3E335CB43EC949BB3E19
:1053100011E9C13E4636C83E222CCE3E76E0D33E51
:105320007A65D93E1EC6DE3E3116E43E4D63E93E47
:10533000B0AFEE3E9A12F43ED1A3F93E5677FF3E4F
:1053400021D3023F4C28063F3FBF093FE58A0D3F6E
:10535000677D113F93A5153FAFCD193FF4F11D3F78
:105360009203223F38D7253FB846293FA66D2C3FF0
:10537000065E2F3F391D323F47B6343F7433373F07
:1053800052A4393FB1163C3F6E983E3F423F413FE9
:105390001229443FD369473FDE304B3F0DE84F3F72
:1053A000A9A3553F98FB5A3FF9515F3F9EF9623FD1
:1053B000BE2E663FB70C693FB9A96B3F7B136E3FAA
:1053C0001454703FB46F723F406C743F6E4C763F24
:1053D0005A11783FF6F8793F04157C3F5E187E3FFE
:1053E00057F97F3FD810913F576F363FD207FB3EAA
:1053F00004698642B7A76B426798484229B7804440
:105400000E3F834489497444DB01253F553DAF3E3F
:1054100035AF5B3ECCB2033FE673863E09FD233ECB
:1054200017438C3EC9AC8B3EF7D8893E4578616DF9
:10543000706C65000000000000000000000000002B
:10544000000000000000000000000000000000005C
:10545000000000000000000000000000000000004C
:105460000000000000000000000000003031323376
:1054700034353637383961626364656630313233CA
:10548000343536373839414243444546210000001F
:1054900022000000286E756C6C290000BD3786352F
:1054A00000000000000000000000000000000000FC
:1054B000BD3786350000000000000000000000003D
:1054C0000000000077CC2B3200000000000000003C
:1054D000000000000000000017B751390000004034
:1054E000F2E0CA4529F81B4C556BFF52CD3C412DCB
:0C54F00084CA5931333FD135BA31B03A8B
:1054FC000090D0039A99993E9A99993E6F12833AEB
:08550C00A69B443B0000C07F98
:040000030000037581
:00000001FF
