:1000000000000120750300005D0300005F03000095
:1000100061030000630300006503000000000000AE
:100020000000000000000000000000006703000066
:1000300069030000000000006B0300006D03000076
:100040006F0300006F0300006F03000079370000AA
:100050006F0300006F0300006F0300006F030000D8
:100060006F0300006F0300006F0300006F030000C8
:100070006F0300006F0300006F0300006F030000B8
:100080006F0300006F0300006F0300006F030000A8
:100090006F0300006F0300006F0300006F03000098
:1000A0006F0300006F0300006F0300006F03000088
:1000B0006F0300006F03000000000000000000005C
:1000C0006F0300006F0300006F0300006F03000068
:1000D0006F0300006F0300006F03000000000000CA
:1000E0000000000000000000000000000000000010
:1000F0000000000000000000000000000000000000
:1001000000000000000000000000000000000000EF
:1001100000000000000000000000000000000000DF
:1001200000000000000000000000000000000000CF
:1001300000000000000000000000000000000000BF
:1001400000000000000000000000000000000000AF
:10015000000000000000000000000000000000009F
:10016000000000000000000000000000000000008F
:10017000000000000000000000000000000000007F
:10018000000000000000000000000000000000006F
:10019000000000000000000000000000000000005F
:1001A000000000000000000000000000000000004F
:1001B000000000000000000000000000000000003F
:1001C000000000000000000000000000000000002F
:1001D000000000000000000000000000000000001F
:1001E000000000000000000000000000000000000F
:1001F00000000000000000000000000000000000FF
:10020000354936480A1A02D0072291438D463449AF
:1002100034480A1A06D00722914381F30988022242
:1002200082F3148830483149314A00F044F83148AB
:100230003149324A00F03FF831483249324A00F041
:100240003AF832483249334A00F035F832483349F7
:10025000334A00F030F833483349344A00F02BF881
:1002600033483449344A00F026F8344834490022EF
:1002700000F02CF833483449002200F027F83348C6
:100280003349091A082902DB002202604160314A21
:1002900090471F481F49884205D00268043003B4C4
:1002A000904703BCF7E700208646EC46002000217B
:1002B000294A9047FEE7884207D0521A05D00378B2
:1002C00001300B700131013AF9D17047884202D0F8
:1002D00002700130FAE770470000012000E00020C2
:1002E000000001200000012014AC000000000020EC
:1002F0008C000020D0030000D0030000B487000071
:1003000014AC00000000002000000020E88700007E
:10031000E8870000E8870000E8870000E887000021
:10032000E8870000E8870000E887000014AC0000C0
:10033000A0AC00008C0000208C0000208C0000206D
:100340006420002064200020682000206820002015
:10035000684000209D03000035380000FEE7FEE7FE
:10036000FEE7FEE7FEE7FEE7FEE7FEE7FEE7FEE765
:1003700000F002B8FFF7FCBF0F484FF007018843B9
:1003800085460E4880470E48016841F470010160BF
:10039000BFF34F8FBFF36F8FFFF732BF09480A4992
:1003A0000A4A884207D0521A05D0037801300B70F0
:1003B0000131013AF9D1704700000120ED3E000003
:1003C00088ED00E0E8870000000000200000002029
:1003D000004870475C20002000B583B00190009178
:1003E000019B1B681B6800990198984700BF03B0E8
:1003F0005DF804FB00B583B00190019B1B685B684E
:100400000198984700BF03B05DF804FB00B583B0C6
:100410000190019B1B689B680198984700BF03B03F
:100420005DF804FB82B00190019BDB6801225A71E8
:1004300000BF02B0704782B00190019BDB685B791E
:10044000184602B070470000024A034BD31ADB087B
:1004500018467047C4870000B487000000B587B015
:1004600001900B468DF803309DF80330002B1FD010
:10047000FFF7EAFF04900023059313E0059B9B0020
:100480000E4A13440393039B1B881A46019B1B6867
:100490009A4204D1019B059A1A60002309E0059B4A
:1004A00001330593059A049B9A42E7D3052300E0A4
:1004B0000023184607B05DF804FB00BF00000020D1
:1004C00000B585B001900B468DF803309DF80320F0
:1004D00001AB11461846FFF7C1FF0346002B07D1B9
:1004E000019BDB00054A13440393039B1B6800E058
:1004F0000023184605B05DF804FB00BFB487000078
:1005000084B001900B468DF80330019BDB00174A45
:10051000134402939DF80330013B032B1CD801A226
:1005200052F823F0350500003D05000045050000A8
:100530004F05000002238DF80F3011E004238DF8E1
:100540000F300DE0029B1B798DF80F3008E0029B05
:100550005B798DF80F3003E000238DF80F3000BF7A
:100560009DF80F30184604B0704700BFB4870000F4
:1005700084B00190009100238DF80F30019B1B780F
:1005800003F00403DBB2002B24D0019B1B78C3F3E0
:100590000103DBB2012B02D0022B0CD017E0009B31
:1005A0001B68019A1288C2F38312D2B213449A1CB8
:1005B000009B1A600BE0009B1B68019A5288C2F3F3
:1005C000891292B213449A1C009B1A6000BF012347
:1005D0008DF80F309DF80F30184604B070470000BA
:1005E00000B58BB00023ADF826303E4801F0DCFBAF
:1005F0003D4801F0D9FB3D4B9B6804933C4B1B6885
:100600000693049A069B134002339B00374A134417
:100610000433089304AB19460898FFF7A9FF034673
:10062000002B09D0049A069B134002339B002F4AEB
:10063000134404330893EDE700BF0023079311E050
:10064000049B5A1C0492069A1340079A920001A92F
:100650000A44264902339B000B445B681360079BE6
:1006600001330793079B012BEAD99DF80430C3F3AC
:100670000103DBB2012B10D0022B1CD1BDF80A30D4
:10068000ADF82630BDF80630C3F389139BB20333AF
:100690009A08049B1344049313E0BDF80A30ADF8A4
:1006A0002630BDF80430C3F38313DBB21A46049B33
:1006B0001344049305E00F494FF4C27001F0E7FAC8
:1006C00000BF094801F07CFB0590059B002B02D080
:1006D000049B064A9360BDF8263018460BB05DF8BF
:1006E00004FB00BF74050020700500205C010020A1
:1006F00000000020EC87000000B585B0002107480D
:1007000001F0DBFA0390039B0293029B83F3100337
:100710000193019B184605B05DF804FB78050020A5
:1007200000B589B00390029101920093039B1B0CCA
:100730000793FFF7E1FF0690FFF786FE0246079B4F
:10074000934204D3214940F2A91001F0A0FA069B7C
:100750001904009B5A1C0A9B1340079A0A431C4920
:1007600002339B000B445A60009A0A9B13400233E9
:100770009B00174A134404330593039B03F00703BC
:10078000D9B2059A137861F3C5031370019B03F086
:100790000F03D9B2059A138861F389131380029B62
:1007A000C3F31501059A136861F39F231360059A3B
:1007B0001378012161F301031370059A13786FF325
:1007C0008203137000BF09B05DF804FBEC870000E2
:1007D0005C01002000BF704700B58BB00390029110
:1007E00013468DF80730039B0233089301238DF8DD
:1007F0001F30002001F004FA3E4B5A68029B1A6039
:100800003D4B1A683B4B99683A4B5B68CB1A1344D3
:100810000133099314E00121384801F095FAFFF7FC
:10082000DFFE05900599354801F08EFA324B1A68C3
:10083000304B99682F4B5B68CB1A134401330993F3
:10084000089A099B9A42E6D89DF81F30002B48D0A1
:10085000002304939DF80730002B17D09DF810302B
:10086000012262F301038DF810309DF8103043F03F
:1008700004038DF81030039B03F00F03DAB2BDF8C8
:10088000103062F38913ADF8103016E09DF8103087
:10089000022262F301038DF810309DF8103043F00E
:1008A00004038DF81030039BC3F309039AB2BDF81B
:1008B000123062F38F13ADF812300E4B5A680E4BA4
:1008C0001B68134002339B000A4A13440433069307
:1008D000049A069B1A60074B5A68089B1344054A02
:1008E0005360002001F0A0F99DF81F3018460BB0AE
:1008F0005DF804FB5C01002000000020780500206A
:1009000000B58BB00590049103920293204B1B68B5
:10091000079306AB012219460298FFF75DFF0346D5
:10092000002B24D0069B023309930023089311E087
:10093000089B9B00039A1A44099B591C099107992B
:100940000B401268134902339B000B445A60089B0A
:1009500001330893089A029B9A42E9D3069A079BAF
:1009600000931346029A04990598FFF7D9FE094BA4
:100970001B78002B05D000BF00F06AF80346002B5F
:10098000FAD1FFF727FF00BF0BB05DF804FB00BFF3
:10099000000000205C01002000B583B001900091B0
:1009A0000023002200990198FFF7AAFF00BF03B0BF
:1009B0005DF804FB00B587B0039002910192019BA2
:1009C000059305AA012302990398FFF799FF00BF39
:1009D00007B05DF804FB00B587B003900291019267
:1009E0000093019B0493009B059304AA02230299A0
:1009F0000398FFF785FF00BF07B05DF804FB00B563
:100A00008BB00390029101920093019B0593009B90
:100A100006930C9B07930D9B08930E9B099305AAC5
:100A2000052302990398FFF76BFF00BF0BB05DF839
:100A300004FB0000054B9A68044B5B689A420CBFAC
:100A400001230023DBB21846704700BF5C01002081
:100A500000B599B0FFF7EEFF0346002B01D000234D
:100A6000B9E19B4B0022C3F81824BFF34F8F00BF9E
:100A7000974B9B680493974B1B681093049A109BA9
:100A8000134002339B00924A134404331193002312
:100A900017930023169300230F9304AB1946119864
:100AA000FFF766FD0346002B19D0894BD3F81834A5
:100AB000002B14D1864B5A68049B9A4205D8844B6C
:100AC0005B68834A9360002385E1049A109B13407E
:100AD00002339B007E4A134404331193DDE7002365
:100AE000159311E0049B5A1C0492109A1340159A16
:100AF000920001A90A44764902339B000B445B68CB
:100B00001360159B01331593159B012BEAD99DF8B2
:100B1000043003F00303DBB2022B40F09C80BDF8ED
:100B20000630C3F389139BB20D93BDF80630C3F3AF
:100B300089139BB2502B28BF50239BB20C930C9B64
:100B4000C3F309039AB2BDF8063062F38F13ADF810
:100B500006300C9B08330B939DF80430C3F3C2039B
:100B6000DBB20F930B995C4801F0A8FD1790179B1F
:100B7000002B00F0D380179801F031FE01A9169BDD
:100B80000822179801F0E6FE169B08331693049B83
:100B9000DA43109B134001339B000A930C9A0A9B83
:100BA0009A4242D90A9B002B08D0049A109B13400A
:100BB00002339B00464A1344043300E0474B08933A
:100BC0000A9B002B02D00A9BDBB201E00C9BDBB23C
:100BD0008DF81F300A9B002B01D0404B00E0002312
:100BE00006930A9B002B06D00C9BDAB20A9BDBB261
:100BF000D31ADBB200E000238DF817309DF81F20D8
:100C0000169B0899179801F0A5FE9DF81F30169ABB
:100C100013441693069B002B16D09DF81720169BA5
:100C20000699179801F096FE0EE0049A109B134067
:100C300002339B00264A134404330993169B0C9AF3
:100C40000999179801F086FE0D9B03339A08049BBF
:100C50001344049362E09DF8043003F00303DBB215
:100C6000012B5BD1BDF80430C3F38313DBB2062B39
:100C700028BF0623DAB2BDF8043062F38913ADF859
:100C80000430BDF80430C3F38313DBB202330E9398
:100C90009DF80430C3F3C203DBB20F930E9B9B009D
:100CA00019460D4801F00AFD1790179B002B35D00F
:100CB000179801F094FD01A9169B0822179801F0DE
:100CC00049FE169B08331693002315931DE000BFC1
:100CD0005C01002000000020D48700006801002093
:100CE000049B5A1C0492109A134002339B003C4A06
:100CF0001344191D169B0422179801F02BFE169B16
:100D000004331693159B01331593BDF80430C3F3D8
:100D10008313DBB21A46159B9342E1D3179B002B3A
:100D200039D02F4BD3F8103414932D4BD3F81834FB
:100D3000002B1BD0179801F061FD46E000238DF8D1
:100D40004F301498FFF777FB0346002B02D00123A6
:100D50008DF84F309DF84F30002B03D01799149821
:100D6000FFF73AFB149BDB681B681493149B002B62
:100D7000E4D1179801F042FD002000F041FF184B2C
:100D8000D3F81834002B02D1049B154A936000203D
:100D900000F04AFF19E0124BD3F81034129306E02A
:100DA0001298FFF733FB129BDB681B681293129BB0
:100DB000002BF5D10B4A0C4BD31ADB081B0443F074
:100DC00002030A491846FFF7E7FDFFF733FE034623
:100DD00083F00103DBB2184619B05DF804FB00BFD5
:100DE0005C010020BC870000B48700004C88000034
:100DF00000B583B00C4BD3F8103401930A4B012299
:100E00001A7009E00198FFF70DFB0198FFF7F2FA5D
:100E1000019BDB681B680193019B002BF2D100BF93
:100E200000BF03B05DF804FB5C01002082B00190BC
:100E3000009100BF02B0704710B584B003900291DA
:100E4000039BDB88002B0AD0039BDB881A461F4BD1
:100E5000009313461E4A1F49029801F083F8039B32
:100E60001B7A052B2ED0039B5B7A002B12D0039BA1
:100E70009B881A46039B1B7A19461046FFF740FBD6
:100E800003461A46144B53F822301A461349029867
:100E900001F068F8039B1B6819460298FFF7C6FF2C
:100EA000039B1B7A1A460E4B53F82240039B9B88E8
:100EB00000211846FFF704FB034622460949029821
:100EC00001F050F800BF04B010BD00BF80880000E2
:100ED00090880000C888000018000020E08800000A
:100EE00004000020E488000000B585B00390029162
:100EF00013468DF80730039B1B7A052B0FD0039BFD
:100F00005B7A002B06D00D4B1B681A460C490298E1
:100F100001F028F80B49029801F024F807E09DF849
:100F20000730002B03D00749029801F01BF8029804
:100F300000F0F6FF00BF05B05DF804FB18000020CC
:100F4000E0880000F088000030B58BB00790069173
:100F5000059204930E9B1B7B8DF827300E9B00227D
:100F60001A730E990498FFF767FF059B062B7FD82D
:100F700001A252F823F000BF950F00009F0F000060
:100F8000AF0F0000C30F0000E10F000009100000C8
:100F90003910000007990E9800F0E4FF69E0069B05
:100FA0001B681A4607990E9800F0DCFF61E0069B6B
:100FB0001A68069B04331B6807990E9800F0D2FF4D
:100FC00057E0069B1A68069B04331968069B083392
:100FD0001B6800930B4607990E9800F0C3FF48E08A
:100FE000069B1968069B04331868069B08331B6828
:100FF000069A0C3212680192009303460A4607993A
:101000000E9800F0AFFF34E0069B1868069B04338F
:101010001C68069B08331B68069A0C3212680699F6
:101020001031096802910192009323460246079904
:101030000E9800F097FF1CE0069B1C68069B04338B
:101040001D68069B08331B68069A0C3212680699C5
:1010500010310968069814300068039002910192DB
:1010600000932B46224607990E9800F07BFF00E084
:1010700000BF00220E990498FFF736FF0E9B9DF8E3
:1010800027201A7300BF0BB030BD00BF00B587B07A
:101090000390029101920093029B082B60D8009B61
:1010A0001B7B8DF81330009B00221A730099019866
:1010B000FFF7C2FE0023059314E0059A029B9A42B3
:1010C00009D2039A059B13441B781A4626490098B7
:1010D00000F048FF03E02549009800F043FF059B1E
:1010E00001330593059B072BE7D92149009800F0B0
:1010F00039FF0023059326E0059A029B9A421BD2F2
:10110000039A059B13441B788DF812309DF812301A
:101110007E2B0AD89DF81230184604F01DFF0346B6
:10112000002B02D09DF8123000E02E231A46114900
:10113000009800F017FF03E00F49009800F012FF3D
:10114000059B01330593059B072BD5D901220099F7
:101150000198FFF7C9FE009B9DF813201A7300E069
:1011600000BF07B05DF804FBF4880000FC880000B5
:1011700000890000048900000889000000B585B0DE
:101180000190019B002B0AD0074B43F0010303930E
:10119000019B9B010293039B0298984700E000BFCC
:1011A00005B05DF804FB00BF2089000000B583B0E6
:1011B0000190019B002B0AD04FF47A70FFF7DEFFFD
:1011C000019B013B0193019B002BF5D100E000BF87
:1011D00003B05DF804FB000000B589B003900291F4
:1011E0000192019B002B33D0002307930323069326
:1011F000029A079B1344019A1946002000F0E2F975
:101200000590079A059B13440793019A059BD31AEF
:101210000193059B002B13D10F4B1B7883F0010327
:10122000DBB2002B13D10120FFF7C0FF069B013B6F
:101230000693069B002B03D1074B00221A7007E090
:10124000054B01221A70019B002BD1D100E000BF99
:1012500000BF09B05DF804FB7C05002000B585B037
:1012600003900291054B00934023054A029903988D
:1012700000F012F800BF05B05DF804FBD9110000C2
:101280008005002082B0019000BF02B0704782B09C
:10129000019000BF02B0704700B5A1B00590049165
:1012A00003920293049801F09AFA039B1593029B10
:1012B00016930023179300238DF8603000231993B1
:1012C000229B1A9300231F930FA91F9B08220498A7
:1012D00001F05EFB08231F93119B1293BDF8403071
:1012E000ADF84C30BDF84230ADF84E3000238DF8EB
:1012F00051309DF83C3003F00303DBB2012B26D1C3
:101300000F9BC3F395231C939DF83C30C3F3C2039A
:10131000DBB28DF85030BDF83C30C3F38313DBB241
:101320001B931B9B9A0009A91F9B049801F030FB9B
:101330001B9B9B001F9A13441F9312AA09A915AB6C
:10134000009313461B9A1C98FFF7FEFD2FE09DF8B3
:101350003C3003F00303DBB2022B28D1BDF83E3052
:10136000C3F389139BB21E939DF83C30C3F3C203B1
:10137000DBB28DF850301E9B082B28BF08231D932D
:1013800007A91F9B1D9A049801F002FB1F9A1D9B41
:1013900013441F931E9A1D9BD31A1E9315AB12AABA
:1013A00007A81D99FFF772FE1E9B002BE3D104983E
:1013B00001F024FA00BF21B05DF804FB00B583B052
:1013C0001F4B0193019B02221A61019B02225A6169
:1013D000019B1C4A9A61019B1B4ADA61019B4FF4F5
:1013E00000721A62019B00229A62019B00225A62DB
:1013F000019B0022DA62019B124A9A64019B134A04
:10140000DA64019B10221A65019B00229A65019BF8
:1014100000225A65019B0022DA65019B07330C49C3
:10142000184604F024FE019B0A49184604F01FFEEA
:10143000019B20229A7100BF03B05DF804FB00BF3E
:10144000C0050020A08900003806002038080020D0
:10145000AC890000B089000000B589B0039002910A
:10146000019200230693039BDB680593039B1B6992
:101470000493049A059B9A4205D9049A059BD31AB2
:10148000013B079307E0039B9A680499059BCB1ADD
:101490001344013B0793039B9A68059BD31A079A51
:1014A000934228BF13460793079A019B934228BF94
:1014B00013460793039B5A68059B1344079A0299A6
:1014C000184604F078FD069A079B13440693029A87
:1014D000079B13440293019A079BD31A0193059A21
:1014E000079B13440593039B9B68059A9A4201D17D
:1014F00000230593039B059ADA60019B002BB5D16D
:10150000069B184609B05DF804FB00B589B003904E
:1015100002910192039BDB680793039B9A68079BE8
:10152000D31A0693069A019B9A420ED9039B5A68D6
:10153000079B1344019A0299184604F03CFD079A50
:10154000019B1A44039BDA601AE0069B0593039BF8
:101550005A68079B1344059A0299184604F02BFD1C
:10156000019A069BD31A0593039B5868029A069B1F
:101570001344059A194604F01EFD039B059ADA6090
:1015800000BF09B05DF804FB86B00190019B1B69A8
:101590000493019BDB680393049A039B9A4208D847
:1015A000019B9A68039BD21A049B1344013B059349
:1015B00004E0049A039BD31A013B0593059B18464C
:1015C00006B0704700B589B0039002910192029B6A
:1015D0000693039B5A1C13465B001344DB00204A0E
:1015E00013440593059B5B69022B29D0022B2ED84F
:1015F000002B02D0012B13D029E00598FFF7C4FF80
:101600000490049A019B9A4202D20023079321E09E
:10161000019B0793019A06990598FFF776FF19E059
:101620000598FFF7B1FF0490019A049B934228BFED
:1016300013460793079A06990598FFF766FF09E096
:10164000019A06990598FFF707FF079002E000232B
:10165000079300BF079B184609B05DF804FB00BF65
:10166000C005002000B587B00390029101920B4B9A
:101670001B78002B01D1FFF7A1FE002000F0C0FA7B
:10168000019A02990398FFF79DFF0590002000F052
:10169000CBFA059B184607B05DF804FBC005002097
:1016A0000FB400B5A3B025AB009301A8009B249A0A
:1016B000802104F072FC2190219B802B06DD01AB80
:1016C000802219460020FFF7CDFF08E0219B002B68
:1016D00005DD219A01AB19460020FFF7C3FF219BCE
:1016E000184623B05DF804EB04B0704700B583B032
:1016F0000190019B1B68184600F0D7F80346002BA9
:1017000004D105494FF4F67000F0C1FA4FF0A04340
:10171000184603B05DF804FBB889000000B585B039
:101720000190084611461A4603468DF803300B46D1
:101730008DF8023013468DF8013001AB1846FFF7E3
:10174000D5FF03909DF803209DF802305B001A43FB
:101750009DF801309B001A439DF818301B0242EAA5
:1017600003019DF81C301B04019A1943039B02F5E9
:10177000E07243F8221000BF05B05DF804FB00B52D
:1017800085B00390002301930023009300230122DE
:1017900001210398FFF7C2FF00BF05B05DF804FB0D
:1017A00000B585B003900B468DF80B309DF80B30DB
:1017B0000022019200220092002200210398FFF7EC
:1017C000ADFF00BF05B05DF804FB00B585B001902A
:1017D00001AB1846FFF78AFF0390019B012202FA32
:1017E00003F31946039800F04CF800BF05B05DF80C
:1017F00004FB00B585B0019001AB1846FFF776FFFA
:101800000390019B012202FA03F31946039800F0AA
:1018100042F800BF05B05DF804FB00B585B001904B
:1018200001AB1846FFF762FF0390039BD3F8043522
:101830000293029BDA43019B012101FA03F31A4050
:10184000039BC3F80825019B01229A40029B1A4082
:10185000039BC3F80C2500BF05B05DF804FB00B581
:1018600083B001900091009B002B03D10198FFF7FA
:10187000C0FF02E00198FFF7A8FF00BF03B05DF8CA
:1018800004FB82B001900091019B009AC3F80825E7
:1018900000BF02B0704782B001900091019B009A96
:1018A000C3F80C2500BF02B0704784B00190019BC3
:1018B0005B09029300230393029B002B03D14FF09B
:1018C000FF33039300BF019B03F01F030193039AAF
:1018D000019B22FA03F303F00103002B14BF012341
:1018E0000023DBB2184604B07047000000B583B097
:1018F0000190019B032B03D90749472000F0C7F94A
:10190000064A019B13441B7801211846FFF7A7FFE5
:1019100000BF03B05DF804FBE8890000348A0000D2
:1019200000B583B00023019305E00198FFF7DEFFC7
:10193000019B01330193019B032BF6D900BF00BF2C
:1019400003B05DF804FB000000B583B00190019B7B
:10195000032B03D907495F2000F099F9064A019B40
:1019600013441B781846FFF758FF00BF03B05DF81B
:1019700004FB00BFE8890000348A000000B583B092
:101980000023019309E0094A019B13441B78184680
:10199000FFF7F5FE019B01330193019B032BF2D965
:1019A000FFF7BEFF00BF03B05DF804FB348A000000
:1019B00000B583B0002301930AE0094A019B134458
:1019C0001B7803211846FFF7EBFE019B01330193BF
:1019D000019B032BF1D900BF00BF03B05DF804FBEE
:1019E000388A000000B583B00190019B03F0010329
:1019F000002B01D0FFF7C2FF019B03F00203002B75
:101A000001D0FFF7D5FF00BF03B05DF804FB000075
:101A100086B003900291019201238DF817309DF852
:101A20001730204A039B13601E4A029B53601D4AD5
:101A3000019B9360039B44F20102934212D0039BEB
:101A400044F20202934220D1019B164AD360154B07
:101A5000DB681B68134A9361124BDB685B68114AB1
:101A6000D36112E0019B0F4A13610E4B1B699B6807
:101A70000C4A53610B4B1B691B680A4A9361094B63
:101A80001B695B68074AD36100BF72B600BF00BF25
:101A90009DF81730DBB2002BFAD162B600BF00BF51
:101AA00006B070474808002000B583B0029000914E
:101AB000019244F2010071466A4600F003F803B057
:101AC00000BD00BF30B58BB007900691059272B68D
:101AD00000BFFFF78DF900BFFEF7BAFF0346002BEA
:101AE000FAD1079B44F20102934216D0079B44F2BD
:101AF000020293423ED1059B09932C4A2C4BD31AE8
:101B0000DB081B0443F00100099B5B681A46099B34
:101B10001B682849FEF75FFF39E0059B0893234ABD
:101B2000234BD31ADB081B0443F00104089B9D6878
:101B3000089B9B68184600F04BFF03461846089B1D
:101B40005B681946089B1B68069A029201930091F4
:101B500003462A4618492046FEF751FF134A144B04
:101B6000D31ADB081B0443F0010314491846FEF79F
:101B700013FF0CE00D4A0E4BD31ADB081B0443F095
:101B80000103069A0E491846FEF714FF00BF0D4BDD
:101B90001B6803F00103002B00D000BE059A0699D4
:101BA0000798FFF735FF00BF0BB030BDBC870000C2
:101BB000B48700003C8A0000588A0000808A000038
:101BC000948A0000F0ED00E072B600BF034B1B6882
:101BD0000133024A136000BF704700BF680800204D
:101BE000064B1B68013B054A1360044B1B68002B26
:101BF00001D162B600BF00BF704700BF6808002077
:101C000000B583B0019000F025F80346012B03D006
:101C10000449432000F03BF8FFF7D6FF00BF03B0B4
:101C20005DF804FBAC8A000000B583B003468DF874
:101C3000073000F00FF80346012B03D00449512070
:101C400000F025F8FFF7CCFF00BF03B05DF804FB00
:101C5000AC8A000084B0EFF305830193019BC3F3CA
:101C600008030393039B002B0DD1EFF31483009320
:101C7000009B0293029B03F00103002B0CBF012386
:101C80000023DBB200E00123184604B0704700B522
:101C900085B003460091ADF80630BDF806300293DA
:101CA000009B039302AB1A46002144F20200FFF7A7
:101CB00009FF00BF05B05DF804FB10B487B00190C8
:101CC0000091019B009A53E8004F104643E8000141
:101CD00091F0000FF7D1059404900391059B1846ED
:101CE00007B05DF8044B704710B487B001900091C5
:101CF000019B009A53E8004F44EA020043E80001C8
:101D000091F0000FF6D1059404900391049B1846BE
:101D100007B05DF8044B704710B487B00190009194
:101D2000019B009A53E8004F04EA020043E80001D7
:101D300091F0000FF6D1059404900391059B18468D
:101D400007B05DF8044B704710B487B00190009164
:101D5000019B009A53E8004F04EB020043E80001A6
:101D600091F0000FF6D1059404900391049B18465E
:101D700007B05DF8044B704710B487B00190009134
:101D8000019B009A53E8004FA4EB020043E80001D6
:101D900091F0000FF6D1059404900391049B18462E
:101DA00007B05DF8044B704700B583B00190012186
:101DB0000198FFF799FF0346184603B05DF804FB4E
:101DC00000B583B0019000210198FFF7A5FF0346FD
:101DD000184603B05DF804FB00B583B001900B46D4
:101DE0008DF80330019B002B03D10849E820FFF751
:101DF0004EFF019BDA689DF803300199098A01FBC7
:101E000003F31344184603B05DF804FB088B00008D
:101E100000B583B001900091019B002B03D10849CC
:101E2000F520FFF734FF009B019AD2689B1A019AB4
:101E3000128AB3FBF2F3DBB2184603B05DF804FB81
:101E4000088B000000B585B00190019B002B04D1E8
:101E50001C494FF49270FFF71AFF002303930020F0
:101E6000FFF7CEFE019B1B681A68019B5B689A42D4
:101E70001FD9019B1B681A68013A1A601B681B78FE
:101E800019460198FFF7A8FF0390019B9A68019BF0
:101E90001B681B68D31A8DF80B30019B1B681B79DC
:101EA0009DF80B209A4204D9019B1B689DF80B20DA
:101EB0001A710020FFF7B8FE039B184605B05DF8C5
:101EC00004FB00BF088B000010B584B001900091A6
:101ED000019B002B04D1114940F24710FFF7D7FEB8
:101EE000009B002B04D10D494FF4A470FFF7CFFEE7
:101EF000009B03930020FFF783FE019B1B681C6877
:101F0000621C1A6003990198FFF782FF0346237051
:101F10000020FFF789FE00BF04B010BD088B000051
:101F200000B583B00190019B002B03D10C493120F7
:101F3000FFF7ADFE019B9B68002B0CD0019B5B69FA
:101F4000019A1069019A1168019A92689847019B59
:101F500000229A6000E000BF03B05DF804FB00BF00
:101F6000608B00000EB400B584B00190019B002B83
:101F700003D118494220FFF78AFE019B5B69002BC1
:101F800003D114494320FFF782FE019B1B68002BFD
:101F900003D110494420FFF77AFE019B5B68002BB8
:101FA00003D10C494520FFF772FE059B002B0AD098
:101FB0000023039306AB039303AB1A4605990198DC
:101FC00000F0B8F900E000BF04B05DF804EB03B026
:101FD000704700BF608B000000B583B001900B46D6
:101FE0008DF803309DF803300A2B03D10D210198A1
:101FF000FFF7F2FF019B1A68019B9B68581C01992F
:10200000886013449DF803201A70019B9A68019B15
:102010005B689A4202D30198FFF782FF00BF03B0CA
:102020005DF804FB00B587B0039002910192009324
:1020300000230593009B03F00103002B24D00BE049
:10204000029B01330293059B013305939DF81330E6
:1020500019460398FFF7C0FF029B1B788DF81330D9
:102060009DF81330002BEBD106E0019B013B01935F
:1020700020210398FFF7B0FF019A059B9A422ED9C1
:10208000019B002BF1D12AE0029B002B0BD0029880
:1020900004F00FF8059006E0019B013B019320211D
:1020A0000398FFF799FF019A059B9A420FD9019B6C
:1020B000002BF1D10BE0029B01330293059B01330E
:1020C00005939DF8133019460398FFF785FF029B8F
:1020D0001B788DF813309DF81330002BEBD100BF27
:1020E00007B05DF804FB000000B589B003900291D1
:1020F00001920093029B07930123069307E0079A3E
:10210000019BB2FBF3F30793069B01330693079AF7
:10211000019B9A42F3D2009A069B9A4201D9009BF6
:1021200006930B9B03F00103002B22D10A9B002B8B
:102130001FD00B9B03F00203002B06D0009B002B4B
:1021400003D130238DF8173002E020238DF81730AB
:1021500008E00A9B013B0A939DF817301946039843
:10216000FFF73AFF0A9B002B03D0069A0A9B9A427C
:10217000EFD301230793009B012B03D9009B013B65
:10218000009309E0029A079BB2FBF3F30493049ACD
:10219000019B9A4200D205E0079B019A02FB03F3E0
:1021A0000793E8E7029A079BB2FBF3F30493049BBF
:1021B000079A02FB03F3029AD31A0293154A049B6F
:1021C00013441B7819460398FFF706FF079A019BF3
:1021D000B2FBF3F30793079B002BE3D10B9B03F0B8
:1021E0000103002B11D00A9B002B0ED006E00A9BA6
:1021F000013B0A9320210398FFF7EEFE0A9B002B78
:1022000003D0069A0A9B9A42F1D300BF09B05DF849
:1022100004FB00BF048C000000B589B00590049158
:1022200003920293049B002BB8BF5B4206930123E9
:10223000079307E0039B069A92FBF3F30693079B31
:1022400001330793039B069A9A42F3DA029A079B9B
:102250009A4201D9029B07930A9B002B0AD0049B48
:10226000002B04DB0B9B03F00403002B02D00A9B22
:10227000013B0A930B9B03F00203002B02D0029B4D
:10228000002B16D00B9B03F00103002B11D10A9BEE
:10229000002B0ED006E00A9B013B0A9320210598F3
:1022A000FFF79AFE0A9B002B03D0079A0A9B9A42DB
:1022B000F1D3049B002B07DA049B5B4204932D218E
:1022C0000598FFF789FE08E00B9B03F00403002B41
:1022D00003D02B210598FFF77FFE0B9B03F0020331
:1022E000002B19D00B9B03F00103002B14D1029B90
:1022F000002B11D10A9B002B0ED006E00A9B013B5C
:102300000A9330210598FFF767FE0A9B002B03D044
:10231000079A0A9B9A42F1D304990B9B01930A9B5B
:102320000093029B039A0598FFF7DEFE00BF09B0F9
:102330005DF804FB00B58FB0059004910392059BF6
:10234000002B04D1AD4940F25220FFF7A0FC059BC1
:102350005B69002B04D1A9494FF41570FFF797FC76
:10236000059B1B68002B04D1A44940F25520FFF7C0
:102370008EFC059B5B68002B04D1A04940F25620DF
:10238000FFF785FC049B002B00F09381049B1B78D6
:102390008DF83730049B013304939DF83730002BC0
:1023A00000F07E819DF83730252B40F06D810023B1
:1023B0000A9301230C93049B1B788DF837309DF80A
:1023C0003730302B0DD0302B1BDC2B2B11D02D2B8D
:1023D00017D10A9B43F001030A93049B0133049332
:1023E00012E00A9B43F002030A93049B0133049317
:1023F0000AE00A9B43F004030A93049B013304930D
:1024000002E000230C9300BF0C9B002BD3D10023D0
:1024100009939DF837302A2B0CD1039B1B68191D9B
:10242000039A11601B68099A13440993049B0133B2
:1024300004931AE0049B1B788DF837309DF83730F1
:102440002F2B12D99DF83730392B0ED8049B01332E
:102450000493099A13469B0013445B001A469DF8A7
:1024600037301344303B0993D3E700230B93049B8D
:102470001B788DF837309DF837302E2B1DD1049BFB
:1024800001330493049B1B788DF837309DF8373067
:102490002F2B12D99DF83730392B0ED8049B0133DE
:1024A00004930B9A13469B0013445B001A469DF855
:1024B00037301344303B0B93E4E7049B1B788DF8D3
:1024C00037309DF837306C2B03D09DF83730682BB0
:1024D00007D1049B01330493049B1B788DF837309C
:1024E000EFE79DF83730252B00F0C480252BC0F294
:1024F000C680782B00F3C380582BC0F2C080583BB5
:10250000202B00F2BC8001A252F823F0012600002B
:102510007F2600007F2600007F2600007F26000027
:102520007F2600007F2600007F2600007F26000017
:102530007F2600007F26000091250000B3250000C3
:102540007F2600007F2600007F2600007F260000F7
:10255000B32500007F2600007F2600007F260000B4
:102560007F2600007F2600007F2600004126000015
:102570007F2600007F260000252600007F26000021
:10258000D72500007F2600007F26000001260000DE
:10259000039B1B68191D039A11601B680C930C9B0D
:1025A0008DF81F309DF81F3019460598FFF714FD70
:1025B00066E0039B1B68191D039A11601B680C934E
:1025C0000A9B0193099B00930B9B0A220C99059887
:1025D000FFF722FE54E0039B1B68191D039A11604C
:1025E0001B680C930C990A9B0193099B00930B9B0E
:1025F0000A220598FFF778FD42E000BFB08B00008B
:10260000039B1B68191D039A11601B680C930C999E
:102610000A9B0193099B00930B9B10220598FFF7DF
:1026200063FD2DE0039B1B68191D039A11601B6855
:1026300008930A9B099A08990598FFF7F3FC1FE095
:10264000039B1B68191D039A11601B680C933021B2
:102650000598FFF7C1FC78210598FFF7BDFC0C99A0
:102660000023019308230093082310220598FFF705
:102670003BFD05E025210598FFF7AEFC00E000BF1B
:10268000049B0133049305E09DF837301946059803
:10269000FFF7A2FC049B1B78002B7FF477AE00E0D1
:1026A00000BF059B1B7B002B04D00598FFF738FC6F
:1026B00000E000BF0FB05DF804FB00BF00B58BB0B9
:1026C00001900091019B1B8A043B0793009A079B92
:1026D0001344DA1C079BB2FBF3F38DF81B3001980F
:1026E000FFF7B0FB0590059B002B01D1002338E0DC
:1026F000059B00221A71059B01225A71079B9AB211
:10270000059BDA80059B09939DF81B30013B0493E0
:10271000099B019A1A60002308931DE00198FFF7B6
:1027200091FB0390039B002B0ED0059B5B7901333B
:10273000DAB2059B5A71099B039A1A60039B019AAE
:102740001A60039B099304E0059800F00EF800233B
:1027500007E0089B01330893089A049B9A42DDD353
:10276000059B18460BB05DF804FB00B58BB00190DB
:10277000019B0793079B5B798DF81B30019B0893A6
:102780009DF81B30013B05930023099305E0089B4E
:102790001B680893099B01330993099A059B9A4288
:1027A000F5D3089B1B680493019B089300230993AE
:1027B0000BE0089B1B68039308990498FFF784FBC0
:1027C000039B0893099B013309939DF81B30099AD9
:1027D0009A42EED300BF00BF0BB05DF804FB00B51A
:1027E00085B00190019B0393039B0433012118469C
:1027F000FFF7AAFA00BF05B05DF804FB00B587B08B
:102800000190019B0593059B043301211846FFF7B6
:10281000B3FA0346039303AB0493049B1B78002B8A
:1028200002D10198FFF7A1FF00BF07B05DF804FBDC
:1028300000B591B00390029101920093039B002B8D
:1028400003D14349B620FFF722FA039B0993039B68
:102850000F93099BDB881A46099B5B7902FB03F304
:10286000043B0893009A089B9A4203D33849C4203A
:10287000FFF70DFA099BDB880793009B1A1D079B46
:10288000B2FBF3F30E93009B0433079AB3FBF2F20F
:10289000079901FB02F29B1A0D93019B1A68009B9A
:1028A0001344089A9A4203D2089A009BD31A01E073
:1028B000019B1B680C93019B0C9A1A6005E00F9B0F
:1028C0001B680F930E9B013B0E930E9B002BF6D1C2
:1028D00000230B93079A0D9BD31A0A930A9A0C9B19
:1028E000934228BF13460A932AE0029A0B9B134493
:1028F00006930F9A0D9B1344043305939DF84830BB
:10290000002B05D00A9A0599069803F054FB04E0C1
:102910000A9A0699059803F04EFB00230D930F9B2E
:102920001B680F930C9A0A9BD31A0C930B9A0A9B61
:1029300013440B93079A0C9B934228BF13460A93A8
:102940000C9B002BD1D100BF00BF11B05DF804FB80
:10295000148C000000B589B0059004910392029395
:10296000039B079307AA00230093029B04990598F1
:10297000FFF75EFF079B039A9A4203D00349F620B4
:10298000FFF785F900BF09B05DF804FB148C000067
:1029900000B589B00590049103920293039B0793BD
:1029A00007AA01230093029B04990598FFF740FFB3
:1029B000079B039A9A4204D004494FF48070FFF7B2
:1029C00066F900BF09B05DF804FB00BF148C00007D
:1029D00000B585B00190019800F00EF80390039BBC
:1029E000002B01D0039B00E0024B184605B05DF8B8
:1029F00004FB00BF6C8C000086B00190164B059361
:102A0000164B04931FE0049A059BD31ADB10DA0FD0
:102A100013445B10DB00059A13440393039B1B686C
:102A20000293029A019B9A4202D9039B04930AE003
:102A3000029A019B9A4203D2039B0833059302E05A
:102A4000039B5B6804E0059A049B9A42DBD3002356
:102A5000184606B0704700BF409000005891000033
:102A600082B003468DF807309DF90730002B0CDB50
:102A70009DF8073003F01F0205499DF907305B09F7
:102A8000012000FA02F241F8232000BF02B0704793
:102A900000E100E082B0034600918DF807309DF917
:102AA0000730002B0ADB009BDAB20C499DF9073096
:102AB0005201D2B20B4483F800230BE0009BDAB240
:102AC00007499DF8073003F00F03043B5201D2B2CF
:102AD0000B441A7600BF02B0704700BF00E100E06F
:102AE00000ED00E082B00190019B1B0B5BB2184629
:102AF00002B0704700B583B003460A468DF8073030
:102B000013468DF806309DF80630072B03D9084987
:102B10006B20FFF7BCF89DF806209DF907301146A1
:102B20001846FFF7B7FF00BF03B05DF804FB00BF16
:102B30005891000000B583B003468DF807309DF929
:102B400007301846FFF78CFF00BF03B05DF804FBA9
:102B500082B001900B468DF803309DF80330019A46
:102B6000134401221A6000BF02B0704784B0019084
:102B70000B46ADF80230BDF80230019A1344002232
:102B80001A60BDF80230019A13441B680393039B3B
:102B900000BF04B0704782B001900B46ADF8023020
:102BA000BDF80230019A13441B68002B14BF0123A7
:102BB0000023DBB2184602B0704782B0019000914A
:102BC000019B009AC3F8042300BF02B0704782B093
:102BD00001900091019B009AC3F8082300BF02B046
:102BE000704782B00190019B0522C3F8002500BF09
:102BF00002B0704782B00190019B0022C3F800250B
:102C000000BF02B0704784B0039002910192039B11
:102C1000029AC3F80825039B019AC3F80C2500BF4C
:102C200004B0704782B001900091019B009AC3F8F4
:102C3000242500BF02B0704784B00190019BD3F8F7
:102C4000C4340393019B039AC3F8C424039B18461E
:102C500004B0704782B001900B468DF803309DF8A8
:102C60000320019BC3F8882500BF02B0704782B0E3
:102C70000190019BD3F81835DBB2184602B07047BB
:102C800082B001900B468DF803309DF80320019B24
:102C9000C3F81C2500BF02B0704782B001900091BC
:102CA000019B009AC3F8002200BF02B070470000E9
:102CB00000B583B00190019B1B68184600F041F8F5
:102CC0000346002B04D105494FF4F670FEF7DFFFF1
:102CD0004FF0A043184603B05DF804FB8891000054
:102CE00000B585B00190084611461A4603468DF896
:102CF00003300B468DF8023013468DF8013001ABDE
:102D00001846FFF7D5FF03909DF803209DF8023089
:102D10005B001A439DF801309B001A439DF8183060
:102D20001B0242EA03019DF81C301B04019A19435F
:102D3000039B02F5E07243F8221000BF05B05DF876
:102D400004FB84B00190019B5B0902930023039371
:102D5000029B002B03D14FF0FF33039300BF019B75
:102D600003F01F030193039A019B22FA03F303F07C
:102D70000103002B14BF01230023DBB2184604B06B
:102D8000704784B0019003230393019B03F0010378
:102D9000002B02D04FF402430393019B03F0020384
:102DA000002B02D048F201230393019B03F004039C
:102DB000002B02D048F202230393039B184604B071
:102DC000704700B583B001900091009B5A6B009B47
:102DD0009B6A9A4207D00198FFF70CFF0198FFF712
:102DE00000FF002300E00123184603B05DF804FB58
:102DF00000B58BB00590049103920293049B002BC5
:102E000003D14349AA20FEF742FF049B1A68049BA2
:102E10005B689A4203D13E49AB20FEF738FF059B21
:102E20001B791A4613461B019B1A9B00394A13440F
:102E30000993099B93F82E30002B03D008230793A6
:102E4000079B61E0099B039A1A60099B029A5A60EA
:102E5000099B00229A60099B002283F82D20099B80
:102E6000002283F83120099B002283F83020049B44
:102E70005A7B099B83F83820049B18680023019330
:102E800006230093032300220021FFF729FF049B60
:102E90005868002301930623009303230022002196
:102EA000FFF71EFF059B1B680893049B1968049B92
:102EB0005B681A460898FFF7A6FE049B9B681946B4
:102EC0000898FFF7AFFE099B1B68002B15D0059BE8
:102ED0001B681846FFF706FE03461A46049B1B7B39
:102EE00019461046FFF706FE059B1B681846FFF7BC
:102EF000F9FD03461846FFF71DFE099B012283F8E2
:102F00002E2000230793079B18460BB05DF804FBA7
:102F1000BC9100006C08002000B585B00190019BB9
:102F20001B791A4613461B019B1A9B000D4A13443A
:102F30000393039B93F82E30012B04D00A494FF4DE
:102F40008570FEF7A4FE019B1B6802930298FFF7B1
:102F500048FE039B022283F82E2000BF05B05DF8D7
:102F600004FB00BF6C080020BC91000000B583B0DA
:102F700001900091009B5A6B009B9B6A9A420AD277
:102F8000009B5A6A009B5B6B13441B78194601989F
:102F9000FFF776FE1EE0009B93F82C30002B05D047
:102FA0001C210198FFF7D4FD002314E0009B1B6A4D
:102FB00003F04003002B09D01C210198FFF7C8FD46
:102FC000009B012283F82D20002304E014210198A6
:102FD000FFF7BEFD0123184603B05DF804FB10B5F2
:102FE00082B001900091009B5A6B009B9B6A9A42B1
:102FF00044D2009B5A6A009B5B6BD4180198FFF780
:1030000036FE03462370009B5B6B5A1C009B5A6381
:10301000009B5A6B009B9B6A013B9A420AD1009B22
:103020001B6A03F04003002B04D102210198FFF733
:1030300034FE1FE0009B5A6B009B9B6A9A4207D1AB
:10304000009B1B6A03F04003002B01D1012316E013
:10305000009B5A6B009B9B6A9A420BD1009B1B6A98
:1030600003F04003002B05D0009B022283F82D20A3
:10307000002304E020210198FFF76AFD0123184690
:1030800002B010BD00B585B00190009100238DF80D
:103090000F304FF482710198FFF77DFD0346002B3E
:1030A00007D04FF482710198FFF760FD01238DF87E
:1030B0000F30009B93F82F30002B0FD04FF49271FC
:1030C0000198FFF753FD4FF48E710198FFF74EFD05
:1030D0004FF484710198FFF749FD78E04FF4927145
:1030E0000198FFF758FD0346002B0DD04FF4927165
:1030F0000198FFF73BFD14210198FFF729FD009B84
:10310000012283F82F2062E04FF48E710198FFF7BF
:1031100042FD0346002B2BD04FF48E710198FFF730
:1031200025FD009B5B6B5A1C009B5A634FF4927108
:103130000198FFF730FD0346002B0DD04FF492713C
:103140000198FFF713FD14210198FFF701FD009B83
:10315000012283F82F203AE000990198FFF706FF3B
:10316000034683F00103DBB2002B30D0002354E090
:103170004FF484710198FFF70EFD0346002B26D013
:103180004FF484710198FFF7F1FC4FF492710198AC
:10319000FFF701FD0346002B0DD04FF4927101980B
:1031A000FFF7E4FC14210198FFF7D2FC009B0122F9
:1031B00083F82F200BE000990198FFF710FF0346DA
:1031C00083F00103DBB2002B01D0002325E09DF842
:1031D0000F30002B20D0009B002283F82D20009B75
:1031E00093F82F3083F00103DBB2002B12D000994B
:1031F0000198FFF7E6FD0346002B14BF01230023CF
:10320000DBB283F00103DBB203F00103DAB2009B0F
:1032100083F82F20002300E00123184605B05DF855
:1032200004FB000000B587B00190009100230593D6
:10323000384B03934FF482710198FFF797FC4FF4DA
:1032400092710198FFF792FC4FF48E710198FFF78D
:103250008DFC4FF484710198FFF788FC00210198E0
:10326000FFF71BFD009B00225A63009B002283F89E
:103270002F2020210198FFF76BFC009B93F82D3045
:10328000012B03D008210198FFF762FC00990198F7
:10329000FFF76CFE009B1B68002B0DD0009B40F2DB
:1032A00086229A60009B9B6819460198FFF785FC6F
:1032B0002AE0039B013B0393039B002B06DD00994F
:1032C0000198FFF7DFFE0346002BF2D1009B93F835
:1032D0002F30002B0DD00198FFF7AEFC0490049B1B
:1032E000002B04D00498FFF74CFD059001E0032368
:1032F0000593039B002B07DC0198FFF77BFC0198EB
:10330000FFF76FFC03230593059B184607B05DF894
:1033100004FB00BFA086010000B587B001900091BA
:10332000002305933D4B03934FF482710198FFF7FF
:103330001DFC4FF492710198FFF718FC4FF48E7149
:103340000198FFF713FC4FF484710198FFF70EFC0E
:10335000009B00225A63009B002283F82F20009BD1
:103360009B6A012B0AD1009B1B6A03F04003002BD0
:1033700004D102210198FFF790FC03E0012101989C
:10338000FFF78BFC20210198FFF7E2FB009B93F8ED
:103390002D30022B03D000210198FFF7D9FB009BB1
:1033A0001B68002B0DD0009B40F286229A60009B88
:1033B0009B6819460198FFF700FC2AE0039B013B3C
:1033C0000393039B002B06DD00990198FFF75AFE3B
:1033D0000346002BF2D1009B93F82F30002B0DD029
:1033E0000198FFF729FC0490049B002B04D004985B
:1033F000FFF7C7FC059001E003230593039B002B17
:1034000007DC0198FFF7F6FB0198FFF7EAFB0323BF
:103410000593059B184607B05DF804FBA0860100E4
:1034200030B587B003900291019200930023059379
:10343000029B93F82D30012B05D1019B1B78012BAA
:1034400001D108236DE0029B93F82D30022B05D1AA
:10345000019B1B78012B01D0082362E032490398BD
:10346000FFF7B5FB029B93F83030DBB2002B09D09D
:10347000029B9B6819460398FFF79FFB1123059356
:10348000059B4EE0009B03F00403002B0CBF0123BF
:103490000023DAB2029B83F83020029B009A1A6262
:1034A000029B019A03F10C0415460FCD0FC42B6843
:1034B0002360019B5A68029B9A62019BDA68029B17
:1034C0005A62019B5B7819460398FFF7C3FB019B87
:1034D0001B78012B17D0019B1B78002B04D1009B7C
:1034E00003F02003002B01D0012300E0002303F0B0
:1034F0000103DAB2029B83F82C2002990398FFF7AC
:1035000091FE059004E002990398FFF705FF0590EE
:10351000029B1B68002B03D1029B002283F8302002
:10352000059B184607B030BD8642040000B587B041
:1035300003900291019200230593039B1B791A4685
:1035400013461B019B1A9B00144A13440493049BCB
:103550001B68002B08D1029B1B78022B04D1104959
:1035600040F28620FEF793FB049B1B68002B08D1DA
:10357000029B1B78032B04D1094940F28720FEF7F8
:1035800086FB039B1868019B029A0499FFF748FF8A
:103590000590059B184607B05DF804FB6C080020F9
:1035A000BC91000000B58BB00390019200930B46D4
:1035B0008DF80B3000238DF814309DF80B308DF80A
:1035C0001530009B069300230793019B089300236B
:1035D00009939DF83030002B01D0202200E000221A
:1035E00005AB19460398FFF7A1FF034618460BB039
:1035F0005DF804FB00B58BB00390019200930B467D
:103600008DF80B3001238DF814309DF80B308DF8B8
:103610001530009B069300230793019B089300231A
:10362000099305AB002219460398FFF77FFF034675
:1036300018460BB05DF804FB30B58BB001900091DB
:10364000009B1B68002B04D14A4940F2BA20FEF7C8
:103650001EFB00990198FFF715FD0346002B40F073
:103660008680009B93F82F3083F00103DBB2002BA0
:1036700033D0009B1B7B022B03D0009B1B7B032BB7
:103680002BD1009B5A6A009B9B699A4225D1009BD3
:10369000DA69009B5A62009B5A69009B9A62009B00
:1036A0001B6A03F02003002B14BF01230023DAB2AE
:1036B000009B83F82C20009B002283F82D20009B88
:1036C0001B7B032B04D100990198FFF7ABFD4FE062
:1036D00000990198FFF720FE4AE0009B04AC03F13B
:1036E0000C050FCD0FC42B682360009B93F82F307F
:1036F000002B22D00198FFF79FFA0990099B03F055
:103700000203002B03D001238DF80C3018E0099B35
:1037100003F00403002B03D002238DF80C300FE0DC
:10372000099B03F00103002B03D003238DF80C3019
:1037300006E004238DF80C3002E000238DF80C30F5
:10374000009B002283F83020009B1B6A03F00403D7
:10375000002B04D0009B93F82F30002B08D0009B47
:103760001B68009A516803AA1046984700E000BF02
:103770000BB030BDBC91000008B503490348FFF70A
:103780005BFF00BF08BD00BF6C0800200030004098
:1037900000B585B00190019B002B0AD0074B43F088
:1037A00001030393019B9B010293039B029898479B
:1037B00000E000BF05B05DF804FB00BF50920000C0
:1037C00000B583B00190019B002B0AD04FF47A70B2
:1037D000FFF7DEFF019B013B0193019B002BF5D11D
:1037E00000E000BF03B05DF804FB000084B00346B6
:1037F0008DF80730044B03939DF80720039B1A6054
:1038000000BF04B0704700BF1C05004084B0002317
:103810000293002301930423029304230193044B96
:103820000393039B1B68DBB2184604B0704700BFCC
:103830001C05004000B583B00120FEF7D3F834200A
:10384000FFF7D4FFFFF7E2FF03461A46194B1A6051
:10385000184B1B680133174A136001F05DF90346EA
:10386000002B0CD0144A154BD31ADB081B0443F071
:10387000030313491846FDF78FF8002315E011489C
:10388000FDF70EFF01F09EF90023019309E0019B73
:103890001846FEF759F8C820FFF792FF019B013345
:1038A0000193019B032BF2DDECE7184603B05DF8B2
:1038B00004FB00BFA8080020BC870000B4870000FC
:1038C0001092000034920000BFF34F8F00BF064BF0
:1038D000DB6803F4E0620449044B1343CB60BFF39D
:1038E0004F8F00BF00BFFDE700ED00E00400FA05C8
:1038F00082B01D4B1B68B3F1FF3F0AD11B4B1B6805
:10390000DBB201931A4B1B681B0903F00F030093F2
:1039100005E0154B1B680193164B1B680093019B38
:10392000062B1DD1009B033B042B17D801A252F894
:1039300023F000BF493900004D3900005139000023
:10394000553900005939000001230AE0012308E03D
:10395000012306E0012304E0012302E0012300E04B
:103960000023184602B0704730010010E00F00F04D
:10397000E80F00F03401001082B0174B1B68DBB277
:103980000193164B1B681B0903F00F030093019B67
:10399000062B1DD1009B033B042B17D801A252F824
:1039A00023F000BFB9390000BD390000C139000063
:1039B000C5390000C939000001230AE0002308E0EE
:1039C000002306E0002304E0002302E0002300E0DF
:1039D0000023184602B07047E00F00F0E80F00F037
:1039E00082B01D4B1B68B3F1FF3F0AD11B4B1B6814
:1039F000DBB201931A4B1B681B0903F00F03009302
:103A000005E0154B1B680193164B1B680093019B47
:103A1000062B1DD1009B033B042B17D801A252F8A3
:103A200023F000BF393A00003D3A0000413A00005F
:103A3000453A0000493A000001230AE0012308E06A
:103A4000012306E0012304E0012302E0012300E05A
:103A50000023184602B0704730010010E00F00F05C
:103A6000E80F00F03401001082B0174B1B68DBB286
:103A70000193164B1B681B0903F00F030093019B76
:103A8000062B1DD1009B033B042B17D801A252F833
:103A900023F000BFA93A0000AD3A0000B13A00009F
:103AA000B53A0000B93A000001230AE0002308E01B
:103AB000002306E0002304E0002302E0002300E0EE
:103AC0000023184602B07047E00F00F0E80F00F046
:103AD00082B01D4B1B68B3F1FF3F0AD11B4B1B6823
:103AE000DBB201931A4B1B681B0903F00F03009311
:103AF00005E0154B1B680193164B1B680093019B57
:103B0000062B1DD1009B033B042B17D801A252F8B2
:103B100023F000BF293B00002D3B0000313B00009B
:103B2000353B0000393B000001230AE0012308E097
:103B3000012306E0012304E0012302E0012300E069
:103B40000023184602B0704730010010E00F00F06B
:103B5000E80F00F03401001082B0174B1B68DBB295
:103B60000193164B1B681B0903F00F030093019B85
:103B7000062B1DD1009B033B042B17D801A252F842
:103B800023F000BF993B00009D3B0000A13B0000DB
:103B9000A53B0000A93B000001230AE0002308E048
:103BA000002306E0002304E0002302E0002300E0FD
:103BB0000023184602B07047E00F00F0E80F00F055
:103BC00082B0174B1B68DBB20193164B1B681B09B5
:103BD00003F00F030093019B062B1DD1009B033BB9
:103BE000042B17D801A252F823F000BF013C0000BB
:103BF000053C0000093C00000D3C0000113C0000A9
:103C000001230AE0002308E0002306E0002304E08B
:103C1000002302E0002300E00023184602B07047B2
:103C2000E00F00F0E80F00F082B01D4B1B68B3F10D
:103C3000FF3F0AD11B4B1B68DBB201931A4B1B6879
:103C40001B0903F00F03009305E0154B1B6801935C
:103C5000164B1B680093019B062B1DD1009B033B59
:103C6000042B17D801A252F823F000BF813C0000BA
:103C7000853C0000893C00008D3C0000913C000028
:103C800000230AE0002308E0012306E0012304E00A
:103C9000012302E0012300E00023184602B0704730
:103CA00030010010E00F00F0E80F00F034010010C8
:103CB00082B01D4B1B68B3F1FF3F0AD11B4B1B6841
:103CC000DBB201931A4B1B681B0903F00F0300932F
:103CD00005E0154B1B680193164B1B680093019B75
:103CE000062B1DD1009B033B042B17D801A252F8D1
:103CF00023F000BF093D00000D3D0000113D000014
:103D0000153D0000193D000001230AE0012308E0F1
:103D1000012306E0012304E0012302E0012300E087
:103D20000023184602B0704730010010E00F00F089
:103D3000E80F00F03401001082B01D4B1B68B3F196
:103D4000FF3F0AD11B4B1B68DBB201931A4B1B6868
:103D50001B0903F00F03009305E0154B1B6801934B
:103D6000164B1B680093019B062B1DD1009B033B48
:103D7000042B17D801A252F823F000BF913D000098
:103D8000953D0000993D00009D3D0000A13D0000D3
:103D900001230AE0012308E0012306E0012304E0F7
:103DA000012302E0012300E00023184602B070471F
:103DB00030010010E00F00F0E80F00F034010010B7
:103DC00082B0154B1B680193144B1B680093019B39
:103DD000062B1DD1009B033B042B17D801A252F8E0
:103DE00023F000BFF93D0000FD3D0000013E000052
:103DF000053E0000093E000000230AE0002308E021
:103E0000002306E0012304E0012302E0012300E097
:103E10000023184602B07047300100103401001032
:103E200082B0154B1B680193144B1B680093019BD8
:103E3000062B1DD1009B033B042B17D801A252F87F
:103E400023F000BF593E00005D3E0000613E0000CF
:103E5000653E0000693E000000230AE0002308E000
:103E6000002306E0002304E0012302E0012300E038
:103E70000023184602B070473001001034010010D2
:103E800008B5FFF7CDFF0346002B07D04FF01023F6
:103E90004FF08042D3F80832C2F8583500BF08BD51
:103EA00000BF044BD3F80034002BFAD000BF00BF92
:103EB000704700BF00E0014000B583B00190054AA3
:103EC000019BC2F80435FFF7EBFF00BF03B05DF8BC
:103ED00004FB00BF00E00140024B034A1A6000BF30
:103EE000704700BF440000200090D00308B5FFF7E2
:103EF000FFFC0346002B06D0964B1B681B0A964A14
:103F000003F01F031360FFF737FD0346002B02D0B9
:103F1000924B934A1A60FFF763FD0346002B06D0CD
:103F2000904B1B685B0B904A03F007031360FFF78D
:103F30009BFD0346002B05D08C4BDB688B4A23F09E
:103F40008073D360FFF7C4FD0346002B0ED04FF003
:103F500080430022C3F80C214FF080430022C3F8B5
:103F600010214FF080430022C3F83825FFF7F4FDFD
:103F70000346002B02D07E4B03221A60FFF720FE7F
:103F80000346002B0BD07B4B05221A607A4B012293
:103F90001A607A4B00221A60794B3F221A60FFF7B1
:103FA00043FE0346002B76D04FF08053754AD3F87A
:103FB0000434C2F820354FF08053724AD3F80834E5
:103FC000C2F824354FF080536E4AD3F80C34C2F84F
:103FD00028354FF080536B4AD3F81034C2F82C3593
:103FE0004FF08053674AD3F81434C2F830354FF09D
:103FF0008053644AD3F81834C2F834354FF08053F4
:10400000604AD3F81C34C2F840354FF080535D4A03
:10401000D3F82034C2F844354FF08053594AD3F8CE
:104020002434C2F848354FF08053564AD3F8283428
:10403000C2F84C354FF08053524AD3F82C34C2F8B2
:1040400050354FF080534F4AD3F83034C2F85435CE
:104050004FF080534B4AD3F83434C2F860354FF0F8
:104060008053484AD3F83834C2F864354FF080534F
:10407000444AD3F83C34C2F868354FF08053414A83
:10408000D3F84034C2F86C354FF080533D4AD3F832
:104090004434C2F87035FFF70BFE0346002B05D001
:1040A000394B1B68394A03F04F031360FFF744FE96
:1040B0000346002B0DD04FF08043D3F8003403F0BB
:1040C0000103002B05D04FF080436FF00102C3F8CD
:1040D0000024FFF775FE0346002B05D02C4B1B6810
:1040E0002B4A43F4806313602A4BD3F88830294A63
:1040F00043F47003C2F88830BFF34F8F00BFBFF3A3
:104100006F8F00BFFFF7BCFE4FF01023D3F80032D3
:10411000002B05DB4FF01023D3F80432002B15DA07
:104120000120FFF7C9FE4FF010231522C3F800222B
:10413000FFF7B6FE4FF010231522C3F80422FFF755
:10414000AFFE0020FFF7B8FEFFF7BEFBFFF7C4FE8F
:1041500000BF08BD240300104035014074C0074073
:104160000DF0ADBA440200103C050040F0ED00E057
:10417000A0050040105600408856004018560040E8
:104180001456004000C0004058020010E40E0040E9
:104190003C17004000ED00E082B001900091019BCF
:1041A0001B78002B03D1044B01221A7000E000BFE2
:1041B00000BF02B0704700BFAC08002010B586B049
:1041C0000D4B6C460FCB84E80F00694600230B4A69
:1041D0000B48FEF70DFE0590059B0493049B002BF6
:1041E00004D0084A9E210498FDF75EFC0448FEF7BF
:1041F00093FE00BF06B010BDD492000099410000AC
:10420000589200006092000000B58BB004920393B6
:1042100003468DF817300B468DF816309DF8173091
:104220008DF81C309DF816308DF81D301E4B002285
:104230001A7007AA0123009302236B211B48FFF782
:10424000B1F90990099B002B04D0194AAE210998B5
:10425000FDF72AFC00BF144B1B78DBB283F001038F
:10426000DBB2002BF7D1104B00221A70039B049A8B
:104270006B210E48FFF7BEF90890089B002B04D075
:104280000B4AB2210898FDF70FFC00BF064B1B78C4
:10429000DBB283F00103DBB2002BF7D100BF00BF1C
:1042A0000BB05DF804FB00BFAC0800205892000082
:1042B0006092000000B587B003468DF80F300B46C2
:1042C0008DF80E3013468DF80D309DF80F308DF8B7
:1042D00010309DF80E308DF811309DF80D308DF8AE
:1042E0001230114B00221A7004AA002300930323FA
:1042F0006B210E48FFF756F90590059B002B04D063
:104300000B4ABB210598FDF7CFFB00BF064B1B787E
:10431000DBB283F00103DBB2002BF7D100BF00BF9B
:1043200007B05DF804FB00BFAC0800205892000005
:104330006092000010B586B00446084611461A4641
:1043400023468DF80F3003468DF80E300B468DF85E
:104350000D3013468DF80C309DF80F308DF810306D
:104360009DF80E308DF811309DF80D308DF812301B
:104370009DF80C308DF81330104B00221A7004AAEF
:104380000023009304236B210D48FFF70BF90590E0
:10439000059B002B04D00B4AC4210598FDF784FB34
:1043A00000BF064B1B78DBB283F00103DBB2002BAE
:1043B000F7D100BF00BF06B010BD00BFAC080020A1
:1043C000589200006092000000B589B00346029246
:1043D0008DF80F300B468DF80E309DF80F308DF8AC
:1043E00014309DF80E308DF815301E4B00221A70D7
:1043F00005AA0123009302236B211B48FFF7D2F883
:104400000790079B002B04D0184ACD210798FDF791
:104410004BFB00BF134B1B78DBB283F00103DBB215
:10442000002BF7D10F4B00221A700123029A6B2147
:104430000D48FFF7DFF80690069B002B04D00B4ACF
:10444000D1210698FDF730FB00BF064B1B78DBB28D
:1044500083F00103DBB2002BF7D100BF00BF09B02E
:104460005DF804FBAC080020589200006092000048
:1044700000B587B003460091ADF80630BDF80630B0
:1044800007EE903AB8EE677ADFED296AC6EE877AD2
:10449000B7EE007A77EEC77A17EE900A01F07EF851
:1044A00002460B4643EC102B01F07AFA53EC102B2A
:1044B0001046194601F08CF8034605931D4BDB8A24
:1044C00007EE903AB8EE677ADDED056AC6EE877AB8
:1044D0009FED197A77EE677ACDED047AF7EE006AF0
:1044E0009DED047AC6EE877A9FED147A77EEC77A4F
:1044F000CDED037ADDED037AFDEEE77A17EE902A33
:10450000009B1A60F7EE000A9DED030A01F018FC0B
:10451000F0EE407A9FED0A7A67EE877AFDEEE77A51
:1045200017EE902A009B5A6000BF07B05DF804FBAD
:1045300000008044480000200FCF5B3B339388434A
:104540000024744982B003468DF807300B468DF87D
:1045500006301346ADF804309DF807309BB29B003F
:104560009AB29DF80610BDF8043041FA03F39BB2ED
:1045700003F003039BB213439BB2184602B070478B
:1045800084B001900091019B1B7A043B0B2B46D811
:1045900001A252F823F000BFC94500001F460000E9
:1045A0001F4600001F4600001F4600001F46000077
:1045B0001F4600001F460000DD450000F3450000D7
:1045C0001F460000094600002B4BDB682B4A82FB8C
:1045D00003129211DB17D31A039323E0264B9B6837
:1045E0005B42274A82FB03121213DB17D31A039391
:1045F00018E0214B9B685B42204A82FB0312D211D8
:10460000DB17D31A03930DE01B4B9B685B421B4ADD
:1046100082FB03129211DB17D31A039302E00023EB
:10462000039300BF019B5B881A46039B02FB03F3C5
:10463000002B01DA03F2FF339B120293029B0F4A15
:1046400082FB03129211DB17D21A009B1A60029AA6
:104650000A4B83FB02139911D317CB1A4FF47A71CB
:1046600001FB03F3D31A4FF47A7203FB02F2009BAF
:104670005A6000BF04B0704748000020D34D62105C
:10468000AD8BDB6800B585B003460091ADF8063010
:10469000BDF80630273B142B00F2A78001A252F888
:1046A00023F000BFF946000059470000EB47000027
:1046B000B94700004B470000EB470000EB47000004
:1046C000EB470000EB470000EB470000EB47000022
:1046D000EB470000EB470000EB470000EB47000012
:1046E000EB470000EB47000087470000EB47000066
:1046F00063470000754700003F4B1B881A4641F294
:10470000883302FB03F3002B01DA03F2FF339B1221
:104710000393039B394A82FB03129211DB17D21ACF
:10472000009B1A60039A354B83FB02139911D31730
:10473000CB1A4FF47A7101FB03F3D31A4FF47A7258
:1047400003FB02F2009B5A6051E02B4B9B880099BF
:104750001846FFF78DFE4AE000992748FFF710FF43
:1047600045E0254B9B791A46009B1A60009B00226E
:104770005A603CE0204BDB791A46009B1A60009B94
:1047800000225A6033E01E4B9B681E4A82FB0312D4
:104790009214DB17D21A009B1A60194B9A68194BB6
:1047A00083FB02139914D317CB1A174901FB03F3A8
:1047B000D31A009A53601AE0114BDB68114A82FB4E
:1047C00003129214DB17D21A009B1A600C4BDA68A2
:1047D0000C4B83FB02139914D317CB1A0A4901FB24
:1047E00003F3D31A009A536001E0062300E000238C
:1047F000184605B05DF804FBB0080020D34D6210E8
:104800004800002083DE1B4340420F0000B583B008
:10481000334A34210320FFF7D7FD324A36210320E3
:10482000FFF7D2FD0B23304A10210520FFF7ECFCE7
:104830002D4B5B782C4A517900221846FFF782FEF7
:1048400003461A46294B1A80274B9B78264A5179F2
:1048500002221846FFF776FE03461A46234B9A803B
:10486000214B1B7A204A917A04221846FFF76AFEF0
:1048700003461A461D4B5A801B4B1A781B4B1A7263
:10488000012201210520FFF715FD0122002105204D
:10489000FFF710FD154B5B7A03F00103002B14BFEB
:1048A000012300238DF80730114A07210220FFF76A
:1048B0008BFD9DF8073083F00103DBB2002B0AD09B
:1048C0000A4B5B7A03F00103002B04D00122002184
:1048D0000220FFF7EFFC00BF03B05DF804FB00BF50
:1048E000B6080020B7080020BC080020B00800204F
:1048F000B908002008B501235A4A0C210820FFF707
:1049000083FC002205210820FFF7D4FC17220A218E
:104910000420FFF7CFFC0123524A0F210420FFF7A8
:1049200073FC02220F210420FFF7C4FC01234D4A2F
:104930000F210420FFF768FC01234A4A0A210420C2
:10494000FFF762FC0F220B210420FFF7B3FC0123C9
:10495000444A0C210420FFF757FC90220C2104202C
:10496000FFF7A8FC01233F4A0D210420FFF74CFC70
:1049700018220D210420FFF79DFC0123394A0E2146
:104980000420FFF741FC98220D210420FFF792FC40
:104990000123344A0F210420FFF736FC0123314A5A
:1049A00010210420FFF730FC01220A210520FFF727
:1049B00081FC07220C210320FFF77CFC04220D213F
:1049C0000320FFF777FC0023252208210320FFF7AF
:1049D000B1FC01239A220A210320FFF7ABFC052238
:1049E00001210220FFF766FC012224210520FFF7A8
:1049F00061FC012200210520FFF75CFC012201215E
:104A00000520FFF757FC012204210320FFF752FC89
:104A10000123144A34210320FFF7F6FB0123114A36
:104A200036210320FFF7F0FB0B230F4A102105204E
:104A3000FFF7EAFB012201210520FFF73BFC0122E1
:104A400000210520FFF736FC0123064A072102203A
:104A5000FFF7DAFB012200210220FFF72BFC00BF49
:104A600008BD00BFC7080020C808002000B587B0F7
:104A7000039002910192FFF7C9FE04AB194627206B
:104A8000FFF700FE049B07EE903AB8EEE77A059B2D
:104A900007EE903AF8EEE76A9FED1E6AC6EE867A58
:104AA00077EE277A039BC3ED007A04AB19462B20DF
:104AB000FFF7E8FD049B07EE903AB8EEE77A059B16
:104AC00007EE903AF8EEE76A9FED126AC6EE867A34
:104AD00077EE277A019BC3ED007A04AB19462820B4
:104AE000FFF7D0FD049B07EE903AB8EEE77A059BFE
:104AF00007EE903AF8EEE76A9FED066AC6EE867A10
:104B000077EE277A029BC3ED007A00BF07B05DF80D
:104B100004FB00BF0024744900B587B06B46002237
:104B20001A605A609A60DA60204B0393FFF746FBE5
:104B3000FFF7E0FE6B4603F108026B46191D6B465A
:104B40001846FFF793FF04AB19463820FFF79AFD8C
:104B5000049B07EE903AB8EEE77A059B07EE903A91
:104B6000F8EEE76A9FED126AC6EE867A77EE277A4C
:104B7000104BC3ED007A0F4B93ED007AF2EE046A0E
:104B8000C7EE267A0C4BC3ED007A6B46002118461F
:104B900001F0DCFD09490A4A4FF00003C1E9002396
:104BA0000023184607B05DF804FB00BFE492000044
:104BB00000247449D4080020D8080020E008002010
:104BC00060E31600F0B5A1B019AA1AA91BAB1846EC
:104BD000FFF74CFFC14B1F93DDED1B7A9DED1A7A59
:104BE000DDED196A0020DDED1F1AB0EE661AF0EE59
:104BF000470AB0EE670A01F0EFFD8DED1E0A01F0E5
:104C00001BFE8DED1D0AB64BD3ED007AB1EE677A2F
:104C1000B44BD3ED007AF1EE677AF0EE670AB0EEAE
:104C2000470A01F00FFE8DED1C0ADDED1B7AF5EE53
:104C3000C07AF1EE10FA0AD5DDED1B7ABFEE007AEC
:104C4000F4EEC77AF1EE10FA01DDA74E00E0A74EB0
:104C5000DDED1B7AFDEEE76ADDED1B7AF5EEC07A3D
:104C6000F1EE10FA0ADD9DED1B7ADDED1B7AFDEE0B
:104C7000E77AF8EEE77A77EE677A09E0DDED1B7AFE
:104C8000FDEEE77AB8EEE77ADDED1B7A77EE677A2C
:104C90009FED977A67EE877ABDEEE76ADDED1A7AC7
:104CA000F5EEC07AF1EE10FA0AD5DDED1A7ABFEE14
:104CB000007AF4EEC77AF1EE10FA01DD8A4A00E0DC
:104CC0008A4ADDED1A7AFDEEE77A17EE907ADDED8D
:104CD0001A7AF5EEC07AF1EE10FA0ADD9DED1A7A35
:104CE000DDED1A7AFDEEE77AF8EEE77A77EE677A8D
:104CF00009E0DDED1A7AFDEEE77AB8EEE77ADDED50
:104D00001A7A77EE677A9FED7A7A67EE877AFDEE08
:104D1000E77ACDED107ADDED197AF5EEC07AF1EE95
:104D200010FA0AD5DDED197ABFEE007AF4EEC77AF3
:104D3000F1EE10FA01DD6C4900E06C49DDED197A05
:104D4000FDEEE77ACDED117ADDED197AF5EEC07A58
:104D5000F1EE10FA0ADD9DED197ADDED197AFDEE1E
:104D6000E77AF8EEE77A77EE677A09E0DDED197A0F
:104D7000FDEEE77AB8EEE77ADDED197A77EE677A3D
:104D80009FED5B7A67EE877AFDEEE77ACDED127ADA
:104D9000DDED1E7AF5EEC07AF1EE10FA0AD5DDED02
:104DA0001E7ABFEE007AF4EEC77AF1EE10FA01DD5A
:104DB0004D4800E04D48DDED1E7AFDEEE77ACDED81
:104DC000137ADDED1E7AF5EEC07AF1EE10FA0ADD07
:104DD000DDED1E7AFDEEE77AF8EEE77A9DED1E7ABC
:104DE00077EE677A09E0DDED1E7AFDEEE77AB8EE40
:104DF000E77ADDED1E7A77EE677A9FED3D7A67EE12
:104E0000877AFDEEE77ACDED147ADDED1D7AF5EEC9
:104E1000C07AF1EE10FA0AD5DDED1D7ABFEE007A08
:104E2000F4EEC77AF1EE10FA01DD2F4C00E02F4CC2
:104E3000DDED1D7AFDEEE77ACDED157ADDED1D7A1B
:104E4000F5EEC07AF1EE10FA0ADDDDED1D7AFDEE29
:104E5000E77AF8EEE77A9DED1D7A77EE677A09E05A
:104E6000DDED1D7AFDEEE77AB8EEE77ADDED1D7A2D
:104E700077EE677A9FED1E7A67EE877AFDEEE77A26
:104E8000CDED167ADDED1C7AF5EEC07AF1EE10FA72
:104E90000AD5DDED1C7ABFEE007AF4EEC77AF1EEAA
:104EA00010FA01DD104D00E0104DDDED1C7AFDEE35
:104EB000E77ACDED177ADDED1C7AF5EEC07AF1EEEA
:104EC00010FA17DDDDED1C7AFDEEE77AF8EEE77AF1
:104ED0009DED1C7A77EE677A16E000BF00247449D6
:104EE000D4080020D8080020E4A80000E8A80000AA
:104EF0000000C842DDED1C7AFDEEE77AB8EEE77AF5
:104F0000DDED1C7A77EE677A1FED077A67EE877A18
:104F1000FDEEE77A17EE903A0E93179B0D930C95E2
:104F2000169B0B93159B0A930994149B0893139B50
:104F300007930690129B0593119B04930391109B7A
:104F400002930197009216EE103A16EE902A31461F
:104F50000248FCF7A5FB00BF21B0F0BDECA80000A3
:104F600030B591EA030F00F18480841A71EB030CD1
:104F700005D2121953EB0C03001B71EB0C0140F22C
:104F8000000CCFF6E07C1CEA430F54D0BCEB410F81
:104F900061D90C0DA4EB135E31EA0C0141F48011D0
:104FA00033EA0C0343F48013DEF1200C2AD303FA16
:104FB0000CF5401941F1000122FA0EF5401923FACF
:104FC0000EF5694112FA0CF2CD0208D349085FEAE6
:104FD00030005FEA320228BF42F001020134013C96
:104FE0005FEA500C72F1004250F1000051EB0451A5
:104FF0004FF4001313EB410F38BF30BD090D090505
:10500000002030BDBEF1200EBEF1200F1ED223FACB
:105010000EF5401941F10001CEF1200C124218BFEB
:10502000012203FA0CF52A43CEE711EA5C0F04BF14
:105030000020002130BD1CEA410F04BF01F00041F7
:10504000002030BD01F00041002030BD21F480116E
:1050500001EB045130BD004218BF41F00101BCEB2F
:10506000410F08BF30BD4FF0FE4141F478010020F0
:1050700030BD83F00043841A71EB030E07D28EF02B
:10508000004E001B71EB0E01121953EB0E0340F2A0
:10509000000CCFF6E07C1CEA430FC6D0BCEB410FFE
:1050A00072D90C0DA4EB135EC90241EA5051C00243
:1050B00041F00041DB0243EA5253D20243F0004385
:1050C000DEF1200C41D312FA0CF522FA0EF203FAAB
:1050D0000CF542EA050218BF42F0010223FA0EF372
:1050E000801A9941E30AC4F30A0411F0404F03D433
:1050F00018D0013C40004941013C23D44205C00A7C
:1051000040EA4150C90A51EAC3715FEA500C72F19A
:10511000004250F1000051EB045130BD01002FD08E
:105120000020203C0029F9D0B1FA81FCDCF1200EEE
:1051300011FA0CF130FA0EF510FA0CF02943A4EB39
:105140000C04D9E70020D90730BDAEF1200EBEF126
:10515000200F0DD2CEF1200C03FA0CF533FA0EF32A
:105160002A4318BF43F00103C01A61F10001B9E7F7
:1051700021F00041C00A40EA4150C90A01EB045144
:1051800030BD0020002130BD004218BF41F00101B8
:10519000BCEB410F7FF467AFBCEB430F3FF463AF51
:1051A00030BD00BF83F00043FFF7DABEF0B540F238
:1051B000FF7681EA030C16EA115E1EBFB64516EAB9
:1051C0001355B5425AD021EA465141F48011A1FB52
:1051D000024723EA465343F48013AE44A0FB036521
:1051E0000CF0004C36197D41A1FB034747F1000349
:1051F000A0FB0217F619654153F10003094218BFDD
:1052000046F0010640F2FE74B3F5007F13D2AEF50E
:10521000806EA6452BD24CEA0331280341EA155192
:1052200040EA16503203450872F1004250F1000086
:1052300051EB0E51F0BDAEF2FF3EA64517D24CEA3F
:10524000C321E80241EA555140EA5650F2024508AE
:1052500072F1004250F1000051EB0E51F0BD0CF024
:10526000004141F0FE4141F470010020F0BD1EEA12
:105270000E0FF4D50CF000410020F0BD16EA115FCE
:1052800004BF01F000410020004218BF41F00101BD
:1052900016EA135F04BF03F000430022124218BF56
:1052A00043F0010306EA1354B44218BF9EEA060F06
:1052B00003D00CF000410020F0BD21F0004123F0AC
:1052C0000043B1EB065F06D8B3EB065F03D80029B5
:1052D00018BF002BC3D140F20001C7F6F8710020BF
:1052E000F0BD00BF2DE9F04391EA030E0EF0004E31
:1052F00040F20007CFF6E07717EA41051EBF95EAB6
:10530000070F17EA430595EA070F00F0A1807F0D0C
:1053100017EA135623EA475343F4801317EA11554B
:1053200021EA475141F48011AD1B05F2FD354FEAEA
:10533000D31C1CF1010C4FF00047B7FBFCF77F01B9
:10534000A2FB079C0024E3FB07C4DCF1000CD9F1AD
:1053500000097CF1000CA0FB07620020E1FB0720A4
:1053600000275FEAC628E0FB0987760D46EAC226D9
:10537000520DF61900277A41E0FB0C625FEAC82360
:10538000E2FB09375FEA585848EAC628760D18EB61
:10539000070800214E41E2FB0C8602EBC020DA0236
:1053A000E6FB09215B0D43EAC8235FEA58585B1806
:1053B000002758EB0708E6FB0C38D102E8FB091779
:1053C000520D42EAC3225B0DD21900277B41E8FB54
:1053D0000C2308EBC6265FEAC128E3FB0987490DC9
:1053E00041EAC221520DC91942F10002E3FB0C123D
:1053F000470019EB08095CEB010C72EB040453EB5A
:10540000C62047EB56530026B3F5000F7641AD1981
:105410000236D6F1200910FA09F4F04013FA09F225
:105420001043F340E40F001943F10003B3F5001FEC
:1054300024BF5B08013540F2FE77BD4204D24EEA3C
:1054400005511944BDE8F0832D4224D5714626E06C
:10545000004218BF41F00101124218BF43F001039E
:10546000B7EB410F2CBFB7EB430F1BE0B7EB410F7E
:1054700004BFB7EB430F15E017EA410F04BF17EA6B
:10548000430F0FE017EA410FE0D017EA430F02D0B5
:10549000B7EB430FDAD04EF0FE4141F4700100202B
:1054A000BDE8F08340F20001C7F6F871F7E700BFEE
:1054B0004FF4001C1CEB410F98BF1CEB430F0CD8A2
:1054C00050EA410C08BF52EA430C08D0904208BF92
:1054D00099420CBF01200020704700207047012036
:1054E000704700BF4FF4001C1CEB410F98BF1CEB32
:1054F000430F11D851EA030C50EA4C0C5CEA020C41
:105500000AD004D282428B4180414042704790428F
:105510009941804140427047002070474FF4001C81
:105520001CEB410F98BF1CEB430F11D851EA030C41
:1055300050EA4C0C5CEA020C0AD004D29042994129
:1055400080414042704782428B41804140427047D7
:105550000020704742007FEA525201D1020307D176
:105560004A007FEA525201D10A0301D1002070475C
:105570000120704780B110F0004248BFD0F1000018
:10558000120D02F21D42B0FA80F18840521AC30A8D
:10559000400503EB0251704701007047C0F3C7514B
:1055A00091B142004FEA40704FEAD2014FEA310117
:1055B00001F16051B2F17F4F38BF704701F1605186
:1055C00018BF41F40021704710F0004100207047DF
:1055D00001F000428B1AA3F16051B1F5801F0ADB84
:1055E000B1F17F6F09D242EAC102C10071F10041FD
:1055F00042EB507070471046704701285B4113F52D
:10560000001F04D842F0FE4040F400007047C9007B
:1056100041EA507040EA020040F4800040F08040CF
:10562000704700BF10EE100A4FEA4000B0F17F4F04
:105630000CBF01200020704710EE100A410000202E
:10564000B1F17F4F18BF50EB0000704751EC100BC9
:105650000128494111F5001F8CBF0120002070472F
:10566000B0EEC00A704700BF00B510EE100A00F09F
:1056700003F800EE100A00BD4FF07F43B3EB400F7C
:1056800022D9410008BF704703EA4002120E7F3A58
:1056900014DB172AA8BF70474FF6FF73C0F27F03D1
:1056A000D340184220EA030018BF10F0004F08BF93
:1056B00070474FF40001D1404018704710F0004F80
:1056C0000CBF00200248704718BF02487047000016
:1056D000000080BF0000C07F00B5014610EE100A38
:1056E00000F003F800EE100A00BD4FF07F43B3EB6B
:1056F000400F98BF704713EA400207D0120E7E3A5F
:105700000A6020EA530040F07C5070470A6000F0C5
:105710000040704710EE103AC3F3C750002800F065
:105720008480002B10EE101A23F07F4223DDFF2827
:1057300000F08C80474B994200F2858042F40002D1
:10574000762825D8C0F176001F286ED8024182FB4A
:105750000213023202EB63029210B2F1404226BF02
:1057600052004FF07A534FF07C53403203EBD21388
:1057700000EE103A7047FF285AD0374B99425FD855
:1057800042F400020029DBD07628C2F10002D9D908
:10579000324910B582FB0113C0F1910E21FA0EF1CE
:1057A00001F1010C5221A0F1710402FB01F1491237
:1057B00003FA04F2E24041FA0EF1723802FA00F004
:1057C000C1EB5C01014426489B1A264A81FB000478
:1057D00002EBA402244882FB012400EBA400234A2C
:1057E00080FB010443FA0EF302EBA4022048214C93
:1057F00082FB012E03F0070C00EBAE0054F82C20C6
:1058000080FB0101491081FB0210024463445100F6
:105810004FEAD3035ABF7D3352007E334032DB055B
:1058200003EBD21300EE103A10BDB7EE000A70473A
:10583000B2F5000FA1D041F4800300EE103A70479A
:105840009FED0D0A70479FED0D0A7047B2F5000FEE
:10585000F1D170471772B1424FACAEC2951D555C85
:1058600000B12B00B72A3B0136C21A0700BEBF1E8B
:10587000FC0BB95844A90000000000000000807F24
:1058800008B52DED028BF0EE408AB0EE608AFFF78E
:10589000D3FE20B1B0EE480ABDEC028B08BDB0EEDD
:1058A000480AFFF7C9FE20B9F4EEC88AF1EE10FAF3
:1058B000F0DDB0EE680ABDEC028B08BDB4EEE00A84
:1058C000F1EE10FA58BFB0EE600A70472DE9F041D2
:1058D00055EC104B8046002210EE100A002329469A
:1058E00010EE106AFFF7E4FD30B1002345EC104BD9
:1058F000C8F80030BDE8F08125F0FF4323F4E00351
:1059000043F07F57C5F30A5347F40017A3F2FE3361
:1059100047EC106BC8F80030BDE8F08100000000D3
:105920002DE9704355EC104B0646002210EE100A8C
:105930000023294610EE108AFFF7BAFDB0B9C5F36F
:105940000A53334440F2FE72934213DC002E01DB13
:10595000002B0FDB002B09DD25F0FF4222F4E002D3
:1059600042EA035949EC108BBDE870839FED060BAA
:10597000BDE8708300F0F6FA074B1B6803609FEDEB
:10598000040BBDE8708300BF0000000000000000B1
:10599000000000000000F07FC8AB00000000000025
:1059A0002DE9F04F85B055EC104BFFF74FFE002866
:1059B00040F0C3800022002320462946FFF778FDEF
:1059C000002840F0BF800022002320462946FFF730
:1059D000A5FD002840F0B18045EC104B03A8FFF76F
:1059E00075FF55EC104B78A3D3E9002310EE100A95
:1059F0002946FFF777FD002840F0A9800399704BF6
:105A00004E1E2046294600220396FFF7CBFB044694
:105A10000D4645EC104B4FF0FF30FFF781FF684B10
:105A200051EC100B0022FFF79BFA02460B46204672
:105A30002946FFF757FC02460B4606460F46FFF77E
:105A4000B5FB4BA3D3E9002304460D46FFF7AEFB9D
:105A500049A3D3E90023FFF783FA49A3D3E900233D
:105A60008046894620462946FFF79CFB22462B4666
:105A7000FFF79CFB44A3D3E90023FFF771FA4246EA
:105A80004B4682468B4620462946FFF78FFB40A3B4
:105A9000D3E90023FFF786FB52465B4680468946E2
:105AA00020462946FFF782FB3BA3D3E90023FFF7FB
:105AB00079FB02460B4640464946FFF713FC024677
:105AC0000B4620462946FFF771FB32463B46FFF75F
:105AD0006DFB02460B460398CDE90023FFF74AFD14
