:1000000000000120750300005D0300005F03000095
:1000100061030000630300006503000000000000AE
:100020000000000000000000000000006703000066
:1000300069030000000000006B0300006D03000076
:100040006F0300006F0300006F0300004D150000F8
:100050006F0300006F0300006F0300006F030000D8
:100060006F0300006F0300006F0300006F030000C8
:100070006F0300006F0300006F0300006F030000B8
:100080006F0300006F0300006F0300006F030000A8
:100090006F0300006F0300006F0300006F03000098
:1000A0006F0300006F0300006F0300006F03000088
:1000B0006F0300006F03000000000000000000005C
:1000C0006F0300006F0300006F0300006F03000068
:1000D0006F0300006F0300006F03000000000000CA
:1000E0000000000000000000000000000000000010
:1000F0000000000000000000000000000000000000
:1001000000000000000000000000000000000000EF
:1001100000000000000000000000000000000000DF
:1001200000000000000000000000000000000000CF
:1001300000000000000000000000000000000000BF
:1001400000000000000000000000000000000000AF
:10015000000000000000000000000000000000009F
:10016000000000000000000000000000000000008F
:10017000000000000000000000000000000000007F
:10018000000000000000000000000000000000006F
:10019000000000000000000000000000000000005F
:1001A000000000000000000000000000000000004F
:1001B000000000000000000000000000000000003F
:1001C000000000000000000000000000000000002F
:1001D000000000000000000000000000000000001F
:1001E000000000000000000000000000000000000F
:1001F00000000000000000000000000000000000FF
:10020000354936480A1A02D0072291438D463449AF
:1002100034480A1A06D00722914381F30988022242
:1002200082F3148830483149314A00F044F83148AB
:100230003149324A00F03FF831483249324A00F041
:100240003AF832483249334A00F035F832483349F7
:10025000334A00F030F833483349344A00F02BF881
:1002600033483449344A00F026F8344834490022EF
:1002700000F02CF833483449002200F027F83348C6
:100280003349091A082902DB002202604160314A21
:1002900090471F481F49884205D00268043003B4C4
:1002A000904703BCF7E700208646EC46002000217B
:1002B000294A9047FEE7884207D0521A05D00378B2
:1002C00001300B700131013AF9D17047884202D0F8
:1002D00002700130FAE770470000012000E00020C2
:1002E00000000120000001203481000000000020F7
:1002F00018000020D0030000D00300001C6800009C
:100300003481000000000020000000201C68000074
:100310001C6800001C6800001C6800001C680000CD
:100320001C6800001C6800001C680000348100008C
:100330004C81000018000020180000201800002048
:100340003018002030180020341800203418002005
:10035000343800209D03000009160000FEE7FEE788
:10036000FEE7FEE7FEE7FEE7FEE7FEE7FEE7FEE765
:1003700000F002B8FFF7FCBF0F484FF007018843B9
:1003800085460E4880470E48016841F470010160BF
:10039000BFF34F8FBFF36F8FFFF732BF09480A4992
:1003A0000A4A884207D0521A05D0037801300B70F0
:1003B0000131013AF9D1704700000120A91C000069
:1003C00088ED00E01C680000000000200000002014
:1003D000004870472818002004F0C4B900B583B065
:1003E0000190019B1B68184600F0D7F80346002BCC
:1003F00004D105494FF4F67000F006FA4FF0A0431F
:10040000184603B05DF804FB1C68000000B585B019
:100410000190084611461A4603468DF803300B46F4
:100420008DF8023013468DF8013001AB1846FFF706
:10043000D5FF03909DF803209DF802305B001A431E
:100440009DF801309B001A439DF818301B0242EAC8
:1004500003019DF81C301B04019A1943039B02F50C
:10046000E07243F8221000BF05B05DF804FB00B550
:1004700085B0039000230193002300930023012201
:1004800001210398FFF7C2FF00BF05B05DF804FB30
:1004900000B585B003900B468DF80B309DF80B30FE
:1004A0000022019200220092002200210398FFF70F
:1004B000ADFF00BF05B05DF804FB00B585B001904D
:1004C00001AB1846FFF78AFF0390019B012202FA55
:1004D00003F31946039800F04CF800BF05B05DF82F
:1004E00004FB00B585B0019001AB1846FFF776FF1D
:1004F0000390019B012202FA03F31946039800F0CE
:1005000042F800BF05B05DF804FB00B585B001906E
:1005100001AB1846FFF762FF0390039BD3F8043545
:100520000293029BDA43019B012101FA03F31A4073
:10053000039BC3F80825019B01229A40029B1A40A5
:10054000039BC3F80C2500BF05B05DF804FB00B5A4
:1005500083B001900091009B002B03D10198FFF71D
:10056000C0FF02E00198FFF7A8FF00BF03B05DF8ED
:1005700004FB82B001900091019B009AC3F808250A
:1005800000BF02B0704782B001900091019B009AB9
:10059000C3F80C2500BF02B0704784B00190019BE6
:1005A0005B09029300230393029B002B03D14FF0BE
:1005B000FF33039300BF019B03F01F030193039AD2
:1005C000019B22FA03F303F00103002B14BF012364
:1005D0000023DBB2184604B07047000000B583B0BA
:1005E0000190019B032B03D90749472000F00CF928
:1005F000064A019B13441B7801211846FFF7A7FF09
:1006000000BF03B05DF804FB4C6800009868000070
:1006100000B583B00023019305E00198FFF7DEFFEA
:10062000019B01330193019B032BF6D900BF00BF4F
:1006300003B05DF804FB000000B583B00190019B9E
:10064000032B03D907495F2000F0DEF8064A019B1F
:1006500013441B781846FFF758FF00BF03B05DF83E
:1006600004FB00BF4C6800009868000000B583B030
:100670000023019309E0094A019B13441B781846A3
:10068000FFF7F5FE019B01330193019B032BF2D988
:10069000FFF7BEFF00BF03B05DF804FB98680000E1
:1006A00000B583B0002301930AE0094A019B13447B
:1006B0001B7803211846FFF7EBFE019B01330193E2
:1006C000019B032BF1D900BF00BF03B05DF804FB11
:1006D0009C68000000B583B00190019B03F001030A
:1006E000002B01D0FFF7C2FF019B03F00203002B98
:1006F00001D0FFF7D5FF00BF03B05DF804FB000099
:1007000086B003900291019201238DF817309DF875
:100710001730204A039B13601E4A029B53601D4AF8
:10072000019B9360039B44F20102934212D0039B0E
:1007300044F20202934220D1019B164AD360154B2A
:10074000DB681B68134A9361124BDB685B68114AD4
:10075000D36112E0019B0F4A13610E4B1B699B682A
:100760000C4A53610B4B1B691B680A4A9361094B86
:100770001B695B68074AD36100BF72B600BF00BF48
:100780009DF81730DBB2002BFAD162B600BF00BF74
:1007900006B070471800002000B583B002900091A9
:1007A000019244F2010071466A4600F003F803B07A
:1007B00000BD00BF00B587B003900291019272B6F0
:1007C00000BF039B44F20102934207D0039B44F213
:1007D0000202934205D1019B059303E0019B049320
:1007E00000E000BF074B1B6803F00103002B00D0A3
:1007F00000BE019A02990398FFF782FF00BF07B07D
:100800005DF804FBF0ED00E000B585B00346009113
:10081000ADF80630BDF806300293009B039302AB9F
:100820001A46002144F20200FFF7C4FF00BF05B0E2
:100830005DF804FB82B003468DF807309DF9073060
:10084000002B0CDB9DF8073003F01F0205499DF9D2
:1008500007305B09012000FA02F241F8232000BFB3
:1008600002B0704700E100E082B0034600918DF8CD
:1008700007309DF90730002B0ADB009BDAB20C49E8
:100880009DF907305201D2B20B4483F800230BE0EC
:10089000009BDAB207499DF8073003F00F03043BD1
:1008A0005201D2B20B441A7600BF02B0704700BFAB
:1008B00000E100E000ED00E082B00190019B1B0B25
:1008C0005BB2184602B0704700B583B003460A46D3
:1008D0008DF8073013468DF806309DF80630072B4B
:1008E00003D908496B20FFF78FFF9DF806209DF97B
:1008F000073011461846FFF7B7FF00BF03B05DF899
:1009000004FB00BFA068000000B583B003468DF86B
:1009100007309DF907301846FFF78CFF00BF03B082
:100920005DF804FB82B001900B468DF803309DF812
:100930000330019A134401221A6000BF02B07047CD
:1009400084B001900B46ADF80230BDF80230019A38
:10095000134400221A60BDF80230019A13441B6848
:100960000393039B00BF04B0704782B001900B4615
:10097000ADF80230BDF80230019A13441B68002B19
:1009800014BF01230023DBB2184602B0704782B0C7
:1009900001900091019B009AC3F8042300BF02B0AC
:1009A000704782B001900091019B009AC3F8082320
:1009B00000BF02B0704782B00190019B0522C3F8CE
:1009C000002500BF02B0704782B00190019B002259
:1009D000C3F8002500BF02B0704784B003900291B5
:1009E0000192039B029AC3F80825039B019AC3F85E
:1009F0000C2500BF04B0704782B001900091019BAC
:100A0000009AC3F8242500BF02B0704784B001905B
:100A1000019BD3F8C4340393019B039AC3F8C42405
:100A2000039B184604B0704782B001900B468DF8C6
:100A300003309DF80320019BC3F8882500BF02B056
:100A4000704782B00190019BD3F81835DBB218468D
:100A500002B0704782B001900B468DF803309DF8CC
:100A60000320019BC3F81C2500BF02B0704782B071
:100A700001900091019B009AC3F8002200BF02B0D0
:100A80007047000000B583B00190019B1B681846B9
:100A900000F041F80346002B04D105494FF4F670ED
:100AA000FFF7B2FE4FF0A043184603B05DF804FB19
:100AB000D068000000B585B00190084611461A467E
:100AC00003468DF803300B468DF8023013468DF83F
:100AD000013001AB1846FFF7D5FF03909DF80320C6
:100AE0009DF802305B001A439DF801309B001A43C9
:100AF0009DF818301B0242EA03019DF81C301B04CC
:100B0000019A1943039B02F5E07243F8221000BFDB
:100B100005B05DF804FB84B00190019B5B09029372
:100B200000230393029B002B03D14FF0FF33039369
:100B300000BF019B03F01F030193039A019B22FA5C
:100B400003F303F00103002B14BF01230023DBB2E6
:100B5000184604B0704784B0019003230393019BAF
:100B600003F00103002B02D04FF402430393019BD7
:100B700003F00203002B02D048F201230393019BF0
:100B800003F00403002B02D048F202230393039BDB
:100B9000184604B0704700B583B001900091009BE7
:100BA0005A6B009B9B6A9A4207D00198FFF70CFF93
:100BB0000198FFF700FF002300E00123184603B06F
:100BC0005DF804FB00B58BB005900491039202938D
:100BD000049B002B03D14349AA20FFF715FE049B79
:100BE0001A68049B5B689A4203D13E49AB20FFF729
:100BF0000BFE059B1B791A4613461B019B1A9B0093
:100C0000394A13440993099B93F82E30002B03D0E3
:100C100008230793079B61E0099B039A1A60099BCD
:100C2000029A5A60099B00229A60099B002283F86D
:100C30002D20099B002283F83120099B002283F894
:100C40003020049B5A7B099B83F83820049B18684A
:100C50000023019306230093032300220021FFF7C2
:100C600029FF049B58680023019306230093032364
:100C700000220021FFF71EFF059B1B680893049BC1
:100C80001968049B5B681A460898FFF7A6FE049B48
:100C90009B6819460898FFF7AFFE099B1B68002B5D
:100CA00015D0059B1B681846FFF706FE03461A463B
:100CB000049B1B7B19461046FFF706FE059B1B682D
:100CC0001846FFF7F9FD03461846FFF71DFE099B7E
:100CD000012283F82E2000230793079B18460BB0B0
:100CE0005DF804FB006900003800002000B585B005
:100CF0000190019B1B791A4613461B019B1A9B000E
:100D00000D4A13440393039B93F82E30012B04D018
:100D10000A494FF48570FFF777FD019B1B6802932A
:100D20000298FFF748FE039B022283F82E2000BFA3
:100D300005B05DF804FB00BF38000020006900002A
:100D400000B583B001900091009B5A6B009B9B6A99
:100D50009A420AD2009B5A6A009B5B6B13441B7831
:100D600019460198FFF776FE1EE0009B93F82C30A1
:100D7000002B05D01C210198FFF7D4FD002314E0BF
:100D8000009B1B6A03F04003002B09D01C21019833
:100D9000FFF7C8FD009B012283F82D20002304E00B
:100DA00014210198FFF7BEFD0123184603B05DF83A
:100DB00004FB10B582B001900091009B5A6B009B20
:100DC0009B6A9A4244D2009B5A6A009B5B6BD41880
:100DD0000198FFF736FE03462370009B5B6B5A1C9D
:100DE000009B5A63009B5A6B009B9B6A013B9A4293
:100DF0000AD1009B1B6A03F04003002B04D102219F
:100E00000198FFF734FE1FE0009B5A6B009B9B6A22
:100E10009A4207D1009B1B6A03F04003002B01D1CB
:100E2000012316E0009B5A6B009B9B6A9A420BD1F0
:100E3000009B1B6A03F04003002B05D0009B02229D
:100E400083F82D20002304E020210198FFF76AFD9C
:100E50000123184602B010BD00B585B00190009185
:100E600000238DF80F304FF482710198FFF77DFD5C
:100E70000346002B07D04FF482710198FFF760FD05
:100E800001238DF80F30009B93F82F30002B0FD0EB
:100E90004FF492710198FFF753FD4FF48E71019852
:100EA000FFF74EFD4FF484710198FFF749FD78E09C
:100EB0004FF492710198FFF758FD0346002B0DD0B7
:100EC0004FF492710198FFF73BFD14210198FFF751
:100ED00029FD009B012283F82F2062E04FF48E71E0
:100EE0000198FFF742FD0346002B2BD04FF48E7183
:100EF0000198FFF725FD009B5B6B5A1C009B5A6312
:100F00004FF492710198FFF730FD0346002B0DD08E
:100F10004FF492710198FFF713FD14210198FFF728
:100F200001FD009B012283F82F203AE000990198EF
:100F3000FFF706FF034683F00103DBB2002B30D03E
:100F4000002354E04FF484710198FFF70EFD03462F
:100F5000002B26D04FF484710198FFF7F1FC4FF479
:100F600092710198FFF701FD0346002B0DD04FF45D
:100F700092710198FFF7E4FC14210198FFF7D2FC6D
:100F8000009B012283F82F200BE000990198FFF7C6
:100F900010FF034683F00103DBB2002B01D00023D6
:100FA00025E09DF80F30002B20D0009B002283F815
:100FB0002D20009B93F82F3083F00103DBB2002B30
:100FC00012D000990198FFF7E6FD0346002B14BFED
:100FD00001230023DBB283F00103DBB203F0010342
:100FE000DAB2009B83F82F20002300E0012318468B
:100FF00005B05DF804FB000000B587B001900091DA
:1010000000230593384B03934FF482710198FFF747
:1010100097FC4FF492710198FFF792FC4FF48E7198
:101020000198FFF78DFC4FF484710198FFF788FC5D
:1010300000210198FFF71BFD009B00225A63009BD3
:10104000002283F82F2020210198FFF76BFC009BE2
:1010500093F82D30012B03D008210198FFF762FC93
:1010600000990198FFF76CFE009B1B68002B0DD0C8
:10107000009B40F286229A60009B9B68194601986B
:10108000FFF785FC2AE0039B013B0393039B002BA6
:1010900006DD00990198FFF7DFFE0346002BF2D131
:1010A000009B93F82F30002B0DD00198FFF7AEFC7A
:1010B0000490049B002B04D00498FFF74CFD05908E
:1010C00001E003230593039B002B07DC0198FFF746
:1010D0007BFC0198FFF76FFC03230593059B1846E3
:1010E00007B05DF804FB00BFA086010000B587B023
:1010F00001900091002305933D4B03934FF48271BF
:101100000198FFF71DFC4FF492710198FFF718FC4E
:101110004FF48E710198FFF713FC4FF4847101981E
:10112000FFF70EFC009B00225A63009B002283F80D
:101130002F20009B9B6A012B0AD1009B1B6A03F0A6
:101140004003002B04D102210198FFF790FC03E03B
:1011500001210198FFF78BFC20210198FFF7E2FBAA
:10116000009B93F82D30022B03D000210198FFF74C
:10117000D9FB009B1B68002B0DD0009B40F2862200
:101180009A60009B9B6819460198FFF700FC2AE0D3
:10119000039B013B0393039B002B06DD0099019801
:1011A000FFF75AFE0346002BF2D1009B93F82F3035
:1011B000002B0DD00198FFF729FC0490049B002B15
:1011C00004D00498FFF7C7FC059001E003230593C2
:1011D000039B002B07DC0198FFF7F6FB0198FFF754
:1011E000EAFB03230593059B184607B05DF804FB53
:1011F000A086010030B587B0039002910192009360
:1012000000230593029B93F82D30012B05D1019B00
:101210001B78012B01D108236DE0029B93F82D3040
:10122000022B05D1019B1B78012B01D0082362E022
:1012300032490398FFF7B5FB029B93F83030DBB2DD
:10124000002B09D0029B9B6819460398FFF79FFB70
:1012500011230593059B4EE0009B03F00403002B34
:101260000CBF01230023DAB2029B83F83020029BDB
:10127000009A1A62029B019A03F10C0415460FCDE5
:101280000FC42B682360019B5A68029B9A62019BE2
:10129000DA68029B5A62019B5B7819460398FFF754
:1012A000C3FB019B1B78012B17D0019B1B78002BE4
:1012B00004D1009B03F02003002B01D0012300E0A8
:1012C000002303F00103DAB2029B83F82C20029979
:1012D0000398FFF791FE059004E002990398FFF749
:1012E00005FF0590029B1B68002B03D1029B002287
:1012F00083F83020059B184607B030BD86420400B5
:1013000000B587B003900291019200230593039BDF
:101310001B791A4613461B019B1A9B00144A13445F
:101320000493049B1B68002B08D1029B1B78022BA3
:1013300004D1104940F28620FFF766FA049B1B682F
:10134000002B08D1029B1B78032B04D1094940F2E2
:101350008720FFF759FA039B1868019B029A0499AA
:10136000FFF748FF0590059B184607B05DF804FBA2
:10137000380000200069000000B58BB00390019296
:1013800000930B468DF80B3000238DF814309DF838
:101390000B308DF81530009B069300230793019BBB
:1013A0000893002309939DF83030002B01D02022B0
:1013B00000E0002205AB19460398FFF7A1FF0346A2
:1013C00018460BB05DF804FB00B58BB0039001929A
:1013D00000930B468DF80B3001238DF814309DF8E7
:1013E0000B308DF81530009B069300230793019B6B
:1013F00008930023099305AB002219460398FFF7D1
:101400007FFF034618460BB05DF804FB30B58BB088
:1014100001900091009B1B68002B04D14A4940F2C7
:10142000BA20FFF7F1F900990198FFF715FD03467F
:10143000002B40F08680009B93F82F3083F001034F
:10144000DBB2002B33D0009B1B7B022B03D0009B15
:101450001B7B032B2BD1009B5A6A009B9B699A42F2
:1014600025D1009BDA69009B5A62009B5A69009B58
:101470009A62009B1B6A03F02003002B14BF012318
:101480000023DAB2009B83F82C20009B002283F813
:101490002D20009B1B7B032B04D100990198FFF7A3
:1014A000ABFD4FE000990198FFF720FE4AE0009B5A
:1014B00004AC03F10C050FCD0FC42B682360009B17
:1014C00093F82F30002B22D00198FFF79FFA099054
:1014D000099B03F00203002B03D001238DF80C308D
:1014E00018E0099B03F00403002B03D002238DF8BE
:1014F0000C300FE0099B03F00103002B03D0032302
:101500008DF80C3006E004238DF80C3002E0002347
:101510008DF80C30009B002283F83020009B1B6A62
:1015200003F00403002B04D0009B93F82F30002B12
:1015300008D0009B1B68009A516803AA1046984780
:1015400000E000BF0BB030BD0069000008B50349E2
:101550000348FFF75BFF00BF08BD00BF3800002055
:101560000030004000B585B00190019B002B0AD0EF
:10157000074B43F001030393019B9B010293039BE1
:101580000298984700E000BF05B05DF804FB00BF7B
:101590009069000000B583B00190019B002B0AD038
:1015A0004FF47A70FFF7DEFF019B013B0193019B33
:1015B000002BF5D100E000BF03B05DF804FB000094
:1015C00084B003468DF80730044B03939DF8072041
:1015D000039B1A6000BF04B0704700BF1C050040A9
:1015E00084B0002302930023019304230293042375
:1015F0000193044B0393039B1B68DBB2184604B0B2
:10160000704700BF1C05004000B583B00120FFF704
:1016100061F83420FFF7D4FFFFF7E2FF03461A46D4
:10162000154B1A60144B1B680133134A136001F009
:101630008DFA0346002B04DA104802F0A3FC0023C5
:1016400015E00F4802F09EFC01F0DAFA0023019346
:1016500009E0019B1846FEF7EFFFC820FFF79AFF4D
:10166000019B01330193019B032BF2DDECE718464C
:1016700003B05DF804FB00BF740000205469000053
:1016800078690000BFF34F8F00BF064BDB6803F49F
:10169000E0620449044B1343CB60BFF34F8F00BF9C
:1016A00000BFFDE700ED00E00400FA0582B01D4B2D
:1016B0001B68B3F1FF3F0AD11B4B1B68DBB20193E0
:1016C0001A4B1B681B0903F00F03009305E0154B31
:1016D0001B680193164B1B680093019B062B1DD1C1
:1016E000009B033B042B17D801A252F823F000BF44
:1016F00005170000091700000D1700001117000062
:101700001517000001230AE0012308E0012306E089
:10171000012304E0012302E0012300E00023184636
:1017200002B0704730010010E00F00F0E80F00F049
:101730003401001082B0174B1B68DBB20193164BCB
:101740001B681B0903F00F030093019B062B1DD19F
:10175000009B033B042B17D801A252F823F000BFD3
:1017600075170000791700007D1700008117000031
:101770008517000001230AE0002308E0002306E0AB
:10178000002304E0002302E0002300E000231846C9
:1017900002B07047E00F00F0E80F00F082B01D4B80
:1017A0001B68B3F1FF3F0AD11B4B1B68DBB20193EF
:1017B0001A4B1B681B0903F00F03009305E0154B40
:1017C0001B680193164B1B680093019B062B1DD1D0
:1017D000009B033B042B17D801A252F823F000BF53
:1017E000F5170000F9170000FD17000001180000B0
:1017F0000518000001230AE0012308E0012306E0A8
:10180000012304E0012302E0012300E00023184645
:1018100002B0704730010010E00F00F0E80F00F058
:101820003401001082B0174B1B68DBB20193164BDA
:101830001B681B0903F00F030093019B062B1DD1AE
:10184000009B033B042B17D801A252F823F000BFE2
:1018500065180000691800006D180000711800007C
:101860007518000001230AE0002308E0002306E0C9
:10187000002304E0002302E0002300E000231846D8
:1018800002B07047E00F00F0E80F00F082B01D4B8F
:101890001B68B3F1FF3F0AD11B4B1B68DBB20193FE
:1018A0001A4B1B681B0903F00F03009305E0154B4F
:1018B0001B680193164B1B680093019B062B1DD1DF
:1018C000009B033B042B17D801A252F823F000BF62
:1018D000E5180000E9180000ED180000F1180000FC
:1018E000F518000001230AE0012308E0012306E0C7
:1018F000012304E0012302E0012300E00023184655
:1019000002B0704730010010E00F00F0E80F00F067
:101910003401001082B0174B1B68DBB20193164BE9
:101920001B681B0903F00F030093019B062B1DD1BD
:10193000009B033B042B17D801A252F823F000BFF1
:1019400055190000591900005D19000061190000C7
:101950006519000001230AE0002308E0002306E0E7
:10196000002304E0002302E0002300E000231846E7
:1019700002B07047E00F00F0E80F00F082B0174BA4
:101980001B68DBB20193164B1B681B0903F00F03A6
:101990000093019B062B1DD1009B033B042B17D802
:1019A00001A252F823F000BFBD190000C1190000C8
:1019B000C5190000C9190000CD19000001230AE073
:1019C000002308E0002306E0002304E0002302E0F7
:1019D000002300E00023184602B07047E00F00F03B
:1019E000E80F00F082B01D4B1B68B3F1FF3F0AD136
:1019F0001B4B1B68DBB201931A4B1B681B0903F0DE
:101A00000F03009305E0154B1B680193164B1B68F1
:101A10000093019B062B1DD1009B033B042B17D881
:101A200001A252F823F000BF3D1A0000411A000045
:101A3000451A0000491A00004D1A000000230AE070
:101A4000002308E0012306E0012304E0012302E073
:101A5000012300E00023184602B070473001001057
:101A6000E00F00F0E80F00F03401001082B01D4BD1
:101A70001B68B3F1FF3F0AD11B4B1B68DBB201931C
:101A80001A4B1B681B0903F00F03009305E0154B6D
:101A90001B680193164B1B680093019B062B1DD1FD
:101AA000009B033B042B17D801A252F823F000BF80
:101AB000C51A0000C91A0000CD1A0000D11A000092
:101AC000D51A000001230AE0012308E0012306E003
:101AD000012304E0012302E0012300E00023184673
:101AE00002B0704730010010E00F00F0E80F00F086
:101AF0003401001082B01D4B1B68B3F1FF3F0AD1C7
:101B00001B4B1B68DBB201931A4B1B681B0903F0CC
:101B10000F03009305E0154B1B680193164B1B68E0
:101B20000093019B062B1DD1009B033B042B17D870
:101B300001A252F823F000BF4D1B0000511B000012
:101B4000551B0000591B00005D1B000001230AE02B
:101B5000012308E0012306E0012304E0012302E061
:101B6000012300E00023184602B070473001001046
:101B7000E00F00F0E80F00F03401001082B0154BC8
:101B80001B680193144B1B680093019B062B1DD10E
:101B9000009B033B042B17D801A252F823F000BF8F
:101BA000B51B0000B91B0000BD1B0000C11B0000DD
:101BB000C51B000000230AE0002308E0002306E024
:101BC000012304E0012302E0012300E00023184682
:101BD00002B07047300100103401001082B0154B84
:101BE0001B680193144B1B680093019B062B1DD1AE
:101BF000009B033B042B17D801A252F823F000BF2F
:101C0000151C0000191C00001D1C0000211C0000F8
:101C1000251C000000230AE0002308E0002306E062
:101C2000002304E0012302E0012300E00023184622
:101C300002B07047300100103401001008B5FFF702
:101C4000CDFF0346002B07D04FF010234FF080420A
:101C5000D3F80832C2F8583500BF08BD00BF044BA6
:101C6000D3F80034002BFAD000BF00BF704700BF8C
:101C700000E0014000B583B00190054A019BC2F825
:101C80000435FFF7EBFF00BF03B05DF804FB00BFB6
:101C900000E00140024B034A1A6000BF704700BFDA
:101CA000000000200090D00308B5FFF7FFFC0346BA
:101CB000002B06D0964B1B681B0A964A03F01F03A5
:101CC0001360FFF737FD0346002B02D0924B934A77
:101CD0001A60FFF763FD0346002B06D0904B1B688C
:101CE0005B0B904A03F007031360FFF79BFD03466D
:101CF000002B05D08C4BDB688B4A23F08073D360BC
:101D0000FFF7C4FD0346002B0ED04FF080430022A6
:101D1000C3F80C214FF080430022C3F810214FF08C
:101D200080430022C3F83825FFF7F4FD0346002B5B
:101D300002D07E4B03221A60FFF720FE0346002BE1
:101D40000BD07B4B05221A607A4B01221A607A4B2A
:101D500000221A60794B3F221A60FFF743FE0346C8
:101D6000002B76D04FF08053754AD3F80434C2F874
:101D700020354FF08053724AD3F80834C2F8243526
:101D80004FF080536E4AD3F80C34C2F828354FF028
:101D900080536B4AD3F81034C2F82C354FF080537F
:101DA000674AD3F81434C2F830354FF08053644A90
:101DB000D3F81834C2F834354FF08053604AD3F862
:101DC0001C34C2F840354FF080535D4AD3F82034BC
:101DD000C2F844354FF08053594AD3F82434C2F83E
:101DE00048354FF08053564AD3F82834C2F84C3562
:101DF0004FF08053524AD3F82C34C2F850354FF08C
:101E000080534F4AD3F83034C2F854354FF08053E2
:101E10004B4AD3F83434C2F860354FF08053484A07
:101E2000D3F83834C2F864354FF08053444AD3F8BD
:101E30003C34C2F868354FF08053414AD3F84034FF
:101E4000C2F86C354FF080533D4AD3F84434C2F8A1
:101E50007035FFF70BFE0346002B05D0394B1B688E
:101E6000394A03F04F031360FFF744FE0346002B8B
:101E70000DD04FF08043D3F8003403F00103002B62
:101E800005D04FF080436FF00102C3F80024FFF744
:101E900075FE0346002B05D02C4B1B682B4A43F4E0
:101EA000806313602A4BD3F88830294A43F47003C7
:101EB000C2F88830BFF34F8F00BFBFF36F8F00BFF2
:101EC000FFF7BCFE4FF01023D3F80032002B05DBE8
:101ED0004FF01023D3F80432002B15DA0120FFF75E
:101EE000C9FE4FF010231522C3F80022FFF7B6FEFB
:101EF0004FF010231522C3F80422FFF7AFFE002095
:101F0000FFF7B8FEFFF7BEFBFFF7C4FE00BF08BD3A
:101F1000240300104035014074C007400DF0ADBAF5
:101F2000440200103C050040F0ED00E0A005004038
:101F30001056004088560040185600401456004085
:101F400000C0004058020010E40E00403C17004062
:101F500000ED00E082B001900091019B1B78002B06
:101F600003D1044B01221A7000E000BF00BF02B091
:101F7000704700BF7800002010B586B00A4B01AC56
:101F80000FCB84E80F0001A90023084A0848FEF798
:101F900019FE0590059B002B02D10548FEF7A6FE11
:101FA000059B184606B010BDA0690000551F000033
:101FB0009869000000B589B00492039303468DF838
:101FC00017300B468DF816309DF817308DF8183005
:101FD0009DF816308DF81930164B00221A7006AA9B
:101FE0000123009302236B211348FFF7C5F90790E3
:101FF00000BF104B1B78DBB283F00103DBB2002B78
:10200000F7D10C4B00221A70039B049A6B210A48EB
:10201000FFF7DAF9079000BF064B1B78DBB283F0BD
:102020000103DBB2002BF7D1079B184609B05DF81E
:1020300004FB00BF780000209869000000B589B05B
:1020400003468DF80F300B468DF80E3013468DF891
:102050000D309DF80F308DF814309DF80E308DF84E
:1020600015309DF80D308DF81630124B00221A7085
:1020700005AA0023009303236B210F48FFF77CF987
:102080000790079B0693069B002B04D00B4AC821A0
:102090000698FEF781FB00BF064B1B78DBB283F08E
:1020A0000103DBB2002BF7D1079B184609B05DF89E
:1020B00004FB00BF7800002098690000B0690000B0
:1020C00010B588B00446084611461A4623468DF8D6
:1020D0000F3003468DF80E300B468DF80D30134649
:1020E0008DF80C309DF80F308DF814309DF80E30BF
:1020F0008DF815309DF80D308DF816309DF80C30A8
:102100008DF81730114B00221A7005AA0023009396
:1021100004236B210E48FFF72FF90790079B0693C6
:10212000069B002B04D00B4AD4210698FEF734FB03
:1021300000BF064B1B78DBB283F00103DBB2002B40
:10214000F7D1079B184608B010BD00BF78000020EB
:1021500098690000B069000000B589B003900B4693
:102160000192ADF80A30BDF80A3007EE903AB8EEA9
:10217000677ADFED2A6AC6EE877AB7EE007A77EEE5
:10218000C77A17EE900A01F06DFA02460B4643EC4F
:10219000102B01F069FC53EC102B1046194601F08E
:1021A0007BFA03460793039BDB8A07EE903AB8EE6F
:1021B000677ADDED076AC6EE877A9FED197A77EECA
:1021C000677ACDED067AF7EE006A9DED067AC6EEE7
:1021D000877A9FED147A77EEC77ACDED057ADDED3B
:1021E000057AFDEEE77A17EE902A019B1A60F7EE6A
:1021F000000A9DED050A01F007FEF0EE407A9FED22
:102200000A7A67EE877AFDEEE77A17EE902A019B4D
:102210005A6000BF09B05DF804FB00BF00008044B5
:102220000FCF5B3B339388430024744982B003464D
:102230008DF807300B468DF806301346ADF80430A4
:102240009DF807309BB29B009AB29DF80610BDF82E
:10225000043041FA03F39BB203F003039BB2134330
:102260009BB2184602B0704786B00390029101926B
:10227000029B1B7A043B0B2B45D801A252F823F09A
:10228000B1220000072300000723000007230000FD
:102290000723000007230000072300000723000096
:1022A000C5220000DB22000007230000F12200000D
:1022B000039BDB682A4A82FB03129211DB17D31AB5
:1022C000059323E0039B9B685B42264A82FB031233
:1022D0001213DB17D31A059318E0039B9B685B422C
:1022E0001F4A82FB0312D211DB17D31A05930DE0AC
:1022F000039B9B685B421A4A82FB03129211DB1715
:10230000D31A059302E00023059300BF029B5B886C
:102310001A46059B02FB03F3002B01DA03F2FF339D
:102320009B120493049B0E4A82FB03129211DB174B
:10233000D21A019B1A60049A094B83FB021399116C
:10234000D317CB1A4FF47A7101FB03F3D31A4FF46E
:102350007A7203FB02F2019B5A6000BF06B070471D
:10236000D34D6210AD8BDB6800B587B0034600919A
:10237000ADF8063000230593059B6B4A1A60059B58
:102380006A4A5A60059B6A4A9A60059B694ADA6004
:10239000059B694A1A6100230493049B45F23D7230
:1023A0005A80049B40F28A429A80049B00221A724F
:1023B000049B4DF6D0521A80BDF80630273B142BF3
:1023C00000F2A98001A252F823F000BF21240000EE
:1023D0008324000017250000E5240000732400007A
:1023E00017250000172500001725000017250000FD
:1023F00017250000172500001725000017250000ED
:1024000017250000172500001725000017250000DC
:10241000B3240000172500008F240000A124000031
:10242000049B1B881A4641F2883302FB03F3002BFE
:1024300001DA03F2FF339B120393039B3F4A82FBB3
:1024400003129211DB17D21A009B1A60039A3B4BBE
:1024500083FB02139911D317CB1A4FF47A7101FB46
:1024600003F3D31A4FF47A7203FB02F2009B5A6013
:1024700054E0049B9B88009A19460598FFF76CFE70
:102480004CE0009A04990598FFF7EEFE46E0049BA5
:102490009B791A46009B1A60009B00225A603DE01F
:1024A000049BDB791A46009B1A60009B00225A604D
:1024B00034E0059B9B68224A82FB03129214DB17CF
:1024C000D21A009B1A60059B9A681D4B83FB02136E
:1024D0009914D317CB1A174901FB03F3D31A009AA7
:1024E00053601BE0059BDB68154A82FB03129214C4
:1024F000DB17D21A009B1A60059BDA68104B83FB2E
:1025000002139914D317CB1A0A4901FB03F3D31A08
:10251000009A536002E06FF0850300E00023184644
:1025200007B05DF804FB00BFF0523F0000093D001A
:10253000F049020040420F0020A10700D34D621075
:1025400083DE1B4300B587B0034602928DF80F303F
:102550000B468DF80E309DF80F308DF810309DF839
:102560000E308DF81130164B00221A7004AA012388
:10257000009302236B211348FEF7FEFE059000BF77
:102580000F4B1B78DBB283F00103DBB2002BF7D1DA
:102590000B4B00221A700123029A6B210948FEF7A7
:1025A00013FF059000BF064B1B78DBB283F00103DD
:1025B000DBB2002BF7D1059B184607B05DF804FB92
:1025C000780000209869000010B582B0514B1B685C
:1025D00006331A4634210320FFF7B4FF0346019364
:1025E000019B002B01D0019B91E04A4B1B680733F4
:1025F0001A4636210320FFF7A5FF03460193019BEE
:10260000002B01D0019B82E00B23434A10210520BF
:10261000FFF7D0FC03460193019B002B01D0019BE7
:1026200075E03D4B5B783C4A51793A4A1468002288
:102630001846FFF7FBFD03462380374B9B78364A4D
:102640005179344A146802221846FFF7EFFD034619
:10265000A380314B1B7A304A917A2E4A14680422A7
:102660001846FFF7E3FD034663802A4B1B682A4A9E
:1026700012781A72012201210520FFF7DFFC0346C0
:102680000193019B002B01D0019B40E0012200211E
:102690000520FFF7D3FC03460193019B002B01D0DB
:1026A000019B34E01B4B1B685B7A03F00103002B9A
:1026B00014BF012300238DF80330164B1B68093328
:1026C0001A4607210220FFF73DFF03460193019BB5
:1026D000002B01D0019B1AE09DF8033083F0010329
:1026E000DBB2002B12D00B4B1B685B7A03F00103AB
:1026F000002B0BD0012200210220FFF79FFC034694
:102700000193019B002B01D0019B00E0019B184627
:1027100002B010BD7C0000208000002000B585B014
:1027200000238DF80B300023009301AB00221A60C8
:10273000C3F803200DF10B0201230C210820FFF741
:1027400039FC03460393039B002B01D0039B98E1C4
:10275000002205210820FFF771FC03460393039B29
:10276000002B01D0039B8CE117220A210420FFF7E4
:1027700065FC03460393039B002B01D0039B80E180
:102780000DF10B0201230F210420FFF713FC034678
:102790000393039B002B01D0039B72E102220F21C4
:1027A0000420FFF74BFC03460393039B002B01D04F
:1027B000039B66E10DF10B0201230F210420FFF7BB
:1027C000F9FB03460393039B002B01D0039B58E1C5
:1027D0000DF10B0201230A210420FFF7EBFB034656
:1027E0000393039B002B01D0039B4AE10F220B2193
:1027F0000420FFF723FC03460393039B002B01D027
:10280000039B3EE10DF10B0201230C210420FFF795
:10281000D1FB03460393039B002B01D0039B30E1C4
:1028200090220C210420FFF709FC03460393039B2D
:10283000002B01D0039B24E10DF10B0201230D219C
:102840000420FFF7B7FB03460393039B002B01D043
:10285000039B16E118220D210420FFF7EFFB03462E
:102860000393039B002B01D0039B0AE10DF10B02A4
:1028700001230E210420FFF79DFB03460393039BD6
:10288000002B01D0039BFCE098220D210420FFF7D0
:10289000D5FB03460393039B002B01D0039BF0E081
:1028A0000DF10B0201230F210420FFF783FB0346E8
:1028B0000393039B002B01D0039BE2E00DF10B027D
:1028C000012310210420FFF775FB03460393039BAC
:1028D000002B01D0039BD4E001220A210520FFF741
:1028E000ADFB03460393039B002B01D0039BC8E081
:1028F00007220C210320FFF7A1FB03460393039B50
:10290000002B01D0039BBCE004220D210320FFF724
:1029100095FB03460393039B002B01D0039BB0E080
:102920000023252208210320FFF7CAFB0346039357
:10293000039B002B01D0039BA3E001239A220A21D1
:102940000320FFF7BDFB03460393039B002B01D03D
:10295000039B96E0052201210220FFF76FFB03464F
:102960000393039B002B01D0039B8AE001222421C7
:102970000520FFF763FB03460393039B002B01D065
:10298000039B7EE0012200210520FFF757FB034651
:102990000393039B002B01D0039B72E001220121D2
:1029A0000520FFF74BFB03460393039B002B01D04D
:1029B000039B66E0012204210320FFF73FFB03464F
:1029C0000393039B002B01D0039B5AE00DF10B02F4
:1029D000012334210320FFF7EDFA03460393039B01
:1029E000002B01D0039B4CE00DF10B02012336219B
:1029F0000320FFF7DFFA03460393039B002B01D06C
:102A0000039B3EE06A460B2310210520FFF7D2FA14
:102A100003460393039B002B01D0039B31E001226B
:102A200001210520FFF70AFB03460393039B002BBC
:102A300001D0039B25E0012200210520FFF7FEFACB
:102A400003460393039B002B01D0039B19E00DF178
:102A50000B02012307210220FFF7ACFA0346039380
:102A6000039B002B01D0039B0BE0012200210220DD
:102A7000FFF7E4FA03460393039B002B01D0039B6B
:102A8000FFE7184605B05DF804FB000000B585B00F
:102A9000FFF79AFD0390039B002B01DA039B48E0AC
:102AA00001AB19462720FFF75FFC019B07EE903A28
:102AB000B8EEE77A029B07EE903AF8EEE76A9FEDF0
:102AC0001F6AC6EE867A77EE277A1D4BC3ED007A31
:102AD00001AB19462B20FFF747FC019B07EE903A0C
:102AE000B8EEE77A029B07EE903AF8EEE76A9FEDC0
:102AF000136AC6EE867A77EE277A124BC3ED007A18
:102B000001AB19462820FFF72FFC019B07EE903AF6
:102B1000B8EEE77A029B07EE903AF8EEE76A9FED8F
:102B2000076AC6EE867A77EE277A074BC3ED007AFE
:102B30000023184605B05DF804FB00BF002474496B
:102B4000A0000020A8000020A400002000B589B04B
:102B500001AB00221A605A609A60DA60224B04933B
:102B6000FFF70AFA03460793079B002B01D0079B48
:102B700035E0FFF7D3FD0790079B002B01DA079B99
:102B80002DE005AB19463820FFF7EEFB059B07EE5D
:102B9000903AB8EEE77A069B07EE903AF8EEE76ACD
:102BA0009FED126AC6EE867A77EE277A104BC3ED58
:102BB000007A0F4B93ED007AF2EE046AC7EE267AA4
:102BC0000C4BC3ED007A01AB0021184601F0F0FD7B
:102BD00009490A4A4FF00003C1E9002300231846BF
:102BE00009B05DF804FB00BF246A000000247449AA
:102BF0008C000020900000209800002060E3160068
:102C000000B5A7B0FFF742FF2590259B002B04DA03
:102C1000BD4801F0B7F9259BF6E1BC4B2493BC4BB2
:102C2000D3ED007ABB4B93ED007ABB4BD3ED006A3A
:102C30000020DDED241AB0EE661AF0EE470AB0EE81
:102C4000670A01F0FBFD8DED230A01F027FE8DEDF3
:102C5000220AB24BD3ED007AB1EE677AB04BD3EDD6
:102C6000007AF1EE677AF0EE670AB0EE470A01F0FB
:102C70001BFE8DED210AA64BD3ED007AF5EEC07A4E
:102C8000F1EE10FA0BD5A24BD3ED007ABFEE007A2D
:102C9000F4EEC77AF1EE10FA01DDA24A00E0A24A92
:102CA0009B4BD3ED007AFDEEE76A994BD3ED007AAA
:102CB000F5EEC07AF1EE10FA0CDD954B93ED007A4B
:102CC000934BD3ED007AFDEEE77AF8EEE77A77EEF4
:102CD000677A0BE08E4BD3ED007AFDEEE77AB8EE23
:102CE000E77A8B4BD3ED007A77EE677A9FED917A96
:102CF00067EE877AFDEEE77A17EE903A1CA800930C
:102D000016EE903A894901F05DF9824BD3ED007AD5
:102D1000F5EEC07AF1EE10FA0BD57E4BD3ED007ACA
:102D2000BFEE007AF4EEC77AF1EE10FA01DD7D4ACB
:102D300000E07D4A774BD3ED007AFDEEE76A754BF4
:102D4000D3ED007AF5EEC07AF1EE10FA0CDD714B9E
:102D500093ED007A6F4BD3ED007AFDEEE77AF8EE53
:102D6000E77A77EE677A0BE06A4BD3ED007AFDEEF7
:102D7000E77AB8EEE77A674BD3ED007A77EE677AB9
:102D80009FED6C7A67EE877AFDEEE77A17EE903A60
:102D900017A8009316EE903A644901F013F95E4BC0
:102DA000D3ED007AF5EEC07AF1EE10FA0BD55A4B5E
:102DB000D3ED007ABFEE007AF4EEC77AF1EE10FAA6
:102DC00001DD584A00E0584A534BD3ED007AFDEE3E
:102DD000E76A514BD3ED007AF5EEC07AF1EE10FAC6
:102DE0000CDD4D4B93ED007A4B4BD3ED007AFDEEAD
:102DF000E77AF8EEE77A77EE677A0BE0464BD3EDA9
:102E0000007AFDEEE77AB8EEE77A434BD3ED007A2D
:102E100077EE677A9FED477A67EE877AFDEEE77A7D
:102E200017EE903A12A8009316EE903A404901F03E
:102E3000C9F8DDED237AF5EEC07AF1EE10FA0AD585
:102E4000DDED237ABFEE007AF4EEC77AF1EE10FAE8
:102E500001DD344A00E0344ADDED237AFDEEE76A15
:102E6000DDED237AF5EEC07AF1EE10FA0ADDDDED44
:102E7000237AFDEEE77AF8EEE77A9DED237A77EE96
:102E8000677A09E0DDED237AFDEEE77AB8EEE77ABE
:102E9000DDED237A77EE677A9FED267A67EE877A03
:102EA000FDEEE77A17EE903A0DA8009316EE903AF1
:102EB0001F4901F087F8DDED227AF5EEC07AF1EED8
:102EC00010FA0AD5DDED227ABFEE007AF4EEC77A69
:102ED000F1EE10FA01DD134A00E0134ADDED227A2B
:102EE000FDEEE76ADDED227AF5EEC07AF1EE10FA3A
:102EF00022DDDDED227AFDEEE77AF8EEE77A9DED50
:102F0000227A77EE677A21E0248000000024744959
:102F1000A0000020A4000020A80000208C000020B9
:102F20009000002050800000548000005880000075
:102F3000648000000000C842DDED227AFDEEE77AF1
:102F4000B8EEE77ADDED227A77EE677A1FED077A41
:102F500067EE877AFDEEE77A17EE903A08A80093BD
:102F600016EE903A2A4901F02DF8DDED217AF5EEC2
:102F7000C07AF1EE10FA0AD5DDED217ABFEE007AC3
:102F8000F4EEC77AF1EE10FA01DD224A00E0224A9F
:102F9000DDED217AFDEEE76ADDED217AF5EEC07A0E
:102FA000F1EE10FA0ADDDDED217AFDEEE77AF8EEBA
:102FB000E77A9DED217A77EE677A09E0DDED217AF7
:102FC000FDEEE77AB8EEE77ADDED217A77EE677A03
:102FD0009FED127A67EE877AFDEEE77A17EE903A68
:102FE00003A8009316EE903A094900F0EBFF12ABEC
:102FF00017AA1CA90A4800F0C5FF03AB08AA0DA92F
:10300000084800F0BFFF0023184627B05DF804FB16
:103010006480000050800000548000000000C8421E
:10302000708000008880000030B591EA030F00F145
:103030008480841A71EB030C05D2121953EB0C0334
:10304000001B71EB0C0140F2000CCFF6E07C1CEA97
:10305000430F54D0BCEB410F61D90C0DA4EB135EB0
:1030600031EA0C0141F4801133EA0C0343F480137C
:10307000DEF1200C2AD303FA0CF5401941F10001CE
:1030800022FA0EF5401923FA0EF5694112FA0CF2F4
:10309000CD0208D349085FEA30005FEA320228BF58
:1030A00042F001020134013C5FEA500C72F100422F
:1030B00050F1000051EB04514FF4001313EB410F9A
:1030C00038BF30BD090D0905002030BDBEF1200E0E
:1030D000BEF1200F1ED223FA0EF5401941F1000176
:1030E000CEF1200C124218BF012203FA0CF52A433C
:1030F000CEE711EA5C0F04BF0020002130BD1CEABE
:10310000410F04BF01F00041002030BD01F000413B
:10311000002030BD21F4801101EB045130BD00428C
:1031200018BF41F00101BCEB410F08BF30BD4FF0AB
:10313000FE4141F47801002030BD83F00043841A41
:1031400071EB030E07D28EF0004E001B71EB0E01E7
:10315000121953EB0E0340F2000CCFF6E07C1CEA90
:10316000430FC6D0BCEB410F72D90C0DA4EB135E1C
:10317000C90241EA5051C00241F00041DB0243EA7A
:103180005253D20243F00043DEF1200C41D312FA35
:103190000CF522FA0EF203FA0CF542EA050218BF0A
:1031A00042F0010223FA0EF3801A9941E30AC4F3B4
:1031B0000A0411F0404F03D418D0013C40004941AB
:1031C000013C23D44205C00A40EA4150C90A51EAF1
:1031D000C3715FEA500C72F1004250F1000051EBF4
:1031E000045130BD01002FD00020203C0029F9D02F
:1031F000B1FA81FCDCF1200E11FA0CF130FA0EF577
:1032000010FA0CF02943A4EB0C04D9E70020D907ED
:1032100030BDAEF1200EBEF1200F0DD2CEF1200C4C
:1032200003FA0CF533FA0EF32A4318BF43F00103F7
:10323000C01A61F10001B9E721F00041C00A40EA7B
:103240004150C90A01EB045130BD0020002130BDBE
:10325000004218BF41F00101BCEB410F7FF467AFA2
:10326000BCEB430F3FF463AF30BD00BF83F00043BE
:10327000FFF7DABEF0B540F2FF7681EA030C16EAFA
:10328000115E1EBFB64516EA1355B5425AD021EA63
:10329000465141F48011A1FB024723EA465343F40F
:1032A0008013AE44A0FB03650CF0004C36197D4141
:1032B000A1FB034747F10003A0FB0217F619654184
:1032C00053F10003094218BF46F0010640F2FE74B4
:1032D000B3F5007F13D2AEF5806EA6452BD24CEA33
:1032E0000331280341EA155140EA165032034508DC
:1032F00072F1004250F1000051EB0E51F0BDAEF200
:10330000FF3EA64517D24CEAC321E80241EA5551D7
:1033100040EA5650F202450872F1004250F10000B6
:1033200051EB0E51F0BD0CF0004141F0FE4141F473
:1033300070010020F0BD1EEA0E0FF4D50CF0004124
:103340000020F0BD16EA115F04BF01F0004100202B
:10335000004218BF41F0010116EA135F04BF03F0F9
:1033600000430022124218BF43F0010306EA13543F
:10337000B44218BF9EEA060F03D00CF000410020B3
:10338000F0BD21F0004123F00043B1EB065F06D809
:10339000B3EB065F03D8002918BF002BC3D140F25E
:1033A0000001C7F6F8710020F0BD00BF2DE9F04321
:1033B00091EA030E0EF0004E40F20007CFF6E077E0
:1033C00017EA41051EBF95EA070F17EA430595EA7C
:1033D000070F00F0A1807F0D17EA135623EA475329
:1033E00043F4801317EA115521EA475141F4801143
:1033F000AD1B05F2FD354FEAD31C1CF1010C4FF05B
:103400000047B7FBFCF77F01A2FB079C0024E3FB0E
:1034100007C4DCF1000CD9F100097CF1000CA0FB21
:1034200007620020E1FB072000275FEAC628E0FBD7
:103430000987760D46EAC226520DF61900277A4111
:10344000E0FB0C625FEAC823E2FB09375FEA5858E9
:1034500048EAC628760D18EB070800214E41E2FB2A
:103460000C8602EBC020DA02E6FB09215B0D43EA81
:10347000C8235FEA58585B18002758EB0708E6FB9B
:103480000C38D102E8FB0917520D42EAC3225B0D4A
:10349000D21900277B41E8FB0C2308EBC6265FEA24
:1034A000C128E3FB0987490D41EAC221520DC91920
:1034B00042F10002E3FB0C12470019EB08095CEB38
:1034C000010C72EB040453EBC62047EB5653002665
:1034D000B3F5000F7641AD190236D6F1200910FA86
:1034E00009F4F04013FA09F21043F340E40F001915
:1034F00043F10003B3F5001F24BF5B08013540F220
:10350000FE77BD4204D24EEA05511944BDE8F0836E
:103510002D4224D5714626E0004218BF41F001013A
:10352000124218BF43F00103B7EB410F2CBFB7EBBA
:10353000430F1BE0B7EB410F04BFB7EB430F15E0A0
:1035400017EA410F04BF17EA430F0FE017EA410FD4
:10355000E0D017EA430F02D0B7EB430FDAD04EF0BA
:10356000FE4141F470010020BDE8F08340F200010B
:10357000C7F6F871F7E700BF4FF4001C1CEB410FD2
:1035800098BF1CEB430F0CD850EA410C08BF52EA1D
:10359000430C08D0904208BF99420CBF0120002084
:1035A0007047002070470120704700BF4FF4001C97
:1035B0001CEB410F98BF1CEB430F11D851EA030CD1
:1035C00050EA4C0C5CEA020C0AD004D282428B41D5
:1035D000804140427047904299418041404270474B
:1035E000002070474FF4001C1CEB410F98BF1CEBF0
:1035F000430F11D851EA030C50EA4C0C5CEA020C60
:103600000AD004D2904299418041404270478242A0
:103610008B418041404270470020704742007FEA62
:10362000525201D1020307D14A007FEA525201D11E
:103630000A0301D1002070470120704780B110F0CB
:10364000004248BFD0F10000120D02F21D42B0FA54
:1036500080F18840521AC30A400503EB02517047BB
:1036600001007047C0F3C75191B142004FEA40706A
:103670004FEAD2014FEA310101F16051B2F17F4FBF
:1036800038BF704701F1605118BF41F40021704705
:1036900010F000410020704701F000428B1AA3F1A6
:1036A0006051B1F5801F0ADBB1F17F6F09D242EAA8
:1036B000C102C10071F1004142EB507070471046E9
:1036C000704701285B4113F5001F04D842F0FE400B
:1036D00040F400007047C90041EA507040EA02001F
:1036E00040F4800040F08040704700BF10EE100AA8
:1036F0004FEA4000B0F17F4F0CBF0120002070471F
:1037000010EE100A41000020B1F17F4F18BF50EBBE
:103710000000704751EC100B0128494111F5001FC2
:103720008CBF012000207047B0EEC00A704700BF78
:1037300000B510EE100A00F003F800EE100A00BD0C
:103740004FF07F43B3EB400F22D9410008BF7047D1
:1037500003EA4002120E7F3A14DB172AA8BF704713
:103760004FF6FF73C0F27F03D340184220EA0300F4
:1037700018BF10F0004F08BF70474FF40001D14050
:103780004018704710F0004F0CBF002002487047EF
:1037900018BF024870470000000080BF0000C07FD3
:1037A00000B5014610EE100A00F003F800EE100A12
:1037B00000BD4FF07F43B3EB400F98BF704713EA53
:1037C000400207D0120E7E3A0A6020EA530040F011
:1037D0007C5070470A6000F00040704710EE103ACD
:1037E000C3F3C750002800F08480002B10EE101A9D
:1037F00023F07F4223DDFF2800F08C80474B994265
:1038000000F2858042F40002762825D8C0F17600C7
:103810001F286ED8024182FB0213023202EB6302C0
:103820009210B2F1404226BF52004FF07A534FF04F
:103830007C53403203EBD21300EE103A7047FF285E
:103840005AD0374B99425FD842F400020029DBD0AE
:103850007628C2F10002D9D9324910B582FB011392
:10386000C0F1910E21FA0EF101F1010C5221A0F1EB
:10387000710402FB01F1491203FA04F2E24041FA39
:103880000EF1723802FA00F0C1EB5C0101442648E7
:103890009B1A264A81FB000402EBA402244882FB07
:1038A000012400EBA400234A80FB010443FA0EF339
:1038B00002EBA4022048214C82FB012E03F0070CEE
:1038C00000EBAE0054F82C2080FB0101491081FB75
:1038D00002100244634451004FEAD3035ABF7D33C0
:1038E00052007E334032DB0503EBD21300EE103A78
:1038F00010BDB7EE000A7047B2F5000FA1D041F439
:10390000800300EE103A70479FED0D0A70479FED5F
:103910000D0A7047B2F5000FF1D170471772B1422E
:103920004FACAEC2951D555C00B12B00B72A3B01D0
:1039300036C21A0700BEBF1EFC0BB958A480000097
:10394000000000000000807F08B52DED028BF0EE36
:10395000408AB0EE608AFFF7D3FE20B1B0EE480A8D
:10396000BDEC028B08BDB0EE480AFFF7C9FE20B9D6
:10397000F4EEC88AF1EE10FAF0DDB0EE680ABDECA4
:10398000028B08BDB4EEE00AF1EE10FA58BFB0EEBB
:10399000600A70472DE9F04155EC104B804600223B
:1039A00010EE100A0023294610EE106AFFF7E4FD1E
:1039B00030B1002345EC104BC8F80030BDE8F08171
:1039C00025F0FF4323F4E00343F07F57C5F30A5388
:1039D00047F40017A3F2FE3347EC106BC8F8003031
:1039E000BDE8F081000000002DE9704355EC104B5C
:1039F0000646002210EE100A0023294610EE108A17
:103A0000FFF7BAFDB0B9C5F30A53334440F2FE7272
:103A1000934213DC002E01DB002B0FDB002B09DDB2
:103A200025F0FF4222F4E00242EA035949EC108BF0
:103A3000BDE870839FED060BBDE8708300F098FA37
:103A4000074B1B6803609FED040BBDE8708300BF4C
:103A50000000000000000000000000000000F07FF7
:103A6000E8800000000000002DE9F04F85B055EC23
:103A7000104BFFF74FFE002840F0C38000220023C8
:103A800020462946FFF778FD002840F0BF8000223D
:103A9000002320462946FFF7A5FD002840F0B1800D
:103AA00045EC104B03A8FFF775FF55EC104B78A3BE
:103AB000D3E9002310EE100A2946FFF777FD00280E
:103AC00040F0A9800399704B4E1E204629460022E3
:103AD0000396FFF7CBFB04460D4645EC104B4FF029
:103AE000FF30FFF781FF684B51EC100B0022FFF70E
:103AF0009BFA02460B4620462946FFF757FC024632
:103B00000B4606460F46FFF7B5FB4BA3D3E9002350
:103B100004460D46FFF7AEFB49A3D3E90023FFF7A8
:103B200083FA49A3D3E900238046894620462946E3
:103B3000FFF79CFB22462B46FFF79CFB44A3D3E9EF
:103B40000023FFF771FA42464B4682468B462046D9
:103B50002946FFF78FFB40A3D3E90023FFF786FB3D
:103B600052465B468046894620462946FFF782FB3F
:103B70003BA3D3E90023FFF779FB02460B464046FF
:103B80004946FFF713FC02460B4620462946FFF73D
:103B900071FB32463B46FFF76DFB02460B4603982E
:103BA000CDE90023FFF74AFDDDE9002304460D4679
:103BB00030463946FFF738FA2BA3D3E900230646EF
:103BC0000F4620462946FFF755FB02460B46304676
:103BD0003946FFF729FA02460B4620462946144685
:103BE0001D4623A3D3E90023FFF744FB02460B46FF
:103BF00020462946FFF718FA41EC100B05B0BDE846
:103C0000F08F9FED1D0B05B0BDE8F08F9FED1C0BF5
:103C100005B0BDE8F08F0022204629461B4BFFF778
:103C200025FB024645EC104B4FF0FF3014460D4685
:103C300057E700BFAFF3008029BD56B31544E9BF75
:103C4000EDAF16204A6230400FCE674B80D5414021
:103C50007E2615FA838073409AB5B312FF07504051
:103C600077900D9CFE0B8840A80C615C10D02BBF98
:103C7000000000000030E63F000000000000F87F78
:103C8000000000000000F0FF0000E03F0000F03FF7
:103C9000CD3B7F669EA0E63F00B5B5EE400AF1EE53
:103CA00010FA83B060D0B5EEC00AF1EE10FA51D42C
:103CB00001A8FFF775FDDFED317AB4EEE70AF1EE0A
:103CC00010FA38DCB6EE007A70EE477A019BA7EE68
:103CD000877A013BF0EE476A87EEA60A07EE103AB4
:103CE00060EE007A9FED266ADFED265A9FED265A98
:103CF000DFED266ADFED264A37EEC66AA7EEA55A43
:103D0000E7EE866ADFED235A9FED236AE7EE855AD8
:103D1000A7EEA66AB8EEC77AC5EE866A9FED1F5A6F
:103D200066EEA77AA0EE270AA7EE240AA7EE050AF8
:103D300003B05DF804FBF6EE007AE0EE277A9DED25
:103D4000017AF0EE676AF7EE007A70EE677A87EE36
:103D5000A60AC5E700F00CF9114B9FED120A1B688B
:103D6000036003B05DF804FB00F002F90E4B9FED19
:103D70000D0A1B68036003B05DF804FBF304353FD4
:103D800002AC0E42AE204ABF5112834120049C4334
:103D900083805EB9F93F80C2F55F40C40080313F47
:103DA000E4800000000080FFE88000009FED147AAE
:103DB000B4EE470AF1EE10FAF0EE407A12D010EEAF
:103DC000102AC2F3C7537F3B11D4162B12DC0D49C6
:103DD00021FA03F322EA030207EE102A026030EE12
:103DE000470A7047B0EE470A80ED007A704780EDD1
:103DF000007A7047B0EE470AC0ED007A704700BF06
:103E000000000000FFFF7F0000B52DED028BF5EEF6
:103E1000400AF1EE10FA83B04BD0B0EE608AF0EEBB
:103E2000408AFFF76DFC30B1B0EE680A03B0BDEC1C
:103E3000028B5DF804FBB0EE480AFFF761FC002836
:103E400043D1F5EE408AF1EE10FAEDD0B0EE680AFB
:103E5000FFF74CFC00283FD1B0EE480AFFF746FCC4
:103E60000028E1D1B0EE480AFFF75EFCB0EE408AD0
:103E700088EE880A01A8FFF799FFDDED017AF5EEDB
:103E8000C08AB0EE680AF1EE10FAA8EE670AB1EE49
:103E9000487A24DDB4EEC08AF1EE10FA98BF30EE15
:103EA000480AB5EEC00AF1EE10FABFD530EE080AA6
:103EB000BCE700F05DF8114B9FED110A1B68036031
:103EC00003B0BDEC028B5DF804FBB0EE480A03B012
:103ED000BDEC028B5DF804FB9FED090AA6E7B4EE8A
:103EE000C70AF1EE10FA98BF30EE080AB5EEC00A24
:103EF000F1EE10FA9ADD30EE480A97E7E480000010
:103F00000000C07F10B504460846A2684AB1236885
:103F1000616803F1010C8C4508BF00208B4208D278
:103F2000D054E3682BB121686268914201D22146E6
:103F3000984723680133236010BD70B54C1E09D427
:103F40001646C5B229463046FFF7DCFF013CB4F106
:103F5000FF3FF7D170BD10F0100F08D108B510F475
:103F6000007F14BF30202020FFF7E7FF08BD704717
:103F700000B5FCF72DFA024B18445DF804FB00BFB6
:103F8000080000000FB410B586B008AB53F8044B1E
:103F90000593002303936FF000430293084B0493AF
:103FA00000F0DEFB059A214601A800F0BDF80446AA
:103FB00000F0D7FB204606B0BDE8104004B07047C3
:103FC000D90300000EB400B586B007AA52F8041B4E
:103FD00005920390002304936FF00043029301A81D
:103FE00000F0A2F806B05DF804EB03B07047037868
:103FF00053B159B10144034613F8012F12B18B425A
:10400000FAD10B46181A70470346FBE70346F9E757
:10401000844640EA010313F0030F18D18446202A96
:104020000BD32DE9F007B1E8F807A0E8F807A2F1F3
:104030002002202AF7D2BDE8F007042A07D351F85E
:10404000043B40F8043BA2F10402042AF7D2002A00
:1040500005D011F8013B00F8013B013AF9D1604667
:1040600070478446002A2DD010F0030F04D000F8CA
:10407000011B013A26D0F7E7C9B241EA012141EA22
:104080000141202A12D3A2F120022DE9F0030B46B0
:104090000C460D460E460F4688468946A0E8FA03B0
:1040A000203AFBD2BDE8F00320320BD0042A05D31E
:1040B00040F8041B043A05D0042AF9D200F8011B89
:1040C000013AFBD16046704700F1010110F0030F87
:1040D00011D010F8012B002A23D010F0030F0AD0C2
:1040E00010F8012B002A1CD010F0030F03D010F899
:1040F000012B002A15D02DE970004FF001324FF04E
:10410000803350F8044BA4EB020525EA04051D405A
:1041100000D1F6E7A0F1040070BC10F8012B002AD2
:10412000FBD1A0EB010070472DE9F04F89B00746A5
:104130000392002303600C4614F8011B002900F0D1
:10414000FC82DFF818B5EBE2002507E05E2868D1B5
:1041500045F4805501E045F040051C46234613F820
:10416000010B3028F2D81F2837D9A0F12002102ADD
:1041700033D801A151F822F057410000DB41000083
:10418000DB410000BD410000DB410000DB410000DD
:10419000DB410000C3410000DB410000DB410000C7
:1041A000DB410000C9410000DB410000CF410000BD
:1041B000DB410000DB410000D541000045F08005F7
:1041C000CBE745F40045C8E745F02005C5E745F0D5
:1041D0001005C2E745F40075BFE72A2821D1039AEC
:1041E000111D0391D2F800A0BAF1000FBCBFCAF1B3
:1041F000000A45F010051878A31C2AEAEA7A2E284E
:1042000026D00021742847D07A2845D06C2800F0A9
:10421000A8804C2800F0AB80682800F0B8801C46CD
:104220003DE0A0F13002D2B2092A88BF4FF0000A67
:10423000E3D84FF0000A0AEB8A0A303800EB4A0A4A
:1042400013F8010BA0F13002D2B2092AF3D9D4E756
:1042500018782A280AD1039A111D039111685878F9
:1042600002330029CEDB45F48075CBE70133A0F1A2
:104270003002D2B2092A88BF0021F4D8002101EB14
:104280008101303800EB410113F8010BA0F130023D
:10429000D2B2092AF3D9E4E71C4614F8010B00282E
:1042A00000F05782A0F12503DBB2532B62D8A0F1B6
:1042B0002503532B5ED8DFE813F076005D005D0028
:1042C0005D005D005D005D005D005D005D005D0006
:1042D0005D005D005D005D005D005D005D005D00F6
:1042E0005D005D005D005D005D005D005D005D00E6
:1042F0005D005D005D005D005D005D005D005D00D6
:104300005D005D005D005D005D005D005D005D00C5
:104310005D005D005D005D005D005D005D005D00B5
:10432000EC005D005D005D005D005D005D005D0016
:104330005D005D005D007B0021015D005D005D00B2
:104340005D0021015D005D005D005D0095000F01D5
:10435000D2005D005D00A6005D001A015D005D00F9
:10436000EE001C4614F8010B45F0010597E745F0F7
:1043700001051C46B54B1E68002E00F0CE8103AB34
:104380000193009153462A463946B047C5E1187853
:10439000682803D05C1C45F0040580E745F008055B
:1043A0009C1C58787BE725213846FFF7ABFDB4E12C
:1043B000039B1A1D03921E780AF1FF3A3A465146B2
:1043C0002846FFF7C8FD31463846FFF79BFDA94652
:1043D00019F0100F00F0A1813A4651462020FFF756
:1043E000ACFD9AE115F0080F06D03A68039B191D41
:1043F00003911B681A7090E1039B1A1D03921B68BE
:104400003A681A6089E1039B1A1D0392D3F8008071
:104410008F4BB8F1000F08BF9846464625F4007947
:1044200015F4807F16D04046FFF7E1FD0546AAEB64
:10443000050A3A4651464846FFF78DFD002DC7D084
:1044400016F8011B3846FFF75DFDA8EB0603EB42AB
:10445000F6D1BDE74046FFF737FE0546E7E7039B89
:104460001A1D03921B6815F0800F0CBF002623262F
:1044700045F4807508211A46002B00F02A8105AB0F
:104480004FF0000805F4005CA64660468C460146E5
:10449000D2E045F4005515F0800F1BD043F27806AA
:1044A00043F25803782818BF1E4615F4807F01D0C8
:1044B00025F4007515F4804F32D0039B1A1D03922A
:1044C0001B6815F0040F1FD01BB2002B20DA5B42D3
:1044D0002D262DE00026E8E715F0800F0CBF002602
:1044E000302615F4807FE5D025F40075E2E715F459
:1044F000807F07D025F400750026DBE745F4804572
:104500000026D7E70026D5E715F0080FDDD0DBB28F
:1045100015F0200F61D115F0400F18BF202607E0DD
:10452000039B1A1D03921B6815F0040F50D09BB219
:1045300015F4807F14BF25F4007501215838202818
:1045400000F2AF8001A252F820F000BF77440000D3
:10455000A3460000A3460000A3460000A3460000B7
:10456000A3460000A3460000A3460000A3460000A7
:10457000A3460000A3460000A34600000746000033
:10458000A3460000A3460000A3460000A346000087
:1045900007460000A3460000A3460000A346000013
:1045A000A3460000A3460000DF450000774400005A
:1045B000A3460000A3460000A3460000A346000057
:1045C00007460000A3460000A34600007744000011
:1045D00015F0080FACD0DBB2AAE72B26A8E71A46E5
:1045E0004FF00008002B5ED005A84FF0000803F044
:1045F0000703303300F8013B08F10108D2081346E5
:10460000002AF4D14FE018464FF00008002B4AD0A2
:104610004FF0000805F4004E4FF02C0973468E460B
:1046200019462FE002F00F000A4C205C03F8010B42
:1046300008F10108120906D00029F3D002F00F009A
:10464000054C205CF2E7744661462CE0AC0000208B
:10465000EC800000C4800000D4800000CDCCCCCC25
:1046600008AB03EB080CABFB0032D20802EB820371
:10467000A0EB430330330CF80C3C08F10108092887
:104680000DD910460029EBD008F00303032BE7D126
:1046900008AB434403F80C9C08F10108E0E77146BD
:1046A00001E04FF00008A1EB080121EAE179AAEB53
:1046B000090AAAEB080AFF2E0ED9AAF1020AC6F3CC
:1046C00007213846FFF71EFCF1B23846FFF71AFC07
:1046D00004E04FF00008E6E7002E3DD13A4651468F
:1046E0002846FFF738FC3A4649463020FFF725FCBC
:1046F000B8F1000F0EDD0DF1140908F1FF38C844C0
:1047000098F8001046463846FFF7FCFBC14508F113
:10471000FF38F5D115F0100F09D114F8011B61B164
:1047200025293FF411AD3846FFF7ECFBF5E73A4693
:1047300051462020FFF701FCEFE7BB682BB13A6838
:1047400079688A423CBF00219954386809B0BDE8B5
:10475000F08F4FF0FF30F9E70AF1FF3AB4E700BFFE
:104760007047704710B504460146172000F008F85E
:1047700000280CBF20464FF0FF3010BD7047704737
:1047800038B504460D46FFF7F9FF074B1D6044F0AE
:104790008004064B1C601A461368002BFCD1FFF7FF
:1047A000EEFF014B186838BDB4000020B0000020B7
:1047B000002837D0F0B5C36893B005467BB31B4CD7
:1047C0001B481C4F0E4641F278720021FFF749FC4E
:1047D0000FCC0DF1080CACE80F000FCCACE80F00CB
:1047E0000FCCACE80F0094E80F00DFF84CE08CE849
:1047F0000F00E9680E4A9EED002AD7ED001A95EDEC
:10480000021AD5ED010A95ED000A01AB02A800F0ED
:104810001DF90EB1019B3360002013B0F0BD6FF0A5
:104820001500FAE76FF01500704700BFF480000034
:10483000B8000020100000200C00002010B510EE81
:10484000903A002BB5BF0F4B0F4B104A104A196816
:10485000126804460F4886B0C164826402AB01AAA4
:10486000694600F065FC9DED000ADFED0B7A20EE55
:10487000270A2CB10299039A059B21606260A3600C
:1048800006B010BD040000200C000020080000202D
:1048900010000020B80000200000C842014800F0CD
:1048A00061BB00BFB8000020014801F04BBD00BF54
:1048B000B800002070B52DED048BD0ED007AD0ED5E
:1048C000019A90EDC87AF4EEC07AF1EE10FA79EE22
:1048D000E79A0646F0EE408AB0EE609A0D4614461E
:1048E000B4EEC70AC0F29680F1EE10FAF4EEC07A88
:1048F00071DBF1EE10FA66D4002395EDC85AD4EDC1
:10490000C85AD4EDC74A95EDC76AF0EE456AE5EEA0
:10491000896AA4EE896A38EEC77A76EEC66A26EE10
:10492000877A87EE298A38EE058AA5EE898AEBB365
:1049300038EEE70A80EE290AFEF7FAFE6FF04041F2
:10494000D6ED007A78EEE76AF0EE007A86EEA97A84
:1049500070EE277AB7EE006A70EE066AFDEEE77A2F
:1049600037EE400A17EE903AFDEEE67A0B4417EE6A
:10497000902A0A4405EB830104EB830393ED007A4C
:1049800091ED008A05EB820504EB820476EE407A15
:1049900020EE088AD5ED006A20EE070A94ED007A31
:1049A000A6EEA78AA7EE270AA9EE008AB0EE680A4B
:1049B00000F04CFA9FED240A002808BFB0EE480A28
:1049C000BDEC048B70BDF4EEC78AF1EE10FA4CBF5B
:1049D0000123002391E7F1EE10FA2DD40023D5ED49
:1049E000005A94ED006A94ED017AD5ED016AB0EEBB
:1049F000655AE7EE096AA6EE095A38EEE77A76EECE
:104A0000C56A27EE267A87EE298A38EE258AA6EE31
:104A1000098A8CE7F1EE10FAF4EEC07ABFF669AFBE
:104A2000F1EE10FA05D5B4EEC70AF1EE10FA3FF533
:104A30007FAF9FED058AB9E7B4EEC70AF1EE10FA31
:104A40004CBF01230023CAE7000000002DE9F0411C
:104A500014462DED068B4FF07E5222604FF08042BF
:104A600062608AB040220D46014604F10800B0EEB3
:104A700061AAF0EE428A1E46B0EE408AF0EE609ADD
:104A8000B0EE419AFFF7C4FADF4AE049D2F800C01D
:104A90002165002384ED12AAC4ED138A6365A36522
:104AA000E36504F1600004F1C40E40F804CB8645D0
:104AB000C0F860C0F9D14FF07E53C4F8283100230C
:104AC000C4F82CC1C4F830C1C4F834C1C4F83831BA
:104AD000C4F83C31C4F840C14FF4B052294604F543
:104AE000A270FFF795FA95EDC97AD5EDCA6AB4EED2
:104AF000E67AF1EE10FA80F29F8100F14481B0EE87
:104B0000476A01DDB0EE667AD5EDCB7AF4EEE76A5E
:104B1000F1EE10FA80F29681B4EEE76AF1EE10FA47
:104B200000F14281B4EEE77AF1EE10FA40F33A81F7
:104B3000B0EE677A0322F0EE467AB4EEC79AF1EE51
:104B400010FA00F13981B4EE679AF1EE10FAC8BF9D
:104B5000B0EE679A04F5805707F24473C3ED007A0C
:104B600005F5497807F5E96383ED007A404687F853
:104B70004C2700F079F9F0EE400AB0EE490AFEF752
:104B800001FF4046F0EE408A00F0A0F9F0EE400A46
:104B9000B0EE680AFEF7D8FED5EDC97A95EDCA7A6F
:104BA000F4EE407AD5EDCB7AF1EE10FAB4EE407A1D
:104BB0000CBF01230023F1EE10FAF4EE407A8DF8D9
:104BC00004300CBF01230023F1EE10FA8DF80530FC
:104BD00007A90CBF0123002302AA01A8F0EE408A16
:104BE0008DF8063000F0A4F90399002900F0148133
:104BF0000EDD07AA02EB810104A852F8043B03F280
:104C00005D5305EB830391421B6840F8043BF4D1EC
:104C10009DED04AA7E4A07F5EA63A9EE8A8A1A6026
:104C200005F21453D5EDCC7AD5EDCD9A93ED007AFB
:104C3000F4EEC87AF1EE10FA79EEE79A40F1A68028
:104C4000B4EEC87AF1EE10FA40F3A080F4EE487AA0
:104C5000F1EE10FA00F0EE80B4EE487AF1EE10FAC0
:104C600021D1012205F5805303F27451D3EDE35AAB
:104C7000D3EDE24A91ED005A03F5AE6393ED006A7D
:104C8000F0EE456AE5EE896AA4EE896A38EE477A65
:104C900076EEC66A26EE877AC7EE298A78EE858A8E
:104CA000E5EE898ACAB378EE677A87EEA90AFEF73D
:104CB0003FFDD5EDCC7A38EE677AF7EE006AC7EEA5
:104CC000297A30EE267AB0EE006ABDEEC77A30EE71
:104CD000066A17EE103ABDEEC66A05EB830303F5CC
:104CE000805393EDE35AD3ED695A16EE103A77EEFE
:104CF000C07A05EB830505F5805536EEE77AD5EDEC
:104D0000E38AD5ED696A67EEA88A67EEA67AE5EED2
:104D1000078AE5EE877AE9EE278A04F5BB54B0EE00
:104D2000480A00F093F807F25473DFED3A7A4FF037
:104D300081421A60002807F5EB6207F25C73C2ED4E
:104D4000007A18BFF0EE678AC3ED007A07F2647349
:104D5000C4ED007A07F5ED61C3ED008A07F26C72CD
:104D600007F5EE6307F2747781ED00AA82ED00AAE1
:104D700083ED00AA87ED00AA86ED008A0AB0BDEC9B
:104D8000068BBDE8F081B0EE666ABDE6F4EEC87A47
:104D9000F1EE10FA13DAB4EEC87AF1EE10FA46D852
:104DA00000225FE7F0EE467AB4EEC79AF1EE10FA11
:104DB0004FF003027FF5C7AEB0EE479ACAE6002275
:104DC000B4EEC87AF1EE10FA7FF64CAF05F58053D9
:104DD000D3EDE45A93ED6A6AD3EDE56AD3ED6B4AFD
:104DE000B0EE655AA6EE095AE4EE896A38EE677AA3
:104DF00076EEC56A27EE267AC7EE298A78EEA58A6E
:104E0000E6EE098A4EE700BF140000200000A04033
:104E1000000040400000000005F5AB51B0EE680A0C
:104E20004046183101F09AFCB0EE40AAF2E65FED80
:104E3000078A72E70122C3E7F0EE477AB0EE479A9D
:104E4000012287E6F0EE467A022276E608B510EEF9
:104E5000100AFEF707FC02460B46FEF7DFFB0038A0
:104E600018BF012008BD00BF10B590ED000A044630
:104E7000FFF7ECFF60B194ED010AFFF7E7FF00B325
:104E800094ED020AFFF7E2FFC0B994ED020A10BDEB
:104E900094ED000A022303F18042013A04EB820000
:104EA00000E00323F0EC017AF4EE407AF1EE10FA20
:104EB000C8BFB0EE670A022BF3D010BD94ED000A14
:104EC00010BD94ED010A0323E5E700BF10B590ED96
:104ED000000A0446FFF7BAFF60B194ED010AFFF73C
:104EE000B5FF00B394ED020AFFF7B0FFC0B994ED2F
:104EF000020A10BD94ED000A022303F18042013A38
:104F000004EB820000E00323F0EC017AF4EE407A37
:104F1000F1EE10FA48BFB0EE670A022BF3D010BDD5
:104F200094ED000A10BD94ED010A0323E5E700BFEC
:104F300030B400230124146001389C4610F8014F5E
:104F40000CF1010501333CB1022D41F82C3002DD9A
:104F5000556030BC7047AC46032BEFD165465560B9
:104F600030BC704730B52DED048BD0ED4B7A634BE0
:104F7000F5EEC07AF1EE10FA93ED009A8BB017D4EB
:104F800090ED188AD0ED318A044600F1640300F1F7
:104F9000C402B3EC017AD3ED187A934238EE078A53
:104FA00078EEA78AF5D1B0EE480AFFF74FFF28B197
:104FB000B0EE490A0BB0BDEC048B30BD04F58D6535
:104FC0002846D4ED4C9AFFF74FFFF0EE400AB0EEC2
:104FD000690AFEF7D7FC2846F0EE409AFFF776FF05
:104FE000F0EE400AB0EE690AFEF7AEFCD5ED007AAD
:104FF00004F26C4393ED007A04F58E63F4EE407A8C
:10500000D3ED007AF1EE10FAB4EE407A0CBF012233
:105010000022F1EE10FAF4EE407A0CBF01230023D7
:10502000F1EE10FA0CBF012100218DF806108DF869
:10503000042001A802AA04A9F0EE409A8DF80530D8
:10504000FFF776FF0398002847D054DD04AA07A98C
:1050500002EB800552F8043B03F2BB5304EB8303DD
:10506000AA429B6841F8043BF4D101289DED070A50
:1050700009D0DDED087A032830EE270A04BFDDED04
:10508000097A30EE270A9FED1E7AD4ED4B7A20EE96
:10509000070AF4EEC07AF1EE10FA08D594ED4F7AD3
:1050A000F3EE097AB4EEE77AF1EE10FA1EDCC8EE00
:1050B000287AF5EEC07AF1EE10FA7FF579AF94ED2B
:1050C0004D7AB1EE477A87EE279AB5EEC09AF1EEA7
:1050D00010FA48BF9FED0B9A6AE704F5B751B0EE9E
:1050E000690A1831284601F039FBCCE7D4ED4E6A45
:1050F000C6EE877ADDE79DED070AC4E714000020BD
:105100000AD7A33C000000004A6852B1411EC0F11A
:1051100001035818824206DD11F8010F0028F8D16A
:105120007047104670470120704700BF0000000024
:105130002DE9F04F2DED0E8B00F58056ADF5097D74
:10514000CDE90712099396F84C3706F5E962012B71
:1051500092ED008A0446B0EE409AF0EE608AB0EE1E
:1051600041DAB0EE61AA05D0B4EEC81AF1EE10FA39
:1051700040F1488704F58D673846FFF775FE3846DD
:10518000F0EE409AFFF7A2FEF0EE690AF0EE40AAB8
:10519000B0EE480AFEF7F6FBF0EE6A0AFEF7D4FB23
:1051A000D7ED007A04F26C43F4EE407AD3ED007A46
:1051B000029304F58E63F1EE10FAF4EE407AD3ED2B
:1051C000007A03930CBF01230023F1EE10FAF4EEF2
:1051D000407A8DF828300CBF01230023F1EE10FA3D
:1051E0008DF829300FAA0CBF012300231DA90AA89E
:1051F0008DF82A30B0EE40BAFFF79AFE109B059367
:10520000002B00F0EF8741F36F80059B11A91DAAC9
:10521000019102EB830052F8043B03F2BB5304EB11
:10522000830382429B6841F8043BF4D1F0EE690AA3
:10523000B0EE480AFEF7A6FBF0EE6A0AFEF784FB22
:10524000029BD7ED007A93ED007A039BF4EE407A4F
:10525000D3ED007AF1EE10FAB4EE407A0CBF0123E0
:105260000023F1EE10FAF4EE407A8DF828300CBFEE
:1052700001230023F1EE10FA8DF829301DA90CBF8F
:10528000012300230FAA0AA8B0EE40BA8DF82A30F5
:10529000FFF74EFE1099002900F08F874FEA410A70
:1052A000524641F3258032AB1DA800939E468B00E9
:1052B000069300EB810184465CF8043B03F2AF5394
:1052C00004EB830361459B684EF8043BF4D1009BDB
:1052D000069D03EB050C50F8043B03F2B25304EBBC
:1052E000830388429B684CF8043BF4D1002A40F3C6
:1052F000AF8715462CABDDF800B0049399464FF00C
:105300000008BBEC010AFEF70FFA08F10108C245DC
:10531000A9EC010AF5DC002D40F3F5870499F1EEC4
:105320004ACA002391ED007ACCEE877A01339D4280
:10533000E1EC017AF6DCBAF1000F0CDD049D4FF0D0
:10534000000895ED000AFEF749FA08F10108C24588
:10535000A5EC010AF5D1F0EE690AB0EE480AFEF7B5
:1053600011FBF0EE6A0AFEF7EFFA029BD7ED007A26
:1053700093ED007A039BF4EE407AD3ED007AF1EEE0
:1053800010FAB4EE407A0CBF01230023F1EE10FABC
:10539000F4EE407A8DF828300CBF01230023F1EEA3
:1053A00010FA8DF829300FAA0CBF012300231DA984
:1053B0000AA8B0EE40BA8DF82A30FFF7B9FD109A6E
:1053C000002A00F0E78640F388871DA9DDF800C0B9
:1053D0004FEA820A084601EB820250F8043B03F2CE
:1053E000B55304EB830382429B684CF8043BF4D131
:1053F000009B03EB0A0051F8043B03F5B76304EB91
:1054000083038A429B6840F8043BF4D1009B93EDF0
:1054100000BAF0EE690AB0EE480AFEF7B3FAF0EE11
:105420006A0AFEF791FA029BD7ED006A93ED007AC3
:10543000039BF4EE406AD3ED007AF1EE10FAB4EE7D
:10544000407A0CBF01230023F1EE10FAF4EE407A0B
:105450008DF828300CBF01230023F1EE10FA8DF8EF
:1054600029300FAA0CBF012300231DA90AA8F0EEC2
:10547000409A8DF82A30FFF75BFDDDF840B0BBF1B4
:10548000000F00F079860EDD1DAB14A903EB8B0035
:1054900053F8042B02F2AD5204EB82029842526898
:1054A00041F8042BF4D1009D94ED170A554439EED0
:1054B000400AD5ED00BAFEF737F9F0EE407A94EDE8
:1054C000150A30EE680A17EE907AFEF72DF910EE05
:1054D000105A2846FEF7C6F8F9A3D3E90023FEF7D1
:1054E00065F870B13846FEF7BDF8F5A3D3E900239F
:1054F000FEF75CF828B1B5EEC0DAF1EE10FA00F173
:10550000E48606F5ED6393ED00CA9FEDE77ADFEDE3
:10551000E77A06F27473D3ED009A69EE879A06F57E
:10552000EE63ECEE279AD3ED00AA6AEE87AAF0EEBE
:10553000006AE9EEA7AA06F5E963D3ED007AB0EEBA
:105540006A7A99EEA67AF4EECD7AF1EE10FA8DED44
:10555000177A05D4B5EEC0DAF1EE10FAC0F2528631
:105560004FEA8B0214A917A8FEF752FD4022002132
:1055700058A8FEF776FD06F25473D3ED007AFDEEDF
:10558000E77A002217EE903A2092219222922392FB
:105590005A1E03EB820388A901EB83034FF07E516F
:1055A00043F8C41C059B002B4FEA82020DDD019BD2
:1055B00005999FEDBF7A03EB8101D3ED007A67EE89
:1055C000877AE3EC017A9942F7D1019B9FEDBEDA2D
:1055D000D3ED00DAD4ED157A0499069BD4ED006A78
:1055E00091ED006A8CEEAD7A0B4488A888AD67EE29
:1055F0008D7AD3ED005A67EE8A7A20AB87EEAD0A3A
:105600001A44D4ED017A82ED007AFDEEE77AB7EE26
:1056100000EA17EE903AFDEEE67A591E17EE902A50
:1056200003EB810300EB830320A800EB8101501EF4
:1056300002EB800205EB82027EEE657A02ED316AB2
:105640003EEE466A43ED315A20AB03EB800080ED1D
:10565000006AB1EE400AC1ED007ACDED275AFEF79F
:10566000BDF806F5EA63D3ED007A9DED206ADDED25
:10567000216A9DED227A8DED386AFDEEE77A26EEFD
:105680000D4A17EE903ADDED237A8DED3C4A03EB9F
:10569000830366EE8D4A27EE0D5A67EE8D5A05EBB1
:1056A0008303F0EE40CA03ED350A94ED150ACDED03
:1056B000396ACDED3D4A8DED3A7A8DED3E5ACDED0C
:1056C0003B7ACDED3F5AFFF7C1FB002800F0A784DD
:1056D000784BD4ED156A93ED007A9FED7B6A2AEE44
:1056E000066A06F5EA63C6EE2D7A06F25C7238A900
:1056F00058AFCDE902B778AD0DF1A00AA9463846FA
:105700004FF0000E04F1400892ED005A27EEEC6ACB
:10571000D3ED007AFDEEE77A06F5EB63D3ED004AB0
:1057200017EE903A03F2D55204EB8202D2ED007AE2
:10573000F7EE005A7CEEE5CAE7EE875A5A1E01EBF7
:105740008303C3ED03CA04F5BB5366EE257A0093C9
:10575000D3ED005A06F2647393ED006A20AB03EBBD
:105760008203C3ED007A930068AAD0ED041AD0ED4D
:10577000082A90ED0C3AB0EC012AF1EC013A65EE02
:10578000217A91ED034AE2EE247A9346274627EEEA
:10579000044AE2EEA57AA3EEA64AE3EE067A77EE95
:1057A000847AEAEC017AD7ED037A97ED024AD7EDD5
:1057B000043A61EEA77A1037E2EE047ADC460BF188
:1057C000100B97ED014AE2EEA37AB845E3EE047AB6
:1057D000CCED007AE7D1B2EC012AD2ED032A92EDAA
:1057E000073AD2ED0B3ACB4658AFB7EC014AD7EDAA
:1057F000037AD7ED071A97ED0B1A62EEA77ADC460B
:10580000E4EE027A0BF1100BE3EE217AE3EE817AFB
:10581000CCED007A0DF5B87CBC45E6D10EF1010E59
:10582000BEF1040F09F104099FD128AA1344D3ED56
:10583000000ABFEE000ADDE902B7FEF785F806F5BB
:10584000EA63D3ED007AFDEEE77AF0EE400A06F265
:10585000547AB7EE000A17EE909AFEF793F8DAED55
:10586000007AFDEEE77A28AB09F1FF3903EB8909ED
:1058700017EE903A28AA02EB830389ED000A53ED54
:10588000010A9FED0D0AFEF75FF8DAED007AFDEEF2
:10589000E77AF0EE400A17EE909A9FED080AFEF7BD
:1058A00071F8D4ED137A13E072F97F3F17B7D1384E
:1058B0000000614514000020CDCC4CBD6666863FDB
:1058C000FCA9F1D24D62703F000000000000C84208
:1058D0009DED204ADDED214A9DED225A9DED237A72
:1058E00028AB09F1FF3903EB89090DF1800A27EE96
:1058F000844A67EEA44A27EE855A27EE877A89ED17
:10590000000A58AB5246F2EC017A24A964EE275AF9
:1059100027EEA46A67EE856A67EE877A9142C3ED47
:10592000005A83ED016AC3ED026AC3ED037A03F105
:105930001003E8D104F1080905F140024B46F5ECEB
:10594000017AB7EC017A77EE877AAA42E3EC017A22
:10595000F5D106F25473D3ED007A94ED510AD4EDEB
:1059600052DAFDEEE77A04F2644393ED007A17EE23
:10597000903A28AA02EB830313ED01DAB4EECD0AC4
:10598000F1EE10FA7DEEC0DAC0F25783B4EEC7DA5A
:10599000F1EE10FAB4EECD0A80F26583F1EE10FA62
:1059A00000F18684002304F6841292ED007A04F557
:1059B000CC62D2ED007A04F5186292ED006A04F22E
:1059C0005C62D2ED006AF0EE465AA7EE887AE6EE07
:1059D000885A7DEE407A37EE657A67EE877AC7EEB1
:1059E000ADCA7CEE86CAE6EE88CA002B4AD03DEEF0
:1059F000400A80EE2D0AFDF79BFE06F2547228A99C
:105A0000F0EE007A70EE277AD4ED515AFDEEE77A87
:105A1000F7EE006A17EE903AD2ED007AFDEEE77AE3
:105A200030EE267A17EE902A01EB820212ED016A1F
:105A300036EE656ABDEEC77AC6EE2D7A04EB8303B7
:105A400003F67C1103F5CB6317EE102A77EEC07ACC
:105A500093ED007AD1ED00CA04EB820202F67C13CA
:105A600002F5CB6276EEE76A67EEACCA93ED006AA8
:105A700067EE877A92ED007AE6EE26CAE7EE267A9E
:105A8000E8EE27CAB0EE4D0AFFF7E0F994ED017A8F
:105A9000D4ED007A5FED746ABDEEC77A28AA17EEDE
:105AA000103AFDEEE77A02EB830313ED017A00284A
:105AB00017EE903A18BFF0EE66CAE7EE6BCA02EB3B
:105AC0008303BBF1000F53ED017AE7EECBCA0DDD86
:105AD00017AB019A03EB8B01B3EC017AF0EE6C7A11
