:1000000000600020A50300005D0300005F03000006
:1000100061030000630300006503000000000000AE
:100020000000000000000000000000006703000066
:1000300069030000000000006B0300006D03000076
:100040006F0300006F0300006F0300006F030000E8
:100050006F030000000000006F0300006F0300004A
:100060006F0300006F0300006F0300006F030000C8
:100070006F0300006F0300006F0300006F030000B8
:100080006F0300006F0300006F0300006F030000A8
:100090006F0300006F0300006F0300006F03000098
:1000A0006F0300006F03000000000000000000006C
:1000B0006F0300006F03000000000000000000005C
:1000C0000000000000000000000000000000000030
:1000D0000000000000000000000000000000000020
:1000E0000000000000000000000000000000000010
:1000F0000000000000000000000000000000000000
:1001000000000000000000000000000000000000EF
:1001100000000000000000000000000000000000DF
:1001200000000000000000000000000000000000CF
:1001300000000000000000000000000000000000BF
:1001400000000000000000000000000000000000AF
:10015000000000000000000000000000000000009F
:10016000000000000000000000000000000000008F
:10017000000000000000000000000000000000007F
:10018000000000000000000000000000000000006F
:10019000000000000000000000000000000000005F
:1001A000000000000000000000000000000000004F
:1001B000000000000000000000000000000000003F
:1001C000000000000000000000000000000000002F
:1001D000000000000000000000000000000000001F
:1001E000000000000000000000000000000000000F
:1001F00000000000000000000000000000000000FF
:10020000354936480A1A02D0072291438D463449AF
:1002100034480A1A06D00722914381F30988022242
:1002200082F3148830483149314A00F044F83148AB
:100230003149324A00F03FF831483249324A00F041
:100240003AF832483249334A00F035F832483349F7
:10025000334A00F030F833483349344A00F02BF881
:1002600033483449344A00F026F8344834490022EF
:1002700000F02CF833483449002200F027F83348C6
:100280003349091A082902DB002202604160314A21
:1002900090471F481F49884205D00268043003B4C4
:1002A000904703BCF7E700208646EC46002000217B
:1002B000294A9047FEE7884207D0521A05D00378B2
:1002C00001300B700131013AF9D17047884202D0F8
:1002D00002700130FAE770470060002000580020EB
:1002E00000600020006000204C080000000000209A
:1002F00004000020EC030000EC03000024080000D0
:100300004C0800000000002000000020240800002D
:10031000240800002408000024080000240800002D
:100320002408000024080000240800004C080000F5
:1003300050080000040000200400002004000020F9
:10034000040000200400002004000020040000201D
:1003500004080020BB03000089040000FEE7FEE75C
:10036000FEE7FEE7FEE7FEE7FEE7FEE7FEE7FEE765
:1003700009480068094909680A280AD1002908D1F2
:10038000074802686FF070031A404FF040031A43A9
:10039000026000F009B800003001001034010010C4
:1003A000E40E0040FFF7E4BF0B484FF0070188431D
:1003B00085460A488047FFF723BF094809490A4A8A
:1003C000884207D0521A05D0037801300B700131F2
:1003D000013AF9D17047000000600020710500006B
:0C03E000240800000000002000000020A5
:1003EC00044B1A5C012393404FF0A042C2F808352D
:1003FC00704700BF2408000008B50020FFF7F0FF8D
:10040C000120FFF7EDFF0220FFF7EAFFBDE80840EF
:10041C000320FFF7E5BF0000074A4FF0A041105C36
:10042C00D1F804350122824022EA03001340C1F8BE
:10043C000805C1F80C35704724080000C20708B540
:10044C0001460CD54FF0A0430322C3F84427C3F850
:10045C004827C3F84C27C3F85027FFF7CDFF8B076D
:10046C000AD54FF0A0430C22C3F83427C3F8382721
:10047C00C3F83C27C3F8402708BD000073B5012022
:10048C00FFF7DCFF4FF080433422C3F81C25002219
:10049C000092019204220092094D0192D3F81C356E
:1004AC0045F0010500242046FFF7B6FF32264FF435
:1004BC007A40A847013EFAD10134042CF3D1F1E77C
:1004CC0030080000BFF34F8F0549064BCA6802F491
:1004DC00E0621343CB60BFF34F8F00BFFDE700BF5B
:1004EC0000ED00E00400FA054FF08053D3F8300122
:1004FC00421C04BF4FF0704393F8E00F831F584227
:10050C00584170474FF0704393F8E02F062A09D1F9
:10051C00D3F8E83FC3F30313033B042B02D8024A7E
:10052C00D05C704700207047450800004FF08053A6
:10053C00D3F83001421C04BF4FF0704393F8E00F26
:10054C00062804D0A0F10A035842584170470120F4
:10055C0070470000024AD2F80034002BFBD07047E1
:10056C0000E0014010B5FFF7BFFF40B14FF08053E2
:10057C009C4AD3F82433C3F30423C2F84035FFF765
:10058C00C1FF10B1984B994A5A67FFF7CFFF48B19A
:10059C004FF080534FF08042D3F84432C3F34233D0
:1005AC00C2F83C35FFF7AEFF30B1914AD2F8FC30BF
:1005BC0023F08073C2F8FC30FFF7B8FF40B14FF066
:1005CC0080430022C3F80C21C3F81021C3F838254E
:1005DC00FFF798FF20B14FF080430322C3F8A0250A
:1005EC00FFF790FF60B1834B0522C3F81026012260
:1005FC00C3F888260022C3F818263F22C3F8142615
:10060C004FF08053D3F83021511C09BF4FF0704389
:10061C00D3F8343193F8E02FD3F8E83F08BFC3F395
:10062C000313062A4ED1033B042B03D8724AD35C26
:10063C00002B49D04FF08052704BD2F80414C3F801
:10064C002015D2F80814C3F82415D2F80C14C3F8EA
:10065C002815D2F81014C3F82C15D2F81414C3F8BA
:10066C003015D2F81814C3F83415D2F81C14C3F88A
:10067C004015D2F82014C3F84415D2F82414C3F84A
:10068C004815D2F82814C3F84C15D2F82C14C3F81A
:10069C005015D2F83014C3F85415D2F83414C3F8EA
:1006AC006015D2F83814C3F86415D2F83C14C3F8AA
:1006BC006815D2F84014C3F86C15D2F84424C3F86A
:1006CC00702501E00A2AB5D0FFF70EFF48B14FF0B4
:1006DC0080534FF08042D3F8583203F04F03C2F8E6
:1006EC00E43EFFF723FF48B14FF08043D3F80024DA
:1006FC00D20744BF6FF00102C3F800244FF08053BF
:10070C00D3F83021062A0ED1D3F83431033B042B15
:10071C0002D83B4AD35CBBB13A4AD2F83C3743F4DB
:10072C008063C2F83C374FF08053D3F830210A2A4B
:10073C000AD1D3F834313BB14FF08042D2F8E43EC9
:10074C0043F00F03C2F8E43E4FF08053D3F830214E
:10075C00062A0FD1D3F83431033B042B02D82A4A92
:10076C00D35C3BB14FF01023D3F808224FF08043F9
:10077C00C3F858254FF01021D1F80032002B03DBC1
:10078C00D1F80432002B17DA204901234FF0102046
:10079C00C1F804351524FFF7DDFEC0F80042FFF761
:1007AC00D9FEC0F80442FFF7D5FE0023C1F804358A
:1007BC00FFF7D0FEFFF786FED1F80C32DB070DD524
:1007CC0012480123C0F804350024FFF7C3FEC1F81A
:1007DC000C42FFF7BFFEC0F80445E9E70C4B0D4A8D
:1007EC001A6010BD0030014000C007400DF0ADBADA
:1007FC0000ED00E0005000403608000000C0004052
:10080C003B080000001000404008000000E00140E0
:08081C00000000200090D00351
:100824001112131400000000000000000338FDD86A
:1008340070470000010101000000010100000000F8
:080844000101000000000000AA
:04084C000090D00345
:04000003000003A551
:00000001FF
